{
	"contracts/GatePassOne.sol": {
		"GatePassOne": {
			"abi": [
				{
					"inputs": [
						{
							"internalType": "address",
							"name": "_gateAddr",
							"type": "address"
						},
						{
							"internalType": "uint256",
							"name": "_gas",
							"type": "uint256"
						}
					],
					"name": "enterGate",
					"outputs": [
						{
							"internalType": "bool",
							"name": "",
							"type": "bool"
						}
					],
					"stateMutability": "nonpayable",
					"type": "function"
				}
			],
			"devdoc": {
				"methods": {}
			},
			"evm": {
				"assembly": "    /* \"contracts/GatePassOne.sol\":60:421  contract GatePassOne {\r... */\n  mstore(0x40, 0x80)\n  callvalue\n    /* \"--CODEGEN--\":8:17   */\n  dup1\n    /* \"--CODEGEN--\":5:7   */\n  iszero\n  tag_1\n  jumpi\n    /* \"--CODEGEN--\":30:31   */\n  0x00\n    /* \"--CODEGEN--\":27:28   */\n  dup1\n    /* \"--CODEGEN--\":20:32   */\n  revert\n    /* \"--CODEGEN--\":5:7   */\ntag_1:\n    /* \"contracts/GatePassOne.sol\":60:421  contract GatePassOne {\r... */\n  pop\n  dataSize(sub_0)\n  dup1\n  dataOffset(sub_0)\n  0x00\n  codecopy\n  0x00\n  return\nstop\n\nsub_0: assembly {\n        /* \"contracts/GatePassOne.sol\":60:421  contract GatePassOne {\r... */\n      mstore(0x40, 0x80)\n      callvalue\n        /* \"--CODEGEN--\":8:17   */\n      dup1\n        /* \"--CODEGEN--\":5:7   */\n      iszero\n      tag_1\n      jumpi\n        /* \"--CODEGEN--\":30:31   */\n      0x00\n        /* \"--CODEGEN--\":27:28   */\n      dup1\n        /* \"--CODEGEN--\":20:32   */\n      revert\n        /* \"--CODEGEN--\":5:7   */\n    tag_1:\n        /* \"contracts/GatePassOne.sol\":60:421  contract GatePassOne {\r... */\n      pop\n      jumpi(tag_2, lt(calldatasize, 0x04))\n      shr(0xe0, calldataload(0x00))\n      dup1\n      0xfc241ed5\n      eq\n      tag_3\n      jumpi\n    tag_2:\n      0x00\n      dup1\n      revert\n        /* \"contracts/GatePassOne.sol\":88:418  function enterGate(address _gateAddr, uint256 _gas) public returns (bool) {\r... */\n    tag_3:\n      tag_4\n      0x04\n      dup1\n      calldatasize\n      sub\n        /* \"--CODEGEN--\":13:15   */\n      0x40\n        /* \"--CODEGEN--\":8:11   */\n      dup2\n        /* \"--CODEGEN--\":5:16   */\n      lt\n        /* \"--CODEGEN--\":2:4   */\n      iszero\n      tag_5\n      jumpi\n        /* \"--CODEGEN--\":29:30   */\n      0x00\n        /* \"--CODEGEN--\":26:27   */\n      dup1\n        /* \"--CODEGEN--\":19:31   */\n      revert\n        /* \"--CODEGEN--\":2:4   */\n    tag_5:\n        /* \"contracts/GatePassOne.sol\":88:418  function enterGate(address _gateAddr, uint256 _gas) public returns (bool) {\r... */\n      dup2\n      add\n      swap1\n      dup1\n      dup1\n      calldataload\n      0xffffffffffffffffffffffffffffffffffffffff\n      and\n      swap1\n      0x20\n      add\n      swap1\n      swap3\n      swap2\n      swap1\n      dup1\n      calldataload\n      swap1\n      0x20\n      add\n      swap1\n      swap3\n      swap2\n      swap1\n      pop\n      pop\n      pop\n      tag_6\n      jump\t// in\n    tag_4:\n      mload(0x40)\n      dup1\n      dup3\n      iszero\n      iszero\n      iszero\n      iszero\n      dup2\n      mstore\n      0x20\n      add\n      swap2\n      pop\n      pop\n      mload(0x40)\n      dup1\n      swap2\n      sub\n      swap1\n      return\n    tag_6:\n        /* \"contracts/GatePassOne.sol\":156:160  bool */\n      0x00\n        /* \"contracts/GatePassOne.sol\":220:234  bytes8 gateKey */\n      dup1\n        /* \"contracts/GatePassOne.sol\":259:268  tx.origin */\n      origin\n        /* \"contracts/GatePassOne.sol\":237:271  bytes8(uint64(uint160(tx.origin))) */\n      0xc0\n      shl\n        /* \"contracts/GatePassOne.sol\":220:271  bytes8 gateKey = bytes8(uint64(uint160(tx.origin))) */\n      swap1\n      pop\n        /* \"contracts/GatePassOne.sol\":283:295  bool success */\n      0x00\n        /* \"contracts/GatePassOne.sol\":309:318  _gateAddr */\n      dup5\n        /* \"contracts/GatePassOne.sol\":301:324  address(_gateAddr).call */\n      0xffffffffffffffffffffffffffffffffffffffff\n      and\n        /* \"contracts/GatePassOne.sol\":329:333  _gas */\n      dup5\n        /* \"contracts/GatePassOne.sol\":376:383  gateKey */\n      dup4\n        /* \"contracts/GatePassOne.sol\":335:384  abi.encodeWithSignature(\"enter(bytes8)\", gateKey) */\n      add(0x24, mload(0x40))\n      dup1\n      dup3\n      not(0xffffffffffffffffffffffffffffffffffffffffffffffff)\n      and\n      not(0xffffffffffffffffffffffffffffffffffffffffffffffff)\n      and\n      dup2\n      mstore\n      0x20\n      add\n      swap2\n      pop\n      pop\n      mload(0x40)\n        /* \"--CODEGEN--\":49:53   */\n      0x20\n        /* \"--CODEGEN--\":39:46   */\n      dup2\n        /* \"--CODEGEN--\":30:37   */\n      dup4\n        /* \"--CODEGEN--\":26:47   */\n      sub\n        /* \"--CODEGEN--\":22:54   */\n      sub\n        /* \"--CODEGEN--\":13:20   */\n      dup2\n        /* \"--CODEGEN--\":6:55   */\n      mstore\n        /* \"contracts/GatePassOne.sol\":335:384  abi.encodeWithSignature(\"enter(bytes8)\", gateKey) */\n      swap1\n      0x40\n      mstore\n      and(not(0xffffffffffffffffffffffffffffffffffffffffffffffffffffffff), 0x3370204e00000000000000000000000000000000000000000000000000000000)\n        /* \"--CODEGEN--\":38:42   */\n      0x20\n        /* \"--CODEGEN--\":29:36   */\n      dup3\n        /* \"--CODEGEN--\":25:43   */\n      add\n        /* \"--CODEGEN--\":67:77   */\n      dup1\n        /* \"--CODEGEN--\":61:78   */\n      mload\n        /* \"--CODEGEN--\":96:154   */\n      0xffffffffffffffffffffffffffffffffffffffffffffffffffffffff\n        /* \"--CODEGEN--\":199:207   */\n      dup4\n        /* \"--CODEGEN--\":192:196   */\n      dup2\n        /* \"--CODEGEN--\":186:190   */\n      dup4\n        /* \"--CODEGEN--\":182:197   */\n      and\n        /* \"--CODEGEN--\":179:208   */\n      or\n        /* \"--CODEGEN--\":167:177   */\n      dup4\n        /* \"--CODEGEN--\":160:209   */\n      mstore\n        /* \"--CODEGEN--\":0:215   */\n      pop\n      pop\n      pop\n        /* \"contracts/GatePassOne.sol\":335:384  abi.encodeWithSignature(\"enter(bytes8)\", gateKey) */\n      pop\n        /* \"contracts/GatePassOne.sol\":301:385  address(_gateAddr).call.gas(_gas)(abi.encodeWithSignature(\"enter(bytes8)\", gateKey)) */\n      mload(0x40)\n      dup1\n      dup3\n      dup1\n      mload\n      swap1\n      0x20\n      add\n      swap1\n      dup1\n      dup4\n      dup4\n        /* \"--CODEGEN--\":36:189   */\n    tag_8:\n        /* \"--CODEGEN--\":66:68   */\n      0x20\n        /* \"--CODEGEN--\":61:64   */\n      dup4\n        /* \"--CODEGEN--\":58:69   */\n      lt\n        /* \"--CODEGEN--\":36:189   */\n      tag_10\n      jumpi\n        /* \"--CODEGEN--\":182:185   */\n      dup1\n        /* \"--CODEGEN--\":176:186   */\n      mload\n        /* \"--CODEGEN--\":171:174   */\n      dup3\n        /* \"--CODEGEN--\":164:187   */\n      mstore\n        /* \"--CODEGEN--\":98:100   */\n      0x20\n        /* \"--CODEGEN--\":93:96   */\n      dup3\n        /* \"--CODEGEN--\":89:101   */\n      add\n        /* \"--CODEGEN--\":82:101   */\n      swap2\n      pop\n        /* \"--CODEGEN--\":123:125   */\n      0x20\n        /* \"--CODEGEN--\":118:121   */\n      dup2\n        /* \"--CODEGEN--\":114:126   */\n      add\n        /* \"--CODEGEN--\":107:126   */\n      swap1\n      pop\n        /* \"--CODEGEN--\":148:150   */\n      0x20\n        /* \"--CODEGEN--\":143:146   */\n      dup4\n        /* \"--CODEGEN--\":139:151   */\n      sub\n        /* \"--CODEGEN--\":132:151   */\n      swap3\n      pop\n        /* \"--CODEGEN--\":36:189   */\n      jump(tag_8)\n    tag_10:\n        /* \"--CODEGEN--\":274:275   */\n      0x01\n        /* \"--CODEGEN--\":267:270   */\n      dup4\n        /* \"--CODEGEN--\":263:265   */\n      0x20\n        /* \"--CODEGEN--\":259:271   */\n      sub\n        /* \"--CODEGEN--\":254:257   */\n      0x0100\n        /* \"--CODEGEN--\":250:272   */\n      exp\n        /* \"--CODEGEN--\":246:276   */\n      sub\n        /* \"--CODEGEN--\":315:319   */\n      dup1\n        /* \"--CODEGEN--\":311:320   */\n      not\n        /* \"--CODEGEN--\":305:308   */\n      dup3\n        /* \"--CODEGEN--\":299:309   */\n      mload\n        /* \"--CODEGEN--\":295:321   */\n      and\n        /* \"--CODEGEN--\":356:360   */\n      dup2\n        /* \"--CODEGEN--\":350:353   */\n      dup5\n        /* \"--CODEGEN--\":344:354   */\n      mload\n        /* \"--CODEGEN--\":340:361   */\n      and\n        /* \"--CODEGEN--\":389:396   */\n      dup1\n        /* \"--CODEGEN--\":380:387   */\n      dup3\n        /* \"--CODEGEN--\":377:397   */\n      or\n        /* \"--CODEGEN--\":372:375   */\n      dup6\n        /* \"--CODEGEN--\":365:398   */\n      mstore\n        /* \"--CODEGEN--\":3:402   */\n      pop\n      pop\n      pop\n        /* \"contracts/GatePassOne.sol\":301:385  address(_gateAddr).call.gas(_gas)(abi.encodeWithSignature(\"enter(bytes8)\", gateKey)) */\n      pop\n      pop\n      pop\n      swap1\n      pop\n      add\n      swap2\n      pop\n      pop\n      0x00\n      mload(0x40)\n      dup1\n      dup4\n      sub\n      dup2\n      0x00\n      dup8\n      dup8\n      call\n      swap3\n      pop\n      pop\n      pop\n      returndatasize\n        /* \"--CODEGEN--\":12:13   */\n      dup1\n        /* \"--CODEGEN--\":19:20   */\n      0x00\n        /* \"--CODEGEN--\":14:41   */\n      dup2\n      eq\n      tag_13\n      jumpi\n        /* \"--CODEGEN--\":67:71   */\n      0x40\n        /* \"--CODEGEN--\":61:72   */\n      mload\n        /* \"--CODEGEN--\":56:72   */\n      swap2\n      pop\n        /* \"--CODEGEN--\":134:138   */\n      0x1f\n        /* \"--CODEGEN--\":130:139   */\n      not\n        /* \"--CODEGEN--\":123:127   */\n      0x3f\n        /* \"--CODEGEN--\":105:121   */\n      returndatasize\n        /* \"--CODEGEN--\":101:128   */\n      add\n        /* \"--CODEGEN--\":97:140   */\n      and\n        /* \"--CODEGEN--\":94:95   */\n      dup3\n        /* \"--CODEGEN--\":90:141   */\n      add\n        /* \"--CODEGEN--\":84:88   */\n      0x40\n        /* \"--CODEGEN--\":77:142   */\n      mstore\n        /* \"--CODEGEN--\":157:173   */\n      returndatasize\n        /* \"--CODEGEN--\":154:155   */\n      dup3\n        /* \"--CODEGEN--\":147:174   */\n      mstore\n        /* \"--CODEGEN--\":211:227   */\n      returndatasize\n        /* \"--CODEGEN--\":208:209   */\n      0x00\n        /* \"--CODEGEN--\":201:205   */\n      0x20\n        /* \"--CODEGEN--\":198:199   */\n      dup5\n        /* \"--CODEGEN--\":194:206   */\n      add\n        /* \"--CODEGEN--\":179:228   */\n      returndatacopy\n        /* \"--CODEGEN--\":5:233   */\n      jump(tag_12)\n        /* \"--CODEGEN--\":14:41   */\n    tag_13:\n        /* \"--CODEGEN--\":32:36   */\n      0x60\n        /* \"--CODEGEN--\":27:36   */\n      swap2\n      pop\n        /* \"--CODEGEN--\":5:233   */\n    tag_12:\n      pop\n        /* \"contracts/GatePassOne.sol\":282:385  (bool success, ) = address(_gateAddr).call.gas(_gas)(abi.encodeWithSignature(\"enter(bytes8)\", gateKey)) */\n      pop\n      swap1\n      pop\n        /* \"contracts/GatePassOne.sol\":403:410  success */\n      dup1\n        /* \"contracts/GatePassOne.sol\":396:410  return success */\n      swap3\n      pop\n      pop\n      pop\n        /* \"contracts/GatePassOne.sol\":88:418  function enterGate(address _gateAddr, uint256 _gas) public returns (bool) {\r... */\n      swap3\n      swap2\n      pop\n      pop\n      jump\t// out\n\n    auxdata: 0xa2646970667358221220d722436d351f7e088a6f7796a97d95fcb6bf0880f64d8457ff0f1e51327bc20964736f6c63430006000033\n}\n",
				"bytecode": {
					"linkReferences": {},
					"object": "608060405234801561001057600080fd5b5061025d806100206000396000f3fe608060405234801561001057600080fd5b506004361061002b5760003560e01c8063fc241ed514610030575b600080fd5b61007c6004803603604081101561004657600080fd5b81019080803573ffffffffffffffffffffffffffffffffffffffff16906020019092919080359060200190929190505050610096565b604051808215151515815260200191505060405180910390f35b6000803260c01b905060008473ffffffffffffffffffffffffffffffffffffffff168483604051602401808277ffffffffffffffffffffffffffffffffffffffffffffffff191677ffffffffffffffffffffffffffffffffffffffffffffffff191681526020019150506040516020818303038152906040527f3370204e000000000000000000000000000000000000000000000000000000007bffffffffffffffffffffffffffffffffffffffffffffffffffffffff19166020820180517bffffffffffffffffffffffffffffffffffffffffffffffffffffffff83818316178352505050506040518082805190602001908083835b602083106101b0578051825260208201915060208101905060208303925061018d565b6001836020036101000a03801982511681845116808217855250505050505090500191505060006040518083038160008787f1925050503d8060008114610213576040519150601f19603f3d011682016040523d82523d6000602084013e610218565b606091505b5050905080925050509291505056fea2646970667358221220d722436d351f7e088a6f7796a97d95fcb6bf0880f64d8457ff0f1e51327bc20964736f6c63430006000033",
					"opcodes": "PUSH1 0x80 PUSH1 0x40 MSTORE CALLVALUE DUP1 ISZERO PUSH2 0x10 JUMPI PUSH1 0x0 DUP1 REVERT JUMPDEST POP PUSH2 0x25D DUP1 PUSH2 0x20 PUSH1 0x0 CODECOPY PUSH1 0x0 RETURN INVALID PUSH1 0x80 PUSH1 0x40 MSTORE CALLVALUE DUP1 ISZERO PUSH2 0x10 JUMPI PUSH1 0x0 DUP1 REVERT JUMPDEST POP PUSH1 0x4 CALLDATASIZE LT PUSH2 0x2B JUMPI PUSH1 0x0 CALLDATALOAD PUSH1 0xE0 SHR DUP1 PUSH4 0xFC241ED5 EQ PUSH2 0x30 JUMPI JUMPDEST PUSH1 0x0 DUP1 REVERT JUMPDEST PUSH2 0x7C PUSH1 0x4 DUP1 CALLDATASIZE SUB PUSH1 0x40 DUP2 LT ISZERO PUSH2 0x46 JUMPI PUSH1 0x0 DUP1 REVERT JUMPDEST DUP2 ADD SWAP1 DUP1 DUP1 CALLDATALOAD PUSH20 0xFFFFFFFFFFFFFFFFFFFFFFFFFFFFFFFFFFFFFFFF AND SWAP1 PUSH1 0x20 ADD SWAP1 SWAP3 SWAP2 SWAP1 DUP1 CALLDATALOAD SWAP1 PUSH1 0x20 ADD SWAP1 SWAP3 SWAP2 SWAP1 POP POP POP PUSH2 0x96 JUMP JUMPDEST PUSH1 0x40 MLOAD DUP1 DUP3 ISZERO ISZERO ISZERO ISZERO DUP2 MSTORE PUSH1 0x20 ADD SWAP2 POP POP PUSH1 0x40 MLOAD DUP1 SWAP2 SUB SWAP1 RETURN JUMPDEST PUSH1 0x0 DUP1 ORIGIN PUSH1 0xC0 SHL SWAP1 POP PUSH1 0x0 DUP5 PUSH20 0xFFFFFFFFFFFFFFFFFFFFFFFFFFFFFFFFFFFFFFFF AND DUP5 DUP4 PUSH1 0x40 MLOAD PUSH1 0x24 ADD DUP1 DUP3 PUSH24 0xFFFFFFFFFFFFFFFFFFFFFFFFFFFFFFFFFFFFFFFFFFFFFFFF NOT AND PUSH24 0xFFFFFFFFFFFFFFFFFFFFFFFFFFFFFFFFFFFFFFFFFFFFFFFF NOT AND DUP2 MSTORE PUSH1 0x20 ADD SWAP2 POP POP PUSH1 0x40 MLOAD PUSH1 0x20 DUP2 DUP4 SUB SUB DUP2 MSTORE SWAP1 PUSH1 0x40 MSTORE PUSH32 0x3370204E00000000000000000000000000000000000000000000000000000000 PUSH28 0xFFFFFFFFFFFFFFFFFFFFFFFFFFFFFFFFFFFFFFFFFFFFFFFFFFFFFFFF NOT AND PUSH1 0x20 DUP3 ADD DUP1 MLOAD PUSH28 0xFFFFFFFFFFFFFFFFFFFFFFFFFFFFFFFFFFFFFFFFFFFFFFFFFFFFFFFF DUP4 DUP2 DUP4 AND OR DUP4 MSTORE POP POP POP POP PUSH1 0x40 MLOAD DUP1 DUP3 DUP1 MLOAD SWAP1 PUSH1 0x20 ADD SWAP1 DUP1 DUP4 DUP4 JUMPDEST PUSH1 0x20 DUP4 LT PUSH2 0x1B0 JUMPI DUP1 MLOAD DUP3 MSTORE PUSH1 0x20 DUP3 ADD SWAP2 POP PUSH1 0x20 DUP2 ADD SWAP1 POP PUSH1 0x20 DUP4 SUB SWAP3 POP PUSH2 0x18D JUMP JUMPDEST PUSH1 0x1 DUP4 PUSH1 0x20 SUB PUSH2 0x100 EXP SUB DUP1 NOT DUP3 MLOAD AND DUP2 DUP5 MLOAD AND DUP1 DUP3 OR DUP6 MSTORE POP POP POP POP POP POP SWAP1 POP ADD SWAP2 POP POP PUSH1 0x0 PUSH1 0x40 MLOAD DUP1 DUP4 SUB DUP2 PUSH1 0x0 DUP8 DUP8 CALL SWAP3 POP POP POP RETURNDATASIZE DUP1 PUSH1 0x0 DUP2 EQ PUSH2 0x213 JUMPI PUSH1 0x40 MLOAD SWAP2 POP PUSH1 0x1F NOT PUSH1 0x3F RETURNDATASIZE ADD AND DUP3 ADD PUSH1 0x40 MSTORE RETURNDATASIZE DUP3 MSTORE RETURNDATASIZE PUSH1 0x0 PUSH1 0x20 DUP5 ADD RETURNDATACOPY PUSH2 0x218 JUMP JUMPDEST PUSH1 0x60 SWAP2 POP JUMPDEST POP POP SWAP1 POP DUP1 SWAP3 POP POP POP SWAP3 SWAP2 POP POP JUMP INVALID LOG2 PUSH5 0x6970667358 0x22 SLT KECCAK256 0xD7 0x22 NUMBER PUSH14 0x351F7E088A6F7796A97D95FCB6BF ADDMOD DUP1 0xF6 0x4D DUP5 JUMPI SELFDESTRUCT 0xF 0x1E MLOAD ORIGIN PUSH28 0xC20964736F6C63430006000033000000000000000000000000000000 "
				},
				"gasEstimates": {
					"creation": {
						"codeDepositCost": "121000",
						"executionCost": "165",
						"totalCost": "121165"
					},
					"external": {
						"enterGate(address,uint256)": "infinite"
					}
				},
				"methodIdentifiers": {
					"enterGate(address,uint256)": "fc241ed5"
				}
			},
			"storageLayout": {
				"storage": [],
				"types": null
			},
			"userdoc": {
				"methods": {}
			}
		}
	}
}