{
	"contracts/IntermediateContract.sol": {
		"IntermediateContract": {
			"abi": [
				{
					"anonymous": false,
					"inputs": [
						{
							"indexed": false,
							"internalType": "string",
							"name": "",
							"type": "string"
						}
					],
					"name": "FunctionCalled",
					"type": "event"
				},
				{
					"stateMutability": "payable",
					"type": "fallback"
				},
				{
					"inputs": [
						{
							"internalType": "address",
							"name": "_addr",
							"type": "address"
						}
					],
					"name": "changeOwner",
					"outputs": [],
					"stateMutability": "nonpayable",
					"type": "function"
				},
				{
					"stateMutability": "payable",
					"type": "receive"
				}
			],
			"devdoc": {
				"kind": "dev",
				"methods": {},
				"version": 1
			},
			"evm": {
				"assembly": "    /* \"contracts/IntermediateContract.sol\":140:617  contract IntermediateContract {... */\n  mstore(0x40, 0x80)\n  callvalue\n  dup1\n  iszero\n  tag_1\n  jumpi\n  0x00\n  dup1\n  revert\ntag_1:\n  pop\n  dataSize(sub_0)\n  dup1\n  dataOffset(sub_0)\n  0x00\n  codecopy\n  0x00\n  return\nstop\n\nsub_0: assembly {\n        /* \"contracts/IntermediateContract.sol\":140:617  contract IntermediateContract {... */\n      mstore(0x40, 0x80)\n      jumpi(tag_1, lt(calldatasize, 0x04))\n      shr(0xe0, calldataload(0x00))\n      dup1\n      0xa6f9dae1\n      eq\n      tag_3\n      jumpi\n      jump(tag_2)\n    tag_1:\n      jumpi(tag_2, calldatasize)\n        /* \"contracts/IntermediateContract.sol\":477:510  FunctionCalled(\"this is receive\") */\n      0xac7c932dfed5a12f8cee69b87b1db28759f9abab0760d37031670980a55a2168\n      mload(0x40)\n      tag_6\n      swap1\n      tag_7\n      jump\t// in\n    tag_6:\n      mload(0x40)\n      dup1\n      swap2\n      sub\n      swap1\n      log1\n        /* \"contracts/IntermediateContract.sol\":140:617  contract IntermediateContract {... */\n      stop\n    tag_2:\n        /* \"contracts/IntermediateContract.sol\":572:606  FunctionCalled(\"this is fallback\") */\n      0xac7c932dfed5a12f8cee69b87b1db28759f9abab0760d37031670980a55a2168\n      mload(0x40)\n      tag_10\n      swap1\n      tag_11\n      jump\t// in\n    tag_10:\n      mload(0x40)\n      dup1\n      swap2\n      sub\n      swap1\n      log1\n        /* \"contracts/IntermediateContract.sol\":140:617  contract IntermediateContract {... */\n      stop\n        /* \"contracts/IntermediateContract.sol\":220:427  function changeOwner(address _addr) public {... */\n    tag_3:\n      callvalue\n      dup1\n      iszero\n      tag_12\n      jumpi\n      0x00\n      dup1\n      revert\n    tag_12:\n      pop\n      tag_13\n      0x04\n      dup1\n      calldatasize\n      sub\n      dup2\n      add\n      swap1\n      tag_14\n      swap2\n      swap1\n      tag_15\n      jump\t// in\n    tag_14:\n      tag_16\n      jump\t// in\n    tag_13:\n      stop\n    tag_16:\n        /* \"contracts/IntermediateContract.sol\":275:318  FunctionCalled(\"this is changeOwner start\") */\n      0xac7c932dfed5a12f8cee69b87b1db28759f9abab0760d37031670980a55a2168\n      mload(0x40)\n      tag_18\n      swap1\n      tag_19\n      jump\t// in\n    tag_18:\n      mload(0x40)\n      dup1\n      swap2\n      sub\n      swap1\n      log1\n        /* \"contracts/IntermediateContract.sol\":336:341  _addr */\n      dup1\n        /* \"contracts/IntermediateContract.sol\":325:354  ITelephone(_addr).changeOwner */\n      0xffffffffffffffffffffffffffffffffffffffff\n      and\n      0xa6f9dae1\n        /* \"contracts/IntermediateContract.sol\":355:365  msg.sender */\n      caller\n        /* \"contracts/IntermediateContract.sol\":325:366  ITelephone(_addr).changeOwner(msg.sender) */\n      mload(0x40)\n      dup3\n      0xffffffff\n      and\n      0xe0\n      shl\n      dup2\n      mstore\n      0x04\n      add\n      tag_20\n      swap2\n      swap1\n      tag_21\n      jump\t// in\n    tag_20:\n      0x00\n      mload(0x40)\n      dup1\n      dup4\n      sub\n      dup2\n      0x00\n      dup8\n      dup1\n      extcodesize\n      iszero\n      dup1\n      iszero\n      tag_22\n      jumpi\n      0x00\n      dup1\n      revert\n    tag_22:\n      pop\n      gas\n      call\n      iszero\n      dup1\n      iszero\n      tag_24\n      jumpi\n      returndatasize\n      0x00\n      dup1\n      returndatacopy\n      revert(0x00, returndatasize)\n    tag_24:\n      pop\n      pop\n      pop\n      pop\n        /* \"contracts/IntermediateContract.sol\":378:419  FunctionCalled(\"this is changeOwner end\") */\n      0xac7c932dfed5a12f8cee69b87b1db28759f9abab0760d37031670980a55a2168\n      mload(0x40)\n      tag_25\n      swap1\n      tag_26\n      jump\t// in\n    tag_25:\n      mload(0x40)\n      dup1\n      swap2\n      sub\n      swap1\n      log1\n        /* \"contracts/IntermediateContract.sol\":220:427  function changeOwner(address _addr) public {... */\n      pop\n      jump\t// out\n        /* \"#utility.yul\":7:176   */\n    tag_27:\n        /* \"#utility.yul\":91:102   */\n      0x00\n        /* \"#utility.yul\":125:131   */\n      dup3\n        /* \"#utility.yul\":120:123   */\n      dup3\n        /* \"#utility.yul\":113:132   */\n      mstore\n        /* \"#utility.yul\":165:169   */\n      0x20\n        /* \"#utility.yul\":160:163   */\n      dup3\n        /* \"#utility.yul\":156:170   */\n      add\n        /* \"#utility.yul\":141:170   */\n      swap1\n      pop\n        /* \"#utility.yul\":7:176   */\n      swap3\n      swap2\n      pop\n      pop\n      jump\t// out\n        /* \"#utility.yul\":182:347   */\n    tag_28:\n        /* \"#utility.yul\":322:339   */\n      0x7468697320697320726563656976650000000000000000000000000000000000\n        /* \"#utility.yul\":318:319   */\n      0x00\n        /* \"#utility.yul\":310:316   */\n      dup3\n        /* \"#utility.yul\":306:320   */\n      add\n        /* \"#utility.yul\":299:340   */\n      mstore\n        /* \"#utility.yul\":182:347   */\n      pop\n      jump\t// out\n        /* \"#utility.yul\":353:719   */\n    tag_29:\n        /* \"#utility.yul\":495:498   */\n      0x00\n        /* \"#utility.yul\":516:583   */\n      tag_48\n        /* \"#utility.yul\":580:582   */\n      0x0f\n        /* \"#utility.yul\":575:578   */\n      dup4\n        /* \"#utility.yul\":516:583   */\n      tag_27\n      jump\t// in\n    tag_48:\n        /* \"#utility.yul\":509:583   */\n      swap2\n      pop\n        /* \"#utility.yul\":592:685   */\n      tag_49\n        /* \"#utility.yul\":681:684   */\n      dup3\n        /* \"#utility.yul\":592:685   */\n      tag_28\n      jump\t// in\n    tag_49:\n        /* \"#utility.yul\":710:712   */\n      0x20\n        /* \"#utility.yul\":705:708   */\n      dup3\n        /* \"#utility.yul\":701:713   */\n      add\n        /* \"#utility.yul\":694:713   */\n      swap1\n      pop\n        /* \"#utility.yul\":353:719   */\n      swap2\n      swap1\n      pop\n      jump\t// out\n        /* \"#utility.yul\":725:1144   */\n    tag_7:\n        /* \"#utility.yul\":891:895   */\n      0x00\n        /* \"#utility.yul\":929:931   */\n      0x20\n        /* \"#utility.yul\":918:927   */\n      dup3\n        /* \"#utility.yul\":914:932   */\n      add\n        /* \"#utility.yul\":906:932   */\n      swap1\n      pop\n        /* \"#utility.yul\":978:987   */\n      dup2\n        /* \"#utility.yul\":972:976   */\n      dup2\n        /* \"#utility.yul\":968:988   */\n      sub\n        /* \"#utility.yul\":964:965   */\n      0x00\n        /* \"#utility.yul\":953:962   */\n      dup4\n        /* \"#utility.yul\":949:966   */\n      add\n        /* \"#utility.yul\":942:989   */\n      mstore\n        /* \"#utility.yul\":1006:1137   */\n      tag_51\n        /* \"#utility.yul\":1132:1136   */\n      dup2\n        /* \"#utility.yul\":1006:1137   */\n      tag_29\n      jump\t// in\n    tag_51:\n        /* \"#utility.yul\":998:1137   */\n      swap1\n      pop\n        /* \"#utility.yul\":725:1144   */\n      swap2\n      swap1\n      pop\n      jump\t// out\n        /* \"#utility.yul\":1150:1316   */\n    tag_30:\n        /* \"#utility.yul\":1290:1308   */\n      0x746869732069732066616c6c6261636b00000000000000000000000000000000\n        /* \"#utility.yul\":1286:1287   */\n      0x00\n        /* \"#utility.yul\":1278:1284   */\n      dup3\n        /* \"#utility.yul\":1274:1288   */\n      add\n        /* \"#utility.yul\":1267:1309   */\n      mstore\n        /* \"#utility.yul\":1150:1316   */\n      pop\n      jump\t// out\n        /* \"#utility.yul\":1322:1688   */\n    tag_31:\n        /* \"#utility.yul\":1464:1467   */\n      0x00\n        /* \"#utility.yul\":1485:1552   */\n      tag_54\n        /* \"#utility.yul\":1549:1551   */\n      0x10\n        /* \"#utility.yul\":1544:1547   */\n      dup4\n        /* \"#utility.yul\":1485:1552   */\n      tag_27\n      jump\t// in\n    tag_54:\n        /* \"#utility.yul\":1478:1552   */\n      swap2\n      pop\n        /* \"#utility.yul\":1561:1654   */\n      tag_55\n        /* \"#utility.yul\":1650:1653   */\n      dup3\n        /* \"#utility.yul\":1561:1654   */\n      tag_30\n      jump\t// in\n    tag_55:\n        /* \"#utility.yul\":1679:1681   */\n      0x20\n        /* \"#utility.yul\":1674:1677   */\n      dup3\n        /* \"#utility.yul\":1670:1682   */\n      add\n        /* \"#utility.yul\":1663:1682   */\n      swap1\n      pop\n        /* \"#utility.yul\":1322:1688   */\n      swap2\n      swap1\n      pop\n      jump\t// out\n        /* \"#utility.yul\":1694:2113   */\n    tag_11:\n        /* \"#utility.yul\":1860:1864   */\n      0x00\n        /* \"#utility.yul\":1898:1900   */\n      0x20\n        /* \"#utility.yul\":1887:1896   */\n      dup3\n        /* \"#utility.yul\":1883:1901   */\n      add\n        /* \"#utility.yul\":1875:1901   */\n      swap1\n      pop\n        /* \"#utility.yul\":1947:1956   */\n      dup2\n        /* \"#utility.yul\":1941:1945   */\n      dup2\n        /* \"#utility.yul\":1937:1957   */\n      sub\n        /* \"#utility.yul\":1933:1934   */\n      0x00\n        /* \"#utility.yul\":1922:1931   */\n      dup4\n        /* \"#utility.yul\":1918:1935   */\n      add\n        /* \"#utility.yul\":1911:1958   */\n      mstore\n        /* \"#utility.yul\":1975:2106   */\n      tag_57\n        /* \"#utility.yul\":2101:2105   */\n      dup2\n        /* \"#utility.yul\":1975:2106   */\n      tag_31\n      jump\t// in\n    tag_57:\n        /* \"#utility.yul\":1967:2106   */\n      swap1\n      pop\n        /* \"#utility.yul\":1694:2113   */\n      swap2\n      swap1\n      pop\n      jump\t// out\n        /* \"#utility.yul\":2200:2317   */\n    tag_33:\n        /* \"#utility.yul\":2309:2310   */\n      0x00\n        /* \"#utility.yul\":2306:2307   */\n      dup1\n        /* \"#utility.yul\":2299:2311   */\n      revert\n        /* \"#utility.yul\":2446:2572   */\n    tag_35:\n        /* \"#utility.yul\":2483:2490   */\n      0x00\n        /* \"#utility.yul\":2523:2565   */\n      0xffffffffffffffffffffffffffffffffffffffff\n        /* \"#utility.yul\":2516:2521   */\n      dup3\n        /* \"#utility.yul\":2512:2566   */\n      and\n        /* \"#utility.yul\":2501:2566   */\n      swap1\n      pop\n        /* \"#utility.yul\":2446:2572   */\n      swap2\n      swap1\n      pop\n      jump\t// out\n        /* \"#utility.yul\":2578:2674   */\n    tag_36:\n        /* \"#utility.yul\":2615:2622   */\n      0x00\n        /* \"#utility.yul\":2644:2668   */\n      tag_63\n        /* \"#utility.yul\":2662:2667   */\n      dup3\n        /* \"#utility.yul\":2644:2668   */\n      tag_35\n      jump\t// in\n    tag_63:\n        /* \"#utility.yul\":2633:2668   */\n      swap1\n      pop\n        /* \"#utility.yul\":2578:2674   */\n      swap2\n      swap1\n      pop\n      jump\t// out\n        /* \"#utility.yul\":2680:2802   */\n    tag_37:\n        /* \"#utility.yul\":2753:2777   */\n      tag_65\n        /* \"#utility.yul\":2771:2776   */\n      dup2\n        /* \"#utility.yul\":2753:2777   */\n      tag_36\n      jump\t// in\n    tag_65:\n        /* \"#utility.yul\":2746:2751   */\n      dup2\n        /* \"#utility.yul\":2743:2778   */\n      eq\n        /* \"#utility.yul\":2733:2796   */\n      tag_66\n      jumpi\n        /* \"#utility.yul\":2792:2793   */\n      0x00\n        /* \"#utility.yul\":2789:2790   */\n      dup1\n        /* \"#utility.yul\":2782:2794   */\n      revert\n        /* \"#utility.yul\":2733:2796   */\n    tag_66:\n        /* \"#utility.yul\":2680:2802   */\n      pop\n      jump\t// out\n        /* \"#utility.yul\":2808:2947   */\n    tag_38:\n        /* \"#utility.yul\":2854:2859   */\n      0x00\n        /* \"#utility.yul\":2892:2898   */\n      dup2\n        /* \"#utility.yul\":2879:2899   */\n      calldataload\n        /* \"#utility.yul\":2870:2899   */\n      swap1\n      pop\n        /* \"#utility.yul\":2908:2941   */\n      tag_68\n        /* \"#utility.yul\":2935:2940   */\n      dup2\n        /* \"#utility.yul\":2908:2941   */\n      tag_37\n      jump\t// in\n    tag_68:\n        /* \"#utility.yul\":2808:2947   */\n      swap3\n      swap2\n      pop\n      pop\n      jump\t// out\n        /* \"#utility.yul\":2953:3282   */\n    tag_15:\n        /* \"#utility.yul\":3012:3018   */\n      0x00\n        /* \"#utility.yul\":3061:3063   */\n      0x20\n        /* \"#utility.yul\":3049:3058   */\n      dup3\n        /* \"#utility.yul\":3040:3047   */\n      dup5\n        /* \"#utility.yul\":3036:3059   */\n      sub\n        /* \"#utility.yul\":3032:3064   */\n      slt\n        /* \"#utility.yul\":3029:3148   */\n      iszero\n      tag_70\n      jumpi\n        /* \"#utility.yul\":3067:3146   */\n      tag_71\n      tag_33\n      jump\t// in\n    tag_71:\n        /* \"#utility.yul\":3029:3148   */\n    tag_70:\n        /* \"#utility.yul\":3187:3188   */\n      0x00\n        /* \"#utility.yul\":3212:3265   */\n      tag_72\n        /* \"#utility.yul\":3257:3264   */\n      dup5\n        /* \"#utility.yul\":3248:3254   */\n      dup3\n        /* \"#utility.yul\":3237:3246   */\n      dup6\n        /* \"#utility.yul\":3233:3255   */\n      add\n        /* \"#utility.yul\":3212:3265   */\n      tag_38\n      jump\t// in\n    tag_72:\n        /* \"#utility.yul\":3202:3265   */\n      swap2\n      pop\n        /* \"#utility.yul\":3158:3275   */\n      pop\n        /* \"#utility.yul\":2953:3282   */\n      swap3\n      swap2\n      pop\n      pop\n      jump\t// out\n        /* \"#utility.yul\":3288:3463   */\n    tag_39:\n        /* \"#utility.yul\":3428:3455   */\n      0x74686973206973206368616e67654f776e657220737461727400000000000000\n        /* \"#utility.yul\":3424:3425   */\n      0x00\n        /* \"#utility.yul\":3416:3422   */\n      dup3\n        /* \"#utility.yul\":3412:3426   */\n      add\n        /* \"#utility.yul\":3405:3456   */\n      mstore\n        /* \"#utility.yul\":3288:3463   */\n      pop\n      jump\t// out\n        /* \"#utility.yul\":3469:3835   */\n    tag_40:\n        /* \"#utility.yul\":3611:3614   */\n      0x00\n        /* \"#utility.yul\":3632:3699   */\n      tag_75\n        /* \"#utility.yul\":3696:3698   */\n      0x19\n        /* \"#utility.yul\":3691:3694   */\n      dup4\n        /* \"#utility.yul\":3632:3699   */\n      tag_27\n      jump\t// in\n    tag_75:\n        /* \"#utility.yul\":3625:3699   */\n      swap2\n      pop\n        /* \"#utility.yul\":3708:3801   */\n      tag_76\n        /* \"#utility.yul\":3797:3800   */\n      dup3\n        /* \"#utility.yul\":3708:3801   */\n      tag_39\n      jump\t// in\n    tag_76:\n        /* \"#utility.yul\":3826:3828   */\n      0x20\n        /* \"#utility.yul\":3821:3824   */\n      dup3\n        /* \"#utility.yul\":3817:3829   */\n      add\n        /* \"#utility.yul\":3810:3829   */\n      swap1\n      pop\n        /* \"#utility.yul\":3469:3835   */\n      swap2\n      swap1\n      pop\n      jump\t// out\n        /* \"#utility.yul\":3841:4260   */\n    tag_19:\n        /* \"#utility.yul\":4007:4011   */\n      0x00\n        /* \"#utility.yul\":4045:4047   */\n      0x20\n        /* \"#utility.yul\":4034:4043   */\n      dup3\n        /* \"#utility.yul\":4030:4048   */\n      add\n        /* \"#utility.yul\":4022:4048   */\n      swap1\n      pop\n        /* \"#utility.yul\":4094:4103   */\n      dup2\n        /* \"#utility.yul\":4088:4092   */\n      dup2\n        /* \"#utility.yul\":4084:4104   */\n      sub\n        /* \"#utility.yul\":4080:4081   */\n      0x00\n        /* \"#utility.yul\":4069:4078   */\n      dup4\n        /* \"#utility.yul\":4065:4082   */\n      add\n        /* \"#utility.yul\":4058:4105   */\n      mstore\n        /* \"#utility.yul\":4122:4253   */\n      tag_78\n        /* \"#utility.yul\":4248:4252   */\n      dup2\n        /* \"#utility.yul\":4122:4253   */\n      tag_40\n      jump\t// in\n    tag_78:\n        /* \"#utility.yul\":4114:4253   */\n      swap1\n      pop\n        /* \"#utility.yul\":3841:4260   */\n      swap2\n      swap1\n      pop\n      jump\t// out\n        /* \"#utility.yul\":4266:4384   */\n    tag_41:\n        /* \"#utility.yul\":4353:4377   */\n      tag_80\n        /* \"#utility.yul\":4371:4376   */\n      dup2\n        /* \"#utility.yul\":4353:4377   */\n      tag_36\n      jump\t// in\n    tag_80:\n        /* \"#utility.yul\":4348:4351   */\n      dup3\n        /* \"#utility.yul\":4341:4378   */\n      mstore\n        /* \"#utility.yul\":4266:4384   */\n      pop\n      pop\n      jump\t// out\n        /* \"#utility.yul\":4390:4612   */\n    tag_21:\n        /* \"#utility.yul\":4483:4487   */\n      0x00\n        /* \"#utility.yul\":4521:4523   */\n      0x20\n        /* \"#utility.yul\":4510:4519   */\n      dup3\n        /* \"#utility.yul\":4506:4524   */\n      add\n        /* \"#utility.yul\":4498:4524   */\n      swap1\n      pop\n        /* \"#utility.yul\":4534:4605   */\n      tag_82\n        /* \"#utility.yul\":4602:4603   */\n      0x00\n        /* \"#utility.yul\":4591:4600   */\n      dup4\n        /* \"#utility.yul\":4587:4604   */\n      add\n        /* \"#utility.yul\":4578:4584   */\n      dup5\n        /* \"#utility.yul\":4534:4605   */\n      tag_41\n      jump\t// in\n    tag_82:\n        /* \"#utility.yul\":4390:4612   */\n      swap3\n      swap2\n      pop\n      pop\n      jump\t// out\n        /* \"#utility.yul\":4618:4791   */\n    tag_42:\n        /* \"#utility.yul\":4758:4783   */\n      0x74686973206973206368616e67654f776e657220656e64000000000000000000\n        /* \"#utility.yul\":4754:4755   */\n      0x00\n        /* \"#utility.yul\":4746:4752   */\n      dup3\n        /* \"#utility.yul\":4742:4756   */\n      add\n        /* \"#utility.yul\":4735:4784   */\n      mstore\n        /* \"#utility.yul\":4618:4791   */\n      pop\n      jump\t// out\n        /* \"#utility.yul\":4797:5163   */\n    tag_43:\n        /* \"#utility.yul\":4939:4942   */\n      0x00\n        /* \"#utility.yul\":4960:5027   */\n      tag_85\n        /* \"#utility.yul\":5024:5026   */\n      0x17\n        /* \"#utility.yul\":5019:5022   */\n      dup4\n        /* \"#utility.yul\":4960:5027   */\n      tag_27\n      jump\t// in\n    tag_85:\n        /* \"#utility.yul\":4953:5027   */\n      swap2\n      pop\n        /* \"#utility.yul\":5036:5129   */\n      tag_86\n        /* \"#utility.yul\":5125:5128   */\n      dup3\n        /* \"#utility.yul\":5036:5129   */\n      tag_42\n      jump\t// in\n    tag_86:\n        /* \"#utility.yul\":5154:5156   */\n      0x20\n        /* \"#utility.yul\":5149:5152   */\n      dup3\n        /* \"#utility.yul\":5145:5157   */\n      add\n        /* \"#utility.yul\":5138:5157   */\n      swap1\n      pop\n        /* \"#utility.yul\":4797:5163   */\n      swap2\n      swap1\n      pop\n      jump\t// out\n        /* \"#utility.yul\":5169:5588   */\n    tag_26:\n        /* \"#utility.yul\":5335:5339   */\n      0x00\n        /* \"#utility.yul\":5373:5375   */\n      0x20\n        /* \"#utility.yul\":5362:5371   */\n      dup3\n        /* \"#utility.yul\":5358:5376   */\n      add\n        /* \"#utility.yul\":5350:5376   */\n      swap1\n      pop\n        /* \"#utility.yul\":5422:5431   */\n      dup2\n        /* \"#utility.yul\":5416:5420   */\n      dup2\n        /* \"#utility.yul\":5412:5432   */\n      sub\n        /* \"#utility.yul\":5408:5409   */\n      0x00\n        /* \"#utility.yul\":5397:5406   */\n      dup4\n        /* \"#utility.yul\":5393:5410   */\n      add\n        /* \"#utility.yul\":5386:5433   */\n      mstore\n        /* \"#utility.yul\":5450:5581   */\n      tag_88\n        /* \"#utility.yul\":5576:5580   */\n      dup2\n        /* \"#utility.yul\":5450:5581   */\n      tag_43\n      jump\t// in\n    tag_88:\n        /* \"#utility.yul\":5442:5581   */\n      swap1\n      pop\n        /* \"#utility.yul\":5169:5588   */\n      swap2\n      swap1\n      pop\n      jump\t// out\n\n    auxdata: 0xa26469706673582212200cc60ab7fb95f5cb771511dc68710f025821ab0f2c5c4ad7fbe73ef216a2479564736f6c634300081a0033\n}\n",
				"bytecode": {
					"linkReferences": {},
					"object": "6080604052348015600e575f80fd5b506104268061001c5f395ff3fe608060405260043610610021575f3560e01c8063a6f9dae1146100945761005d565b3661005d577fac7c932dfed5a12f8cee69b87b1db28759f9abab0760d37031670980a55a2168604051610053906101e9565b60405180910390a1005b7fac7c932dfed5a12f8cee69b87b1db28759f9abab0760d37031670980a55a216860405161008a90610251565b60405180910390a1005b34801561009f575f80fd5b506100ba60048036038101906100b591906102cd565b6100bc565b005b7fac7c932dfed5a12f8cee69b87b1db28759f9abab0760d37031670980a55a21686040516100e990610342565b60405180910390a18073ffffffffffffffffffffffffffffffffffffffff1663a6f9dae1336040518263ffffffff1660e01b815260040161012a919061036f565b5f604051808303815f87803b158015610141575f80fd5b505af1158015610153573d5f803e3d5ffd5b505050507fac7c932dfed5a12f8cee69b87b1db28759f9abab0760d37031670980a55a2168604051610184906103d2565b60405180910390a150565b5f82825260208201905092915050565b7f74686973206973207265636569766500000000000000000000000000000000005f82015250565b5f6101d3600f8361018f565b91506101de8261019f565b602082019050919050565b5f6020820190508181035f830152610200816101c7565b9050919050565b7f746869732069732066616c6c6261636b000000000000000000000000000000005f82015250565b5f61023b60108361018f565b915061024682610207565b602082019050919050565b5f6020820190508181035f8301526102688161022f565b9050919050565b5f80fd5b5f73ffffffffffffffffffffffffffffffffffffffff82169050919050565b5f61029c82610273565b9050919050565b6102ac81610292565b81146102b6575f80fd5b50565b5f813590506102c7816102a3565b92915050565b5f602082840312156102e2576102e161026f565b5b5f6102ef848285016102b9565b91505092915050565b7f74686973206973206368616e67654f776e6572207374617274000000000000005f82015250565b5f61032c60198361018f565b9150610337826102f8565b602082019050919050565b5f6020820190508181035f83015261035981610320565b9050919050565b61036981610292565b82525050565b5f6020820190506103825f830184610360565b92915050565b7f74686973206973206368616e67654f776e657220656e640000000000000000005f82015250565b5f6103bc60178361018f565b91506103c782610388565b602082019050919050565b5f6020820190508181035f8301526103e9816103b0565b905091905056fea26469706673582212200cc60ab7fb95f5cb771511dc68710f025821ab0f2c5c4ad7fbe73ef216a2479564736f6c634300081a0033",
					"opcodes": "PUSH1 0x80 PUSH1 0x40 MSTORE CALLVALUE DUP1 ISZERO PUSH1 0xE JUMPI PUSH0 DUP1 REVERT JUMPDEST POP PUSH2 0x426 DUP1 PUSH2 0x1C PUSH0 CODECOPY PUSH0 RETURN INVALID PUSH1 0x80 PUSH1 0x40 MSTORE PUSH1 0x4 CALLDATASIZE LT PUSH2 0x21 JUMPI PUSH0 CALLDATALOAD PUSH1 0xE0 SHR DUP1 PUSH4 0xA6F9DAE1 EQ PUSH2 0x94 JUMPI PUSH2 0x5D JUMP JUMPDEST CALLDATASIZE PUSH2 0x5D JUMPI PUSH32 0xAC7C932DFED5A12F8CEE69B87B1DB28759F9ABAB0760D37031670980A55A2168 PUSH1 0x40 MLOAD PUSH2 0x53 SWAP1 PUSH2 0x1E9 JUMP JUMPDEST PUSH1 0x40 MLOAD DUP1 SWAP2 SUB SWAP1 LOG1 STOP JUMPDEST PUSH32 0xAC7C932DFED5A12F8CEE69B87B1DB28759F9ABAB0760D37031670980A55A2168 PUSH1 0x40 MLOAD PUSH2 0x8A SWAP1 PUSH2 0x251 JUMP JUMPDEST PUSH1 0x40 MLOAD DUP1 SWAP2 SUB SWAP1 LOG1 STOP JUMPDEST CALLVALUE DUP1 ISZERO PUSH2 0x9F JUMPI PUSH0 DUP1 REVERT JUMPDEST POP PUSH2 0xBA PUSH1 0x4 DUP1 CALLDATASIZE SUB DUP2 ADD SWAP1 PUSH2 0xB5 SWAP2 SWAP1 PUSH2 0x2CD JUMP JUMPDEST PUSH2 0xBC JUMP JUMPDEST STOP JUMPDEST PUSH32 0xAC7C932DFED5A12F8CEE69B87B1DB28759F9ABAB0760D37031670980A55A2168 PUSH1 0x40 MLOAD PUSH2 0xE9 SWAP1 PUSH2 0x342 JUMP JUMPDEST PUSH1 0x40 MLOAD DUP1 SWAP2 SUB SWAP1 LOG1 DUP1 PUSH20 0xFFFFFFFFFFFFFFFFFFFFFFFFFFFFFFFFFFFFFFFF AND PUSH4 0xA6F9DAE1 CALLER PUSH1 0x40 MLOAD DUP3 PUSH4 0xFFFFFFFF AND PUSH1 0xE0 SHL DUP2 MSTORE PUSH1 0x4 ADD PUSH2 0x12A SWAP2 SWAP1 PUSH2 0x36F JUMP JUMPDEST PUSH0 PUSH1 0x40 MLOAD DUP1 DUP4 SUB DUP2 PUSH0 DUP8 DUP1 EXTCODESIZE ISZERO DUP1 ISZERO PUSH2 0x141 JUMPI PUSH0 DUP1 REVERT JUMPDEST POP GAS CALL ISZERO DUP1 ISZERO PUSH2 0x153 JUMPI RETURNDATASIZE PUSH0 DUP1 RETURNDATACOPY RETURNDATASIZE PUSH0 REVERT JUMPDEST POP POP POP POP PUSH32 0xAC7C932DFED5A12F8CEE69B87B1DB28759F9ABAB0760D37031670980A55A2168 PUSH1 0x40 MLOAD PUSH2 0x184 SWAP1 PUSH2 0x3D2 JUMP JUMPDEST PUSH1 0x40 MLOAD DUP1 SWAP2 SUB SWAP1 LOG1 POP JUMP JUMPDEST PUSH0 DUP3 DUP3 MSTORE PUSH1 0x20 DUP3 ADD SWAP1 POP SWAP3 SWAP2 POP POP JUMP JUMPDEST PUSH32 0x7468697320697320726563656976650000000000000000000000000000000000 PUSH0 DUP3 ADD MSTORE POP JUMP JUMPDEST PUSH0 PUSH2 0x1D3 PUSH1 0xF DUP4 PUSH2 0x18F JUMP JUMPDEST SWAP2 POP PUSH2 0x1DE DUP3 PUSH2 0x19F JUMP JUMPDEST PUSH1 0x20 DUP3 ADD SWAP1 POP SWAP2 SWAP1 POP JUMP JUMPDEST PUSH0 PUSH1 0x20 DUP3 ADD SWAP1 POP DUP2 DUP2 SUB PUSH0 DUP4 ADD MSTORE PUSH2 0x200 DUP2 PUSH2 0x1C7 JUMP JUMPDEST SWAP1 POP SWAP2 SWAP1 POP JUMP JUMPDEST PUSH32 0x746869732069732066616C6C6261636B00000000000000000000000000000000 PUSH0 DUP3 ADD MSTORE POP JUMP JUMPDEST PUSH0 PUSH2 0x23B PUSH1 0x10 DUP4 PUSH2 0x18F JUMP JUMPDEST SWAP2 POP PUSH2 0x246 DUP3 PUSH2 0x207 JUMP JUMPDEST PUSH1 0x20 DUP3 ADD SWAP1 POP SWAP2 SWAP1 POP JUMP JUMPDEST PUSH0 PUSH1 0x20 DUP3 ADD SWAP1 POP DUP2 DUP2 SUB PUSH0 DUP4 ADD MSTORE PUSH2 0x268 DUP2 PUSH2 0x22F JUMP JUMPDEST SWAP1 POP SWAP2 SWAP1 POP JUMP JUMPDEST PUSH0 DUP1 REVERT JUMPDEST PUSH0 PUSH20 0xFFFFFFFFFFFFFFFFFFFFFFFFFFFFFFFFFFFFFFFF DUP3 AND SWAP1 POP SWAP2 SWAP1 POP JUMP JUMPDEST PUSH0 PUSH2 0x29C DUP3 PUSH2 0x273 JUMP JUMPDEST SWAP1 POP SWAP2 SWAP1 POP JUMP JUMPDEST PUSH2 0x2AC DUP2 PUSH2 0x292 JUMP JUMPDEST DUP2 EQ PUSH2 0x2B6 JUMPI PUSH0 DUP1 REVERT JUMPDEST POP JUMP JUMPDEST PUSH0 DUP2 CALLDATALOAD SWAP1 POP PUSH2 0x2C7 DUP2 PUSH2 0x2A3 JUMP JUMPDEST SWAP3 SWAP2 POP POP JUMP JUMPDEST PUSH0 PUSH1 0x20 DUP3 DUP5 SUB SLT ISZERO PUSH2 0x2E2 JUMPI PUSH2 0x2E1 PUSH2 0x26F JUMP JUMPDEST JUMPDEST PUSH0 PUSH2 0x2EF DUP5 DUP3 DUP6 ADD PUSH2 0x2B9 JUMP JUMPDEST SWAP2 POP POP SWAP3 SWAP2 POP POP JUMP JUMPDEST PUSH32 0x74686973206973206368616E67654F776E657220737461727400000000000000 PUSH0 DUP3 ADD MSTORE POP JUMP JUMPDEST PUSH0 PUSH2 0x32C PUSH1 0x19 DUP4 PUSH2 0x18F JUMP JUMPDEST SWAP2 POP PUSH2 0x337 DUP3 PUSH2 0x2F8 JUMP JUMPDEST PUSH1 0x20 DUP3 ADD SWAP1 POP SWAP2 SWAP1 POP JUMP JUMPDEST PUSH0 PUSH1 0x20 DUP3 ADD SWAP1 POP DUP2 DUP2 SUB PUSH0 DUP4 ADD MSTORE PUSH2 0x359 DUP2 PUSH2 0x320 JUMP JUMPDEST SWAP1 POP SWAP2 SWAP1 POP JUMP JUMPDEST PUSH2 0x369 DUP2 PUSH2 0x292 JUMP JUMPDEST DUP3 MSTORE POP POP JUMP JUMPDEST PUSH0 PUSH1 0x20 DUP3 ADD SWAP1 POP PUSH2 0x382 PUSH0 DUP4 ADD DUP5 PUSH2 0x360 JUMP JUMPDEST SWAP3 SWAP2 POP POP JUMP JUMPDEST PUSH32 0x74686973206973206368616E67654F776E657220656E64000000000000000000 PUSH0 DUP3 ADD MSTORE POP JUMP JUMPDEST PUSH0 PUSH2 0x3BC PUSH1 0x17 DUP4 PUSH2 0x18F JUMP JUMPDEST SWAP2 POP PUSH2 0x3C7 DUP3 PUSH2 0x388 JUMP JUMPDEST PUSH1 0x20 DUP3 ADD SWAP1 POP SWAP2 SWAP1 POP JUMP JUMPDEST PUSH0 PUSH1 0x20 DUP3 ADD SWAP1 POP DUP2 DUP2 SUB PUSH0 DUP4 ADD MSTORE PUSH2 0x3E9 DUP2 PUSH2 0x3B0 JUMP JUMPDEST SWAP1 POP SWAP2 SWAP1 POP JUMP INVALID LOG2 PUSH5 0x6970667358 0x22 SLT KECCAK256 0xC 0xC6 EXP 0xB7 0xFB SWAP6 CREATE2 0xCB PUSH24 0x1511DC68710F025821AB0F2C5C4AD7FBE73EF216A2479564 PUSH20 0x6F6C634300081A00330000000000000000000000 "
				},
				"gasEstimates": {
					"creation": {
						"codeDepositCost": "212400",
						"executionCost": "255",
						"totalCost": "212655"
					},
					"external": {
						"": "1881",
						"changeOwner(address)": "infinite"
					}
				},
				"methodIdentifiers": {
					"changeOwner(address)": "a6f9dae1"
				}
			},
			"storageLayout": {
				"storage": [],
				"types": null
			},
			"userdoc": {
				"kind": "user",
				"methods": {},
				"version": 1
			}
		}
	}
}