{
	"contracts/Recovery.sol": {
		"Recovery": {
			"abi": [
				{
					"inputs": [
						{
							"internalType": "string",
							"name": "_name",
							"type": "string"
						},
						{
							"internalType": "uint256",
							"name": "_initialSupply",
							"type": "uint256"
						}
					],
					"name": "generateToken",
					"outputs": [],
					"stateMutability": "nonpayable",
					"type": "function"
				}
			],
			"devdoc": {
				"kind": "dev",
				"methods": {},
				"version": 1
			},
			"evm": {
				"assembly": "    /* \"contracts/Recovery.sol\":60:255  contract Recovery {\r... */\n  mstore(0x40, 0x80)\n  callvalue\n  dup1\n  iszero\n  tag_1\n  jumpi\n  0x00\n  dup1\n  revert\ntag_1:\n  pop\n  dataSize(sub_0)\n  dup1\n  dataOffset(sub_0)\n  0x00\n  codecopy\n  0x00\n  return\nstop\n\nsub_0: assembly {\n        /* \"contracts/Recovery.sol\":60:255  contract Recovery {\r... */\n      mstore(0x40, 0x80)\n      callvalue\n      dup1\n      iszero\n      tag_1\n      jumpi\n      0x00\n      dup1\n      revert\n    tag_1:\n      pop\n      jumpi(tag_2, lt(calldatasize, 0x04))\n      shr(0xe0, calldataload(0x00))\n      dup1\n      0x3894e516\n      eq\n      tag_3\n      jumpi\n    tag_2:\n      0x00\n      dup1\n      revert\n        /* \"contracts/Recovery.sol\":108:252  function generateToken(string memory _name, uint256 _initialSupply) public {\r... */\n    tag_3:\n      tag_4\n      0x04\n      dup1\n      calldatasize\n      sub\n      dup2\n      add\n      swap1\n      tag_5\n      swap2\n      swap1\n      tag_6\n      jump\t// in\n    tag_5:\n      tag_7\n      jump\t// in\n    tag_4:\n      stop\n    tag_7:\n        /* \"contracts/Recovery.sol\":210:215  _name */\n      dup2\n        /* \"contracts/Recovery.sol\":217:227  msg.sender */\n      caller\n        /* \"contracts/Recovery.sol\":229:243  _initialSupply */\n      dup3\n        /* \"contracts/Recovery.sol\":194:244  new SimpleToken(_name, msg.sender, _initialSupply) */\n      mload(0x40)\n      tag_9\n      swap1\n      tag_10\n      jump\t// in\n    tag_9:\n      tag_11\n      swap4\n      swap3\n      swap2\n      swap1\n      tag_12\n      jump\t// in\n    tag_11:\n      mload(0x40)\n      dup1\n      swap2\n      sub\n      swap1\n      0x00\n      create\n      dup1\n      iszero\n      dup1\n      iszero\n      tag_13\n      jumpi\n      returndatasize\n      0x00\n      dup1\n      returndatacopy\n      revert(0x00, returndatasize)\n    tag_13:\n      pop\n      pop\n        /* \"contracts/Recovery.sol\":108:252  function generateToken(string memory _name, uint256 _initialSupply) public {\r... */\n      pop\n      pop\n      jump\t// out\n    tag_10:\n      dataSize(sub_0)\n      dup1\n      dataOffset(sub_0)\n      dup4\n      codecopy\n      add\n      swap1\n      jump\t// out\n        /* \"#utility.yul\":7:351   */\n    tag_15:\n      0x00\n        /* \"#utility.yul\":110:175   */\n      tag_17\n        /* \"#utility.yul\":125:174   */\n      tag_18\n        /* \"#utility.yul\":167:173   */\n      dup5\n        /* \"#utility.yul\":125:174   */\n      tag_19\n      jump\t// in\n    tag_18:\n        /* \"#utility.yul\":110:175   */\n      tag_20\n      jump\t// in\n    tag_17:\n        /* \"#utility.yul\":101:175   */\n      swap1\n      pop\n        /* \"#utility.yul\":198:204   */\n      dup3\n        /* \"#utility.yul\":191:196   */\n      dup2\n        /* \"#utility.yul\":184:205   */\n      mstore\n        /* \"#utility.yul\":236:240   */\n      0x20\n        /* \"#utility.yul\":229:234   */\n      dup2\n        /* \"#utility.yul\":225:241   */\n      add\n        /* \"#utility.yul\":274:277   */\n      dup5\n        /* \"#utility.yul\":265:271   */\n      dup5\n        /* \"#utility.yul\":260:263   */\n      dup5\n        /* \"#utility.yul\":256:272   */\n      add\n        /* \"#utility.yul\":253:278   */\n      gt\n        /* \"#utility.yul\":250:252   */\n      iszero\n      tag_21\n      jumpi\n        /* \"#utility.yul\":291:292   */\n      0x00\n        /* \"#utility.yul\":288:289   */\n      dup1\n        /* \"#utility.yul\":281:293   */\n      revert\n        /* \"#utility.yul\":250:252   */\n    tag_21:\n        /* \"#utility.yul\":304:345   */\n      tag_22\n        /* \"#utility.yul\":338:344   */\n      dup5\n        /* \"#utility.yul\":333:336   */\n      dup3\n        /* \"#utility.yul\":328:331   */\n      dup6\n        /* \"#utility.yul\":304:345   */\n      tag_23\n      jump\t// in\n    tag_22:\n        /* \"#utility.yul\":91:351   */\n      pop\n      swap4\n      swap3\n      pop\n      pop\n      pop\n      jump\t// out\n        /* \"#utility.yul\":371:644   */\n    tag_24:\n      0x00\n        /* \"#utility.yul\":476:479   */\n      dup3\n        /* \"#utility.yul\":469:473   */\n      0x1f\n        /* \"#utility.yul\":461:467   */\n      dup4\n        /* \"#utility.yul\":457:474   */\n      add\n        /* \"#utility.yul\":453:480   */\n      slt\n        /* \"#utility.yul\":443:445   */\n      tag_26\n      jumpi\n        /* \"#utility.yul\":494:495   */\n      0x00\n        /* \"#utility.yul\":491:492   */\n      dup1\n        /* \"#utility.yul\":484:496   */\n      revert\n        /* \"#utility.yul\":443:445   */\n    tag_26:\n        /* \"#utility.yul\":534:540   */\n      dup2\n        /* \"#utility.yul\":521:541   */\n      calldataload\n        /* \"#utility.yul\":559:638   */\n      tag_27\n        /* \"#utility.yul\":634:637   */\n      dup5\n        /* \"#utility.yul\":626:632   */\n      dup3\n        /* \"#utility.yul\":619:623   */\n      0x20\n        /* \"#utility.yul\":611:617   */\n      dup7\n        /* \"#utility.yul\":607:624   */\n      add\n        /* \"#utility.yul\":559:638   */\n      tag_15\n      jump\t// in\n    tag_27:\n        /* \"#utility.yul\":550:638   */\n      swap2\n      pop\n        /* \"#utility.yul\":433:644   */\n      pop\n      swap3\n      swap2\n      pop\n      pop\n      jump\t// out\n        /* \"#utility.yul\":650:789   */\n    tag_28:\n      0x00\n        /* \"#utility.yul\":734:740   */\n      dup2\n        /* \"#utility.yul\":721:741   */\n      calldataload\n        /* \"#utility.yul\":712:741   */\n      swap1\n      pop\n        /* \"#utility.yul\":750:783   */\n      tag_30\n        /* \"#utility.yul\":777:782   */\n      dup2\n        /* \"#utility.yul\":750:783   */\n      tag_31\n      jump\t// in\n    tag_30:\n        /* \"#utility.yul\":702:789   */\n      swap3\n      swap2\n      pop\n      pop\n      jump\t// out\n        /* \"#utility.yul\":795:1315   */\n    tag_6:\n      0x00\n      dup1\n        /* \"#utility.yul\":930:932   */\n      0x40\n        /* \"#utility.yul\":918:927   */\n      dup4\n        /* \"#utility.yul\":909:916   */\n      dup6\n        /* \"#utility.yul\":905:928   */\n      sub\n        /* \"#utility.yul\":901:933   */\n      slt\n        /* \"#utility.yul\":898:900   */\n      iszero\n      tag_33\n      jumpi\n        /* \"#utility.yul\":946:947   */\n      0x00\n        /* \"#utility.yul\":943:944   */\n      dup1\n        /* \"#utility.yul\":936:948   */\n      revert\n        /* \"#utility.yul\":898:900   */\n    tag_33:\n        /* \"#utility.yul\":1017:1018   */\n      0x00\n        /* \"#utility.yul\":1006:1015   */\n      dup4\n        /* \"#utility.yul\":1002:1019   */\n      add\n        /* \"#utility.yul\":989:1020   */\n      calldataload\n        /* \"#utility.yul\":1047:1065   */\n      0xffffffffffffffff\n        /* \"#utility.yul\":1039:1045   */\n      dup2\n        /* \"#utility.yul\":1036:1066   */\n      gt\n        /* \"#utility.yul\":1033:1035   */\n      iszero\n      tag_34\n      jumpi\n        /* \"#utility.yul\":1079:1080   */\n      0x00\n        /* \"#utility.yul\":1076:1077   */\n      dup1\n        /* \"#utility.yul\":1069:1081   */\n      revert\n        /* \"#utility.yul\":1033:1035   */\n    tag_34:\n        /* \"#utility.yul\":1107:1170   */\n      tag_35\n        /* \"#utility.yul\":1162:1169   */\n      dup6\n        /* \"#utility.yul\":1153:1159   */\n      dup3\n        /* \"#utility.yul\":1142:1151   */\n      dup7\n        /* \"#utility.yul\":1138:1160   */\n      add\n        /* \"#utility.yul\":1107:1170   */\n      tag_24\n      jump\t// in\n    tag_35:\n        /* \"#utility.yul\":1097:1170   */\n      swap3\n      pop\n        /* \"#utility.yul\":960:1180   */\n      pop\n        /* \"#utility.yul\":1219:1221   */\n      0x20\n        /* \"#utility.yul\":1245:1298   */\n      tag_36\n        /* \"#utility.yul\":1290:1297   */\n      dup6\n        /* \"#utility.yul\":1281:1287   */\n      dup3\n        /* \"#utility.yul\":1270:1279   */\n      dup7\n        /* \"#utility.yul\":1266:1288   */\n      add\n        /* \"#utility.yul\":1245:1298   */\n      tag_28\n      jump\t// in\n    tag_36:\n        /* \"#utility.yul\":1235:1298   */\n      swap2\n      pop\n        /* \"#utility.yul\":1190:1308   */\n      pop\n        /* \"#utility.yul\":888:1315   */\n      swap3\n      pop\n      swap3\n      swap1\n      pop\n      jump\t// out\n        /* \"#utility.yul\":1321:1439   */\n    tag_37:\n        /* \"#utility.yul\":1408:1432   */\n      tag_39\n        /* \"#utility.yul\":1426:1431   */\n      dup2\n        /* \"#utility.yul\":1408:1432   */\n      tag_40\n      jump\t// in\n    tag_39:\n        /* \"#utility.yul\":1403:1406   */\n      dup3\n        /* \"#utility.yul\":1396:1433   */\n      mstore\n        /* \"#utility.yul\":1386:1439   */\n      pop\n      pop\n      jump\t// out\n        /* \"#utility.yul\":1445:1809   */\n    tag_41:\n      0x00\n        /* \"#utility.yul\":1561:1600   */\n      tag_43\n        /* \"#utility.yul\":1594:1599   */\n      dup3\n        /* \"#utility.yul\":1561:1600   */\n      tag_44\n      jump\t// in\n    tag_43:\n        /* \"#utility.yul\":1616:1687   */\n      tag_45\n        /* \"#utility.yul\":1680:1686   */\n      dup2\n        /* \"#utility.yul\":1675:1678   */\n      dup6\n        /* \"#utility.yul\":1616:1687   */\n      tag_46\n      jump\t// in\n    tag_45:\n        /* \"#utility.yul\":1609:1687   */\n      swap4\n      pop\n        /* \"#utility.yul\":1696:1748   */\n      tag_47\n        /* \"#utility.yul\":1741:1747   */\n      dup2\n        /* \"#utility.yul\":1736:1739   */\n      dup6\n        /* \"#utility.yul\":1729:1733   */\n      0x20\n        /* \"#utility.yul\":1722:1727   */\n      dup7\n        /* \"#utility.yul\":1718:1734   */\n      add\n        /* \"#utility.yul\":1696:1748   */\n      tag_48\n      jump\t// in\n    tag_47:\n        /* \"#utility.yul\":1773:1802   */\n      tag_49\n        /* \"#utility.yul\":1795:1801   */\n      dup2\n        /* \"#utility.yul\":1773:1802   */\n      tag_50\n      jump\t// in\n    tag_49:\n        /* \"#utility.yul\":1768:1771   */\n      dup5\n        /* \"#utility.yul\":1764:1803   */\n      add\n        /* \"#utility.yul\":1757:1803   */\n      swap2\n      pop\n        /* \"#utility.yul\":1537:1809   */\n      pop\n      swap3\n      swap2\n      pop\n      pop\n      jump\t// out\n        /* \"#utility.yul\":1815:1933   */\n    tag_51:\n        /* \"#utility.yul\":1902:1926   */\n      tag_53\n        /* \"#utility.yul\":1920:1925   */\n      dup2\n        /* \"#utility.yul\":1902:1926   */\n      tag_54\n      jump\t// in\n    tag_53:\n        /* \"#utility.yul\":1897:1900   */\n      dup3\n        /* \"#utility.yul\":1890:1927   */\n      mstore\n        /* \"#utility.yul\":1880:1933   */\n      pop\n      pop\n      jump\t// out\n        /* \"#utility.yul\":1939:2472   */\n    tag_12:\n      0x00\n        /* \"#utility.yul\":2146:2148   */\n      0x60\n        /* \"#utility.yul\":2135:2144   */\n      dup3\n        /* \"#utility.yul\":2131:2149   */\n      add\n        /* \"#utility.yul\":2123:2149   */\n      swap1\n      pop\n        /* \"#utility.yul\":2195:2204   */\n      dup2\n        /* \"#utility.yul\":2189:2193   */\n      dup2\n        /* \"#utility.yul\":2185:2205   */\n      sub\n        /* \"#utility.yul\":2181:2182   */\n      0x00\n        /* \"#utility.yul\":2170:2179   */\n      dup4\n        /* \"#utility.yul\":2166:2183   */\n      add\n        /* \"#utility.yul\":2159:2206   */\n      mstore\n        /* \"#utility.yul\":2223:2301   */\n      tag_56\n        /* \"#utility.yul\":2296:2300   */\n      dup2\n        /* \"#utility.yul\":2287:2293   */\n      dup7\n        /* \"#utility.yul\":2223:2301   */\n      tag_41\n      jump\t// in\n    tag_56:\n        /* \"#utility.yul\":2215:2301   */\n      swap1\n      pop\n        /* \"#utility.yul\":2311:2383   */\n      tag_57\n        /* \"#utility.yul\":2379:2381   */\n      0x20\n        /* \"#utility.yul\":2368:2377   */\n      dup4\n        /* \"#utility.yul\":2364:2382   */\n      add\n        /* \"#utility.yul\":2355:2361   */\n      dup6\n        /* \"#utility.yul\":2311:2383   */\n      tag_37\n      jump\t// in\n    tag_57:\n        /* \"#utility.yul\":2393:2465   */\n      tag_58\n        /* \"#utility.yul\":2461:2463   */\n      0x40\n        /* \"#utility.yul\":2450:2459   */\n      dup4\n        /* \"#utility.yul\":2446:2464   */\n      add\n        /* \"#utility.yul\":2437:2443   */\n      dup5\n        /* \"#utility.yul\":2393:2465   */\n      tag_51\n      jump\t// in\n    tag_58:\n        /* \"#utility.yul\":2113:2472   */\n      swap5\n      swap4\n      pop\n      pop\n      pop\n      pop\n      jump\t// out\n        /* \"#utility.yul\":2478:2761   */\n    tag_20:\n      0x00\n        /* \"#utility.yul\":2544:2546   */\n      0x40\n        /* \"#utility.yul\":2538:2547   */\n      mload\n        /* \"#utility.yul\":2528:2547   */\n      swap1\n      pop\n        /* \"#utility.yul\":2586:2590   */\n      dup2\n        /* \"#utility.yul\":2578:2584   */\n      dup2\n        /* \"#utility.yul\":2574:2591   */\n      add\n        /* \"#utility.yul\":2693:2699   */\n      dup2\n        /* \"#utility.yul\":2681:2691   */\n      dup2\n        /* \"#utility.yul\":2678:2700   */\n      lt\n        /* \"#utility.yul\":2657:2675   */\n      0xffffffffffffffff\n        /* \"#utility.yul\":2645:2655   */\n      dup3\n        /* \"#utility.yul\":2642:2676   */\n      gt\n        /* \"#utility.yul\":2639:2701   */\n      or\n        /* \"#utility.yul\":2636:2638   */\n      iszero\n      tag_60\n      jumpi\n        /* \"#utility.yul\":2704:2722   */\n      tag_61\n      tag_62\n      jump\t// in\n    tag_61:\n        /* \"#utility.yul\":2636:2638   */\n    tag_60:\n        /* \"#utility.yul\":2744:2754   */\n      dup1\n        /* \"#utility.yul\":2740:2742   */\n      0x40\n        /* \"#utility.yul\":2733:2755   */\n      mstore\n        /* \"#utility.yul\":2518:2761   */\n      pop\n      swap2\n      swap1\n      pop\n      jump\t// out\n        /* \"#utility.yul\":2767:3099   */\n    tag_19:\n      0x00\n        /* \"#utility.yul\":2919:2937   */\n      0xffffffffffffffff\n        /* \"#utility.yul\":2911:2917   */\n      dup3\n        /* \"#utility.yul\":2908:2938   */\n      gt\n        /* \"#utility.yul\":2905:2907   */\n      iszero\n      tag_64\n      jumpi\n        /* \"#utility.yul\":2941:2959   */\n      tag_65\n      tag_62\n      jump\t// in\n    tag_65:\n        /* \"#utility.yul\":2905:2907   */\n    tag_64:\n        /* \"#utility.yul\":3026:3030   */\n      0x1f\n        /* \"#utility.yul\":3022:3031   */\n      not\n        /* \"#utility.yul\":3015:3019   */\n      0x1f\n        /* \"#utility.yul\":3007:3013   */\n      dup4\n        /* \"#utility.yul\":3003:3020   */\n      add\n        /* \"#utility.yul\":2999:3032   */\n      and\n        /* \"#utility.yul\":2991:3032   */\n      swap1\n      pop\n        /* \"#utility.yul\":3087:3091   */\n      0x20\n        /* \"#utility.yul\":3081:3085   */\n      dup2\n        /* \"#utility.yul\":3077:3092   */\n      add\n        /* \"#utility.yul\":3069:3092   */\n      swap1\n      pop\n        /* \"#utility.yul\":2834:3099   */\n      swap2\n      swap1\n      pop\n      jump\t// out\n        /* \"#utility.yul\":3105:3204   */\n    tag_44:\n      0x00\n        /* \"#utility.yul\":3191:3196   */\n      dup2\n        /* \"#utility.yul\":3185:3197   */\n      mload\n        /* \"#utility.yul\":3175:3197   */\n      swap1\n      pop\n        /* \"#utility.yul\":3164:3204   */\n      swap2\n      swap1\n      pop\n      jump\t// out\n        /* \"#utility.yul\":3210:3379   */\n    tag_46:\n      0x00\n        /* \"#utility.yul\":3328:3334   */\n      dup3\n        /* \"#utility.yul\":3323:3326   */\n      dup3\n        /* \"#utility.yul\":3316:3335   */\n      mstore\n        /* \"#utility.yul\":3368:3372   */\n      0x20\n        /* \"#utility.yul\":3363:3366   */\n      dup3\n        /* \"#utility.yul\":3359:3373   */\n      add\n        /* \"#utility.yul\":3344:3373   */\n      swap1\n      pop\n        /* \"#utility.yul\":3306:3379   */\n      swap3\n      swap2\n      pop\n      pop\n      jump\t// out\n        /* \"#utility.yul\":3385:3481   */\n    tag_40:\n      0x00\n        /* \"#utility.yul\":3451:3475   */\n      tag_69\n        /* \"#utility.yul\":3469:3474   */\n      dup3\n        /* \"#utility.yul\":3451:3475   */\n      tag_70\n      jump\t// in\n    tag_69:\n        /* \"#utility.yul\":3440:3475   */\n      swap1\n      pop\n        /* \"#utility.yul\":3430:3481   */\n      swap2\n      swap1\n      pop\n      jump\t// out\n        /* \"#utility.yul\":3487:3613   */\n    tag_70:\n      0x00\n        /* \"#utility.yul\":3564:3606   */\n      0xffffffffffffffffffffffffffffffffffffffff\n        /* \"#utility.yul\":3557:3562   */\n      dup3\n        /* \"#utility.yul\":3553:3607   */\n      and\n        /* \"#utility.yul\":3542:3607   */\n      swap1\n      pop\n        /* \"#utility.yul\":3532:3613   */\n      swap2\n      swap1\n      pop\n      jump\t// out\n        /* \"#utility.yul\":3619:3696   */\n    tag_54:\n      0x00\n        /* \"#utility.yul\":3685:3690   */\n      dup2\n        /* \"#utility.yul\":3674:3690   */\n      swap1\n      pop\n        /* \"#utility.yul\":3664:3696   */\n      swap2\n      swap1\n      pop\n      jump\t// out\n        /* \"#utility.yul\":3702:3856   */\n    tag_23:\n        /* \"#utility.yul\":3786:3792   */\n      dup3\n        /* \"#utility.yul\":3781:3784   */\n      dup2\n        /* \"#utility.yul\":3776:3779   */\n      dup4\n        /* \"#utility.yul\":3763:3793   */\n      calldatacopy\n        /* \"#utility.yul\":3848:3849   */\n      0x00\n        /* \"#utility.yul\":3839:3845   */\n      dup4\n        /* \"#utility.yul\":3834:3837   */\n      dup4\n        /* \"#utility.yul\":3830:3846   */\n      add\n        /* \"#utility.yul\":3823:3850   */\n      mstore\n        /* \"#utility.yul\":3753:3856   */\n      pop\n      pop\n      pop\n      jump\t// out\n        /* \"#utility.yul\":3862:4169   */\n    tag_48:\n        /* \"#utility.yul\":3930:3931   */\n      0x00\n        /* \"#utility.yul\":3940:4053   */\n    tag_75:\n        /* \"#utility.yul\":3954:3960   */\n      dup4\n        /* \"#utility.yul\":3951:3952   */\n      dup2\n        /* \"#utility.yul\":3948:3961   */\n      lt\n        /* \"#utility.yul\":3940:4053   */\n      iszero\n      tag_77\n      jumpi\n        /* \"#utility.yul\":4039:4040   */\n      dup1\n        /* \"#utility.yul\":4034:4037   */\n      dup3\n        /* \"#utility.yul\":4030:4041   */\n      add\n        /* \"#utility.yul\":4024:4042   */\n      mload\n        /* \"#utility.yul\":4020:4021   */\n      dup2\n        /* \"#utility.yul\":4015:4018   */\n      dup5\n        /* \"#utility.yul\":4011:4022   */\n      add\n        /* \"#utility.yul\":4004:4043   */\n      mstore\n        /* \"#utility.yul\":3976:3978   */\n      0x20\n        /* \"#utility.yul\":3973:3974   */\n      dup2\n        /* \"#utility.yul\":3969:3979   */\n      add\n        /* \"#utility.yul\":3964:3979   */\n      swap1\n      pop\n        /* \"#utility.yul\":3940:4053   */\n      jump(tag_75)\n    tag_77:\n        /* \"#utility.yul\":4071:4077   */\n      dup4\n        /* \"#utility.yul\":4068:4069   */\n      dup2\n        /* \"#utility.yul\":4065:4078   */\n      gt\n        /* \"#utility.yul\":4062:4064   */\n      iszero\n      tag_78\n      jumpi\n        /* \"#utility.yul\":4151:4152   */\n      0x00\n        /* \"#utility.yul\":4142:4148   */\n      dup5\n        /* \"#utility.yul\":4137:4140   */\n      dup5\n        /* \"#utility.yul\":4133:4149   */\n      add\n        /* \"#utility.yul\":4126:4153   */\n      mstore\n        /* \"#utility.yul\":4062:4064   */\n    tag_78:\n        /* \"#utility.yul\":3911:4169   */\n      pop\n      pop\n      pop\n      pop\n      jump\t// out\n        /* \"#utility.yul\":4175:4355   */\n    tag_62:\n        /* \"#utility.yul\":4223:4300   */\n      0x4e487b7100000000000000000000000000000000000000000000000000000000\n        /* \"#utility.yul\":4220:4221   */\n      0x00\n        /* \"#utility.yul\":4213:4301   */\n      mstore\n        /* \"#utility.yul\":4320:4324   */\n      0x41\n        /* \"#utility.yul\":4317:4318   */\n      0x04\n        /* \"#utility.yul\":4310:4325   */\n      mstore\n        /* \"#utility.yul\":4344:4348   */\n      0x24\n        /* \"#utility.yul\":4341:4342   */\n      0x00\n        /* \"#utility.yul\":4334:4349   */\n      revert\n        /* \"#utility.yul\":4361:4463   */\n    tag_50:\n      0x00\n        /* \"#utility.yul\":4453:4455   */\n      0x1f\n        /* \"#utility.yul\":4449:4456   */\n      not\n        /* \"#utility.yul\":4444:4446   */\n      0x1f\n        /* \"#utility.yul\":4437:4442   */\n      dup4\n        /* \"#utility.yul\":4433:4447   */\n      add\n        /* \"#utility.yul\":4429:4457   */\n      and\n        /* \"#utility.yul\":4419:4457   */\n      swap1\n      pop\n        /* \"#utility.yul\":4409:4463   */\n      swap2\n      swap1\n      pop\n      jump\t// out\n        /* \"#utility.yul\":4469:4591   */\n    tag_31:\n        /* \"#utility.yul\":4542:4566   */\n      tag_82\n        /* \"#utility.yul\":4560:4565   */\n      dup2\n        /* \"#utility.yul\":4542:4566   */\n      tag_54\n      jump\t// in\n    tag_82:\n        /* \"#utility.yul\":4535:4540   */\n      dup2\n        /* \"#utility.yul\":4532:4567   */\n      eq\n        /* \"#utility.yul\":4522:4524   */\n      tag_83\n      jumpi\n        /* \"#utility.yul\":4581:4582   */\n      0x00\n        /* \"#utility.yul\":4578:4579   */\n      dup1\n        /* \"#utility.yul\":4571:4583   */\n      revert\n        /* \"#utility.yul\":4522:4524   */\n    tag_83:\n        /* \"#utility.yul\":4512:4591   */\n      pop\n      jump\t// out\n    stop\n\n    sub_0: assembly {\n            /* \"contracts/Recovery.sol\":259:1049  contract SimpleToken {\r... */\n          mstore(0x40, 0x80)\n            /* \"contracts/Recovery.sol\":384:536  constructor(string memory _name, address _creator, uint256 _initialSupply) {\r... */\n          callvalue\n          dup1\n          iszero\n          tag_1\n          jumpi\n          0x00\n          dup1\n          revert\n        tag_1:\n          pop\n          mload(0x40)\n          sub(codesize, bytecodeSize)\n          dup1\n          bytecodeSize\n          dup4\n          codecopy\n          dup2\n          dup2\n          add\n          0x40\n          mstore\n          dup2\n          add\n          swap1\n          tag_2\n          swap2\n          swap1\n          tag_3\n          jump\t// in\n        tag_2:\n            /* \"contracts/Recovery.sol\":477:482  _name */\n          dup3\n            /* \"contracts/Recovery.sol\":470:474  name */\n          0x00\n            /* \"contracts/Recovery.sol\":470:482  name = _name */\n          swap1\n          dup1\n          mload\n          swap1\n          0x20\n          add\n          swap1\n          tag_6\n          swap3\n          swap2\n          swap1\n          tag_7\n          jump\t// in\n        tag_6:\n          pop\n            /* \"contracts/Recovery.sol\":514:528  _initialSupply */\n          dup1\n            /* \"contracts/Recovery.sol\":493:501  balances */\n          0x01\n            /* \"contracts/Recovery.sol\":493:511  balances[_creator] */\n          0x00\n            /* \"contracts/Recovery.sol\":502:510  _creator */\n          dup5\n            /* \"contracts/Recovery.sol\":493:511  balances[_creator] */\n          0xffffffffffffffffffffffffffffffffffffffff\n          and\n          0xffffffffffffffffffffffffffffffffffffffff\n          and\n          dup2\n          mstore\n          0x20\n          add\n          swap1\n          dup2\n          mstore\n          0x20\n          add\n          0x00\n          keccak256\n            /* \"contracts/Recovery.sol\":493:528  balances[_creator] = _initialSupply */\n          dup2\n          swap1\n          sstore\n          pop\n            /* \"contracts/Recovery.sol\":384:536  constructor(string memory _name, address _creator, uint256 _initialSupply) {\r... */\n          pop\n          pop\n          pop\n            /* \"contracts/Recovery.sol\":259:1049  contract SimpleToken {\r... */\n          jump(tag_8)\n        tag_7:\n          dup3\n          dup1\n          sload\n          tag_9\n          swap1\n          tag_10\n          jump\t// in\n        tag_9:\n          swap1\n          0x00\n          mstore\n          keccak256(0x00, 0x20)\n          swap1\n          0x1f\n          add\n          0x20\n          swap1\n          div\n          dup2\n          add\n          swap3\n          dup3\n          tag_12\n          jumpi\n          0x00\n          dup6\n          sstore\n          jump(tag_11)\n        tag_12:\n          dup3\n          0x1f\n          lt\n          tag_13\n          jumpi\n          dup1\n          mload\n          not(0xff)\n          and\n          dup4\n          dup1\n          add\n          or\n          dup6\n          sstore\n          jump(tag_11)\n        tag_13:\n          dup3\n          dup1\n          add\n          0x01\n          add\n          dup6\n          sstore\n          dup3\n          iszero\n          tag_11\n          jumpi\n          swap2\n          dup3\n          add\n        tag_14:\n          dup3\n          dup2\n          gt\n          iszero\n          tag_15\n          jumpi\n          dup3\n          mload\n          dup3\n          sstore\n          swap2\n          0x20\n          add\n          swap2\n          swap1\n          0x01\n          add\n          swap1\n          jump(tag_14)\n        tag_15:\n        tag_11:\n          pop\n          swap1\n          pop\n          tag_16\n          swap2\n          swap1\n          tag_17\n          jump\t// in\n        tag_16:\n          pop\n          swap1\n          jump\t// out\n        tag_17:\n        tag_18:\n          dup1\n          dup3\n          gt\n          iszero\n          tag_19\n          jumpi\n          0x00\n          dup2\n          0x00\n          swap1\n          sstore\n          pop\n          0x01\n          add\n          jump(tag_18)\n        tag_19:\n          pop\n          swap1\n          jump\t// out\n            /* \"#utility.yul\":7:360   */\n        tag_21:\n          0x00\n            /* \"#utility.yul\":121:186   */\n          tag_23\n            /* \"#utility.yul\":136:185   */\n          tag_24\n            /* \"#utility.yul\":178:184   */\n          dup5\n            /* \"#utility.yul\":136:185   */\n          tag_25\n          jump\t// in\n        tag_24:\n            /* \"#utility.yul\":121:186   */\n          tag_26\n          jump\t// in\n        tag_23:\n            /* \"#utility.yul\":112:186   */\n          swap1\n          pop\n            /* \"#utility.yul\":209:215   */\n          dup3\n            /* \"#utility.yul\":202:207   */\n          dup2\n            /* \"#utility.yul\":195:216   */\n          mstore\n            /* \"#utility.yul\":247:251   */\n          0x20\n            /* \"#utility.yul\":240:245   */\n          dup2\n            /* \"#utility.yul\":236:252   */\n          add\n            /* \"#utility.yul\":285:288   */\n          dup5\n            /* \"#utility.yul\":276:282   */\n          dup5\n            /* \"#utility.yul\":271:274   */\n          dup5\n            /* \"#utility.yul\":267:283   */\n          add\n            /* \"#utility.yul\":264:289   */\n          gt\n            /* \"#utility.yul\":261:263   */\n          iszero\n          tag_27\n          jumpi\n            /* \"#utility.yul\":302:303   */\n          0x00\n            /* \"#utility.yul\":299:300   */\n          dup1\n            /* \"#utility.yul\":292:304   */\n          revert\n            /* \"#utility.yul\":261:263   */\n        tag_27:\n            /* \"#utility.yul\":315:354   */\n          tag_28\n            /* \"#utility.yul\":347:353   */\n          dup5\n            /* \"#utility.yul\":342:345   */\n          dup3\n            /* \"#utility.yul\":337:340   */\n          dup6\n            /* \"#utility.yul\":315:354   */\n          tag_29\n          jump\t// in\n        tag_28:\n            /* \"#utility.yul\":102:360   */\n          pop\n          swap4\n          swap3\n          pop\n          pop\n          pop\n          jump\t// out\n            /* \"#utility.yul\":366:509   */\n        tag_30:\n          0x00\n            /* \"#utility.yul\":454:460   */\n          dup2\n            /* \"#utility.yul\":448:461   */\n          mload\n            /* \"#utility.yul\":439:461   */\n          swap1\n          pop\n            /* \"#utility.yul\":470:503   */\n          tag_32\n            /* \"#utility.yul\":497:502   */\n          dup2\n            /* \"#utility.yul\":470:503   */\n          tag_33\n          jump\t// in\n        tag_32:\n            /* \"#utility.yul\":429:509   */\n          swap3\n          swap2\n          pop\n          pop\n          jump\t// out\n            /* \"#utility.yul\":529:817   */\n        tag_34:\n          0x00\n            /* \"#utility.yul\":645:648   */\n          dup3\n            /* \"#utility.yul\":638:642   */\n          0x1f\n            /* \"#utility.yul\":630:636   */\n          dup4\n            /* \"#utility.yul\":626:643   */\n          add\n            /* \"#utility.yul\":622:649   */\n          slt\n            /* \"#utility.yul\":612:614   */\n          tag_36\n          jumpi\n            /* \"#utility.yul\":663:664   */\n          0x00\n            /* \"#utility.yul\":660:661   */\n          dup1\n            /* \"#utility.yul\":653:665   */\n          revert\n            /* \"#utility.yul\":612:614   */\n        tag_36:\n            /* \"#utility.yul\":696:702   */\n          dup2\n            /* \"#utility.yul\":690:703   */\n          mload\n            /* \"#utility.yul\":721:811   */\n          tag_37\n            /* \"#utility.yul\":807:810   */\n          dup5\n            /* \"#utility.yul\":799:805   */\n          dup3\n            /* \"#utility.yul\":792:796   */\n          0x20\n            /* \"#utility.yul\":784:790   */\n          dup7\n            /* \"#utility.yul\":780:797   */\n          add\n            /* \"#utility.yul\":721:811   */\n          tag_21\n          jump\t// in\n        tag_37:\n            /* \"#utility.yul\":712:811   */\n          swap2\n          pop\n            /* \"#utility.yul\":602:817   */\n          pop\n          swap3\n          swap2\n          pop\n          pop\n          jump\t// out\n            /* \"#utility.yul\":823:966   */\n        tag_38:\n          0x00\n            /* \"#utility.yul\":911:917   */\n          dup2\n            /* \"#utility.yul\":905:918   */\n          mload\n            /* \"#utility.yul\":896:918   */\n          swap1\n          pop\n            /* \"#utility.yul\":927:960   */\n          tag_40\n            /* \"#utility.yul\":954:959   */\n          dup2\n            /* \"#utility.yul\":927:960   */\n          tag_41\n          jump\t// in\n        tag_40:\n            /* \"#utility.yul\":886:966   */\n          swap3\n          swap2\n          pop\n          pop\n          jump\t// out\n            /* \"#utility.yul\":972:1674   */\n        tag_3:\n          0x00\n          dup1\n          0x00\n            /* \"#utility.yul\":1135:1137   */\n          0x60\n            /* \"#utility.yul\":1123:1132   */\n          dup5\n            /* \"#utility.yul\":1114:1121   */\n          dup7\n            /* \"#utility.yul\":1110:1133   */\n          sub\n            /* \"#utility.yul\":1106:1138   */\n          slt\n            /* \"#utility.yul\":1103:1105   */\n          iszero\n          tag_43\n          jumpi\n            /* \"#utility.yul\":1151:1152   */\n          0x00\n            /* \"#utility.yul\":1148:1149   */\n          dup1\n            /* \"#utility.yul\":1141:1153   */\n          revert\n            /* \"#utility.yul\":1103:1105   */\n        tag_43:\n            /* \"#utility.yul\":1215:1216   */\n          0x00\n            /* \"#utility.yul\":1204:1213   */\n          dup5\n            /* \"#utility.yul\":1200:1217   */\n          add\n            /* \"#utility.yul\":1194:1218   */\n          mload\n            /* \"#utility.yul\":1245:1263   */\n          0xffffffffffffffff\n            /* \"#utility.yul\":1237:1243   */\n          dup2\n            /* \"#utility.yul\":1234:1264   */\n          gt\n            /* \"#utility.yul\":1231:1233   */\n          iszero\n          tag_44\n          jumpi\n            /* \"#utility.yul\":1277:1278   */\n          0x00\n            /* \"#utility.yul\":1274:1275   */\n          dup1\n            /* \"#utility.yul\":1267:1279   */\n          revert\n            /* \"#utility.yul\":1231:1233   */\n        tag_44:\n            /* \"#utility.yul\":1305:1379   */\n          tag_45\n            /* \"#utility.yul\":1371:1378   */\n          dup7\n            /* \"#utility.yul\":1362:1368   */\n          dup3\n            /* \"#utility.yul\":1351:1360   */\n          dup8\n            /* \"#utility.yul\":1347:1369   */\n          add\n            /* \"#utility.yul\":1305:1379   */\n          tag_34\n          jump\t// in\n        tag_45:\n            /* \"#utility.yul\":1295:1379   */\n          swap4\n          pop\n            /* \"#utility.yul\":1165:1389   */\n          pop\n            /* \"#utility.yul\":1428:1430   */\n          0x20\n            /* \"#utility.yul\":1454:1518   */\n          tag_46\n            /* \"#utility.yul\":1510:1517   */\n          dup7\n            /* \"#utility.yul\":1501:1507   */\n          dup3\n            /* \"#utility.yul\":1490:1499   */\n          dup8\n            /* \"#utility.yul\":1486:1508   */\n          add\n            /* \"#utility.yul\":1454:1518   */\n          tag_30\n          jump\t// in\n        tag_46:\n            /* \"#utility.yul\":1444:1518   */\n          swap3\n          pop\n            /* \"#utility.yul\":1399:1528   */\n          pop\n            /* \"#utility.yul\":1567:1569   */\n          0x40\n            /* \"#utility.yul\":1593:1657   */\n          tag_47\n            /* \"#utility.yul\":1649:1656   */\n          dup7\n            /* \"#utility.yul\":1640:1646   */\n          dup3\n            /* \"#utility.yul\":1629:1638   */\n          dup8\n            /* \"#utility.yul\":1625:1647   */\n          add\n            /* \"#utility.yul\":1593:1657   */\n          tag_38\n          jump\t// in\n        tag_47:\n            /* \"#utility.yul\":1583:1657   */\n          swap2\n          pop\n            /* \"#utility.yul\":1538:1667   */\n          pop\n            /* \"#utility.yul\":1093:1674   */\n          swap3\n          pop\n          swap3\n          pop\n          swap3\n          jump\t// out\n            /* \"#utility.yul\":1680:1963   */\n        tag_26:\n          0x00\n            /* \"#utility.yul\":1746:1748   */\n          0x40\n            /* \"#utility.yul\":1740:1749   */\n          mload\n            /* \"#utility.yul\":1730:1749   */\n          swap1\n          pop\n            /* \"#utility.yul\":1788:1792   */\n          dup2\n            /* \"#utility.yul\":1780:1786   */\n          dup2\n            /* \"#utility.yul\":1776:1793   */\n          add\n            /* \"#utility.yul\":1895:1901   */\n          dup2\n            /* \"#utility.yul\":1883:1893   */\n          dup2\n            /* \"#utility.yul\":1880:1902   */\n          lt\n            /* \"#utility.yul\":1859:1877   */\n          0xffffffffffffffff\n            /* \"#utility.yul\":1847:1857   */\n          dup3\n            /* \"#utility.yul\":1844:1878   */\n          gt\n            /* \"#utility.yul\":1841:1903   */\n          or\n            /* \"#utility.yul\":1838:1840   */\n          iszero\n          tag_49\n          jumpi\n            /* \"#utility.yul\":1906:1924   */\n          tag_50\n          tag_51\n          jump\t// in\n        tag_50:\n            /* \"#utility.yul\":1838:1840   */\n        tag_49:\n            /* \"#utility.yul\":1946:1956   */\n          dup1\n            /* \"#utility.yul\":1942:1944   */\n          0x40\n            /* \"#utility.yul\":1935:1957   */\n          mstore\n            /* \"#utility.yul\":1720:1963   */\n          pop\n          swap2\n          swap1\n          pop\n          jump\t// out\n            /* \"#utility.yul\":1969:2301   */\n        tag_25:\n          0x00\n            /* \"#utility.yul\":2121:2139   */\n          0xffffffffffffffff\n            /* \"#utility.yul\":2113:2119   */\n          dup3\n            /* \"#utility.yul\":2110:2140   */\n          gt\n            /* \"#utility.yul\":2107:2109   */\n          iszero\n          tag_53\n          jumpi\n            /* \"#utility.yul\":2143:2161   */\n          tag_54\n          tag_51\n          jump\t// in\n        tag_54:\n            /* \"#utility.yul\":2107:2109   */\n        tag_53:\n            /* \"#utility.yul\":2228:2232   */\n          0x1f\n            /* \"#utility.yul\":2224:2233   */\n          not\n            /* \"#utility.yul\":2217:2221   */\n          0x1f\n            /* \"#utility.yul\":2209:2215   */\n          dup4\n            /* \"#utility.yul\":2205:2222   */\n          add\n            /* \"#utility.yul\":2201:2234   */\n          and\n            /* \"#utility.yul\":2193:2234   */\n          swap1\n          pop\n            /* \"#utility.yul\":2289:2293   */\n          0x20\n            /* \"#utility.yul\":2283:2287   */\n          dup2\n            /* \"#utility.yul\":2279:2294   */\n          add\n            /* \"#utility.yul\":2271:2294   */\n          swap1\n          pop\n            /* \"#utility.yul\":2036:2301   */\n          swap2\n          swap1\n          pop\n          jump\t// out\n            /* \"#utility.yul\":2307:2403   */\n        tag_55:\n          0x00\n            /* \"#utility.yul\":2373:2397   */\n          tag_57\n            /* \"#utility.yul\":2391:2396   */\n          dup3\n            /* \"#utility.yul\":2373:2397   */\n          tag_58\n          jump\t// in\n        tag_57:\n            /* \"#utility.yul\":2362:2397   */\n          swap1\n          pop\n            /* \"#utility.yul\":2352:2403   */\n          swap2\n          swap1\n          pop\n          jump\t// out\n            /* \"#utility.yul\":2409:2535   */\n        tag_58:\n          0x00\n            /* \"#utility.yul\":2486:2528   */\n          0xffffffffffffffffffffffffffffffffffffffff\n            /* \"#utility.yul\":2479:2484   */\n          dup3\n            /* \"#utility.yul\":2475:2529   */\n          and\n            /* \"#utility.yul\":2464:2529   */\n          swap1\n          pop\n            /* \"#utility.yul\":2454:2535   */\n          swap2\n          swap1\n          pop\n          jump\t// out\n            /* \"#utility.yul\":2541:2618   */\n        tag_60:\n          0x00\n            /* \"#utility.yul\":2607:2612   */\n          dup2\n            /* \"#utility.yul\":2596:2612   */\n          swap1\n          pop\n            /* \"#utility.yul\":2586:2618   */\n          swap2\n          swap1\n          pop\n          jump\t// out\n            /* \"#utility.yul\":2624:2931   */\n        tag_29:\n            /* \"#utility.yul\":2692:2693   */\n          0x00\n            /* \"#utility.yul\":2702:2815   */\n        tag_63:\n            /* \"#utility.yul\":2716:2722   */\n          dup4\n            /* \"#utility.yul\":2713:2714   */\n          dup2\n            /* \"#utility.yul\":2710:2723   */\n          lt\n            /* \"#utility.yul\":2702:2815   */\n          iszero\n          tag_65\n          jumpi\n            /* \"#utility.yul\":2801:2802   */\n          dup1\n            /* \"#utility.yul\":2796:2799   */\n          dup3\n            /* \"#utility.yul\":2792:2803   */\n          add\n            /* \"#utility.yul\":2786:2804   */\n          mload\n            /* \"#utility.yul\":2782:2783   */\n          dup2\n            /* \"#utility.yul\":2777:2780   */\n          dup5\n            /* \"#utility.yul\":2773:2784   */\n          add\n            /* \"#utility.yul\":2766:2805   */\n          mstore\n            /* \"#utility.yul\":2738:2740   */\n          0x20\n            /* \"#utility.yul\":2735:2736   */\n          dup2\n            /* \"#utility.yul\":2731:2741   */\n          add\n            /* \"#utility.yul\":2726:2741   */\n          swap1\n          pop\n            /* \"#utility.yul\":2702:2815   */\n          jump(tag_63)\n        tag_65:\n            /* \"#utility.yul\":2833:2839   */\n          dup4\n            /* \"#utility.yul\":2830:2831   */\n          dup2\n            /* \"#utility.yul\":2827:2840   */\n          gt\n            /* \"#utility.yul\":2824:2826   */\n          iszero\n          tag_66\n          jumpi\n            /* \"#utility.yul\":2913:2914   */\n          0x00\n            /* \"#utility.yul\":2904:2910   */\n          dup5\n            /* \"#utility.yul\":2899:2902   */\n          dup5\n            /* \"#utility.yul\":2895:2911   */\n          add\n            /* \"#utility.yul\":2888:2915   */\n          mstore\n            /* \"#utility.yul\":2824:2826   */\n        tag_66:\n            /* \"#utility.yul\":2673:2931   */\n          pop\n          pop\n          pop\n          pop\n          jump\t// out\n            /* \"#utility.yul\":2937:3257   */\n        tag_10:\n          0x00\n            /* \"#utility.yul\":3018:3019   */\n          0x02\n            /* \"#utility.yul\":3012:3016   */\n          dup3\n            /* \"#utility.yul\":3008:3020   */\n          div\n            /* \"#utility.yul\":2998:3020   */\n          swap1\n          pop\n            /* \"#utility.yul\":3065:3066   */\n          0x01\n            /* \"#utility.yul\":3059:3063   */\n          dup3\n            /* \"#utility.yul\":3055:3067   */\n          and\n            /* \"#utility.yul\":3086:3104   */\n          dup1\n            /* \"#utility.yul\":3076:3078   */\n          tag_68\n          jumpi\n            /* \"#utility.yul\":3142:3146   */\n          0x7f\n            /* \"#utility.yul\":3134:3140   */\n          dup3\n            /* \"#utility.yul\":3130:3147   */\n          and\n            /* \"#utility.yul\":3120:3147   */\n          swap2\n          pop\n            /* \"#utility.yul\":3076:3078   */\n        tag_68:\n            /* \"#utility.yul\":3204:3206   */\n          0x20\n            /* \"#utility.yul\":3196:3202   */\n          dup3\n            /* \"#utility.yul\":3193:3207   */\n          lt\n            /* \"#utility.yul\":3173:3191   */\n          dup2\n            /* \"#utility.yul\":3170:3208   */\n          eq\n            /* \"#utility.yul\":3167:3169   */\n          iszero\n          tag_69\n          jumpi\n            /* \"#utility.yul\":3223:3241   */\n          tag_70\n          tag_71\n          jump\t// in\n        tag_70:\n            /* \"#utility.yul\":3167:3169   */\n        tag_69:\n            /* \"#utility.yul\":2988:3257   */\n          pop\n          swap2\n          swap1\n          pop\n          jump\t// out\n            /* \"#utility.yul\":3263:3443   */\n        tag_71:\n            /* \"#utility.yul\":3311:3388   */\n          0x4e487b7100000000000000000000000000000000000000000000000000000000\n            /* \"#utility.yul\":3308:3309   */\n          0x00\n            /* \"#utility.yul\":3301:3389   */\n          mstore\n            /* \"#utility.yul\":3408:3412   */\n          0x22\n            /* \"#utility.yul\":3405:3406   */\n          0x04\n            /* \"#utility.yul\":3398:3413   */\n          mstore\n            /* \"#utility.yul\":3432:3436   */\n          0x24\n            /* \"#utility.yul\":3429:3430   */\n          0x00\n            /* \"#utility.yul\":3422:3437   */\n          revert\n            /* \"#utility.yul\":3449:3629   */\n        tag_51:\n            /* \"#utility.yul\":3497:3574   */\n          0x4e487b7100000000000000000000000000000000000000000000000000000000\n            /* \"#utility.yul\":3494:3495   */\n          0x00\n            /* \"#utility.yul\":3487:3575   */\n          mstore\n            /* \"#utility.yul\":3594:3598   */\n          0x41\n            /* \"#utility.yul\":3591:3592   */\n          0x04\n            /* \"#utility.yul\":3584:3599   */\n          mstore\n            /* \"#utility.yul\":3618:3622   */\n          0x24\n            /* \"#utility.yul\":3615:3616   */\n          0x00\n            /* \"#utility.yul\":3608:3623   */\n          revert\n            /* \"#utility.yul\":3635:3757   */\n        tag_33:\n            /* \"#utility.yul\":3708:3732   */\n          tag_75\n            /* \"#utility.yul\":3726:3731   */\n          dup2\n            /* \"#utility.yul\":3708:3732   */\n          tag_55\n          jump\t// in\n        tag_75:\n            /* \"#utility.yul\":3701:3706   */\n          dup2\n            /* \"#utility.yul\":3698:3733   */\n          eq\n            /* \"#utility.yul\":3688:3690   */\n          tag_76\n          jumpi\n            /* \"#utility.yul\":3747:3748   */\n          0x00\n            /* \"#utility.yul\":3744:3745   */\n          dup1\n            /* \"#utility.yul\":3737:3749   */\n          revert\n            /* \"#utility.yul\":3688:3690   */\n        tag_76:\n            /* \"#utility.yul\":3678:3757   */\n          pop\n          jump\t// out\n            /* \"#utility.yul\":3763:3885   */\n        tag_41:\n            /* \"#utility.yul\":3836:3860   */\n          tag_78\n            /* \"#utility.yul\":3854:3859   */\n          dup2\n            /* \"#utility.yul\":3836:3860   */\n          tag_60\n          jump\t// in\n        tag_78:\n            /* \"#utility.yul\":3829:3834   */\n          dup2\n            /* \"#utility.yul\":3826:3861   */\n          eq\n            /* \"#utility.yul\":3816:3818   */\n          tag_79\n          jumpi\n            /* \"#utility.yul\":3875:3876   */\n          0x00\n            /* \"#utility.yul\":3872:3873   */\n          dup1\n            /* \"#utility.yul\":3865:3877   */\n          revert\n            /* \"#utility.yul\":3816:3818   */\n        tag_79:\n            /* \"#utility.yul\":3806:3885   */\n          pop\n          jump\t// out\n            /* \"contracts/Recovery.sol\":259:1049  contract SimpleToken {\r... */\n        tag_8:\n          dataSize(sub_0)\n          dup1\n          dataOffset(sub_0)\n          0x00\n          codecopy\n          0x00\n          return\n        stop\n\n        sub_0: assembly {\n                /* \"contracts/Recovery.sol\":259:1049  contract SimpleToken {\r... */\n              mstore(0x40, 0x80)\n              jumpi(tag_1, lt(calldatasize, 0x04))\n              shr(0xe0, calldataload(0x00))\n              dup1\n              0xf55d9d\n              eq\n              tag_3\n              jumpi\n              dup1\n              0x06fdde03\n              eq\n              tag_4\n              jumpi\n              dup1\n              0x27e235e3\n              eq\n              tag_5\n              jumpi\n              dup1\n              0xa9059cbb\n              eq\n              tag_6\n              jumpi\n              jump(tag_2)\n            tag_1:\n              jumpi(tag_2, calldatasize)\n                /* \"contracts/Recovery.sol\":660:662  10 */\n              0x0a\n                /* \"contracts/Recovery.sol\":648:657  msg.value */\n              callvalue\n                /* \"contracts/Recovery.sol\":648:662  msg.value * 10 */\n              tag_9\n              swap2\n              swap1\n              tag_10\n              jump\t// in\n            tag_9:\n                /* \"contracts/Recovery.sol\":625:633  balances */\n              0x01\n                /* \"contracts/Recovery.sol\":625:645  balances[msg.sender] */\n              0x00\n                /* \"contracts/Recovery.sol\":634:644  msg.sender */\n              caller\n                /* \"contracts/Recovery.sol\":625:645  balances[msg.sender] */\n              0xffffffffffffffffffffffffffffffffffffffff\n              and\n              0xffffffffffffffffffffffffffffffffffffffff\n              and\n              dup2\n              mstore\n              0x20\n              add\n              swap1\n              dup2\n              mstore\n              0x20\n              add\n              0x00\n              keccak256\n                /* \"contracts/Recovery.sol\":625:662  balances[msg.sender] = msg.value * 10 */\n              dup2\n              swap1\n              sstore\n              pop\n                /* \"contracts/Recovery.sol\":259:1049  contract SimpleToken {\r... */\n              stop\n            tag_2:\n              0x00\n              dup1\n              revert\n                /* \"contracts/Recovery.sol\":965:1046  function destroy(address payable _to) public {\r... */\n            tag_3:\n              callvalue\n              dup1\n              iszero\n              tag_11\n              jumpi\n              0x00\n              dup1\n              revert\n            tag_11:\n              pop\n              tag_12\n              0x04\n              dup1\n              calldatasize\n              sub\n              dup2\n              add\n              swap1\n              tag_13\n              swap2\n              swap1\n              tag_14\n              jump\t// in\n            tag_13:\n              tag_15\n              jump\t// in\n            tag_12:\n              stop\n                /* \"contracts/Recovery.sol\":287:305  string public name */\n            tag_4:\n              callvalue\n              dup1\n              iszero\n              tag_16\n              jumpi\n              0x00\n              dup1\n              revert\n            tag_16:\n              pop\n              tag_17\n              tag_18\n              jump\t// in\n            tag_17:\n              mload(0x40)\n              tag_19\n              swap2\n              swap1\n              tag_20\n              jump\t// in\n            tag_19:\n              mload(0x40)\n              dup1\n              swap2\n              sub\n              swap1\n              return\n                /* \"contracts/Recovery.sol\":312:355  mapping(address => uint256) public balances */\n            tag_5:\n              callvalue\n              dup1\n              iszero\n              tag_21\n              jumpi\n              0x00\n              dup1\n              revert\n            tag_21:\n              pop\n              tag_22\n              0x04\n              dup1\n              calldatasize\n              sub\n              dup2\n              add\n              swap1\n              tag_23\n              swap2\n              swap1\n              tag_24\n              jump\t// in\n            tag_23:\n              tag_25\n              jump\t// in\n            tag_22:\n              mload(0x40)\n              tag_26\n              swap2\n              swap1\n              tag_27\n              jump\t// in\n            tag_26:\n              mload(0x40)\n              dup1\n              swap2\n              sub\n              swap1\n              return\n                /* \"contracts/Recovery.sol\":712:924  function transfer(address _to, uint256 _amount) public {\r... */\n            tag_6:\n              callvalue\n              dup1\n              iszero\n              tag_28\n              jumpi\n              0x00\n              dup1\n              revert\n            tag_28:\n              pop\n              tag_29\n              0x04\n              dup1\n              calldatasize\n              sub\n              dup2\n              add\n              swap1\n              tag_30\n              swap2\n              swap1\n              tag_31\n              jump\t// in\n            tag_30:\n              tag_32\n              jump\t// in\n            tag_29:\n              stop\n                /* \"contracts/Recovery.sol\":965:1046  function destroy(address payable _to) public {\r... */\n            tag_15:\n                /* \"contracts/Recovery.sol\":1034:1037  _to */\n              dup1\n                /* \"contracts/Recovery.sol\":1021:1038  selfdestruct(_to) */\n              0xffffffffffffffffffffffffffffffffffffffff\n              and\n              selfdestruct\n                /* \"contracts/Recovery.sol\":287:305  string public name */\n            tag_18:\n              0x00\n              dup1\n              sload\n              tag_34\n              swap1\n              tag_35\n              jump\t// in\n            tag_34:\n              dup1\n              0x1f\n              add\n              0x20\n              dup1\n              swap2\n              div\n              mul\n              0x20\n              add\n              mload(0x40)\n              swap1\n              dup2\n              add\n              0x40\n              mstore\n              dup1\n              swap3\n              swap2\n              swap1\n              dup2\n              dup2\n              mstore\n              0x20\n              add\n              dup3\n              dup1\n              sload\n              tag_36\n              swap1\n              tag_35\n              jump\t// in\n            tag_36:\n              dup1\n              iszero\n              tag_37\n              jumpi\n              dup1\n              0x1f\n              lt\n              tag_38\n              jumpi\n              0x0100\n              dup1\n              dup4\n              sload\n              div\n              mul\n              dup4\n              mstore\n              swap2\n              0x20\n              add\n              swap2\n              jump(tag_37)\n            tag_38:\n              dup3\n              add\n              swap2\n              swap1\n              0x00\n              mstore\n              keccak256(0x00, 0x20)\n              swap1\n            tag_39:\n              dup2\n              sload\n              dup2\n              mstore\n              swap1\n              0x01\n              add\n              swap1\n              0x20\n              add\n              dup1\n              dup4\n              gt\n              tag_39\n              jumpi\n              dup3\n              swap1\n              sub\n              0x1f\n              and\n              dup3\n              add\n              swap2\n            tag_37:\n              pop\n              pop\n              pop\n              pop\n              pop\n              dup2\n              jump\t// out\n                /* \"contracts/Recovery.sol\":312:355  mapping(address => uint256) public balances */\n            tag_25:\n              mstore(0x20, 0x01)\n              dup1\n              0x00\n              mstore\n              keccak256(0x00, 0x40)\n              0x00\n              swap2\n              pop\n              swap1\n              pop\n              sload\n              dup2\n              jump\t// out\n                /* \"contracts/Recovery.sol\":712:924  function transfer(address _to, uint256 _amount) public {\r... */\n            tag_32:\n                /* \"contracts/Recovery.sol\":810:817  _amount */\n              dup1\n                /* \"contracts/Recovery.sol\":786:794  balances */\n              0x01\n                /* \"contracts/Recovery.sol\":786:806  balances[msg.sender] */\n              0x00\n                /* \"contracts/Recovery.sol\":795:805  msg.sender */\n              caller\n                /* \"contracts/Recovery.sol\":786:806  balances[msg.sender] */\n              0xffffffffffffffffffffffffffffffffffffffff\n              and\n              0xffffffffffffffffffffffffffffffffffffffff\n              and\n              dup2\n              mstore\n              0x20\n              add\n              swap1\n              dup2\n              mstore\n              0x20\n              add\n              0x00\n              keccak256\n              sload\n                /* \"contracts/Recovery.sol\":786:817  balances[msg.sender] >= _amount */\n              lt\n              iszero\n                /* \"contracts/Recovery.sol\":778:818  require(balances[msg.sender] >= _amount) */\n              tag_41\n              jumpi\n              0x00\n              dup1\n              revert\n            tag_41:\n                /* \"contracts/Recovery.sol\":875:882  _amount */\n              dup1\n                /* \"contracts/Recovery.sol\":852:860  balances */\n              0x01\n                /* \"contracts/Recovery.sol\":852:872  balances[msg.sender] */\n              0x00\n                /* \"contracts/Recovery.sol\":861:871  msg.sender */\n              caller\n                /* \"contracts/Recovery.sol\":852:872  balances[msg.sender] */\n              0xffffffffffffffffffffffffffffffffffffffff\n              and\n              0xffffffffffffffffffffffffffffffffffffffff\n              and\n              dup2\n              mstore\n              0x20\n              add\n              swap1\n              dup2\n              mstore\n              0x20\n              add\n              0x00\n              keccak256\n              sload\n                /* \"contracts/Recovery.sol\":852:882  balances[msg.sender] - _amount */\n              tag_42\n              swap2\n              swap1\n              tag_43\n              jump\t// in\n            tag_42:\n                /* \"contracts/Recovery.sol\":829:837  balances */\n              0x01\n                /* \"contracts/Recovery.sol\":829:849  balances[msg.sender] */\n              0x00\n                /* \"contracts/Recovery.sol\":838:848  msg.sender */\n              caller\n                /* \"contracts/Recovery.sol\":829:849  balances[msg.sender] */\n              0xffffffffffffffffffffffffffffffffffffffff\n              and\n              0xffffffffffffffffffffffffffffffffffffffff\n              and\n              dup2\n              mstore\n              0x20\n              add\n              swap1\n              dup2\n              mstore\n              0x20\n              add\n              0x00\n              keccak256\n                /* \"contracts/Recovery.sol\":829:882  balances[msg.sender] = balances[msg.sender] - _amount */\n              dup2\n              swap1\n              sstore\n              pop\n                /* \"contracts/Recovery.sol\":909:916  _amount */\n              dup1\n                /* \"contracts/Recovery.sol\":893:901  balances */\n              0x01\n                /* \"contracts/Recovery.sol\":893:906  balances[_to] */\n              0x00\n                /* \"contracts/Recovery.sol\":902:905  _to */\n              dup5\n                /* \"contracts/Recovery.sol\":893:906  balances[_to] */\n              0xffffffffffffffffffffffffffffffffffffffff\n              and\n              0xffffffffffffffffffffffffffffffffffffffff\n              and\n              dup2\n              mstore\n              0x20\n              add\n              swap1\n              dup2\n              mstore\n              0x20\n              add\n              0x00\n              keccak256\n                /* \"contracts/Recovery.sol\":893:916  balances[_to] = _amount */\n              dup2\n              swap1\n              sstore\n              pop\n                /* \"contracts/Recovery.sol\":712:924  function transfer(address _to, uint256 _amount) public {\r... */\n              pop\n              pop\n              jump\t// out\n                /* \"#utility.yul\":7:146   */\n            tag_45:\n              0x00\n                /* \"#utility.yul\":91:97   */\n              dup2\n                /* \"#utility.yul\":78:98   */\n              calldataload\n                /* \"#utility.yul\":69:98   */\n              swap1\n              pop\n                /* \"#utility.yul\":107:140   */\n              tag_47\n                /* \"#utility.yul\":134:139   */\n              dup2\n                /* \"#utility.yul\":107:140   */\n              tag_48\n              jump\t// in\n            tag_47:\n                /* \"#utility.yul\":59:146   */\n              swap3\n              swap2\n              pop\n              pop\n              jump\t// out\n                /* \"#utility.yul\":152:307   */\n            tag_49:\n              0x00\n                /* \"#utility.yul\":244:250   */\n              dup2\n                /* \"#utility.yul\":231:251   */\n              calldataload\n                /* \"#utility.yul\":222:251   */\n              swap1\n              pop\n                /* \"#utility.yul\":260:301   */\n              tag_51\n                /* \"#utility.yul\":295:300   */\n              dup2\n                /* \"#utility.yul\":260:301   */\n              tag_52\n              jump\t// in\n            tag_51:\n                /* \"#utility.yul\":212:307   */\n              swap3\n              swap2\n              pop\n              pop\n              jump\t// out\n                /* \"#utility.yul\":313:452   */\n            tag_53:\n              0x00\n                /* \"#utility.yul\":397:403   */\n              dup2\n                /* \"#utility.yul\":384:404   */\n              calldataload\n                /* \"#utility.yul\":375:404   */\n              swap1\n              pop\n                /* \"#utility.yul\":413:446   */\n              tag_55\n                /* \"#utility.yul\":440:445   */\n              dup2\n                /* \"#utility.yul\":413:446   */\n              tag_56\n              jump\t// in\n            tag_55:\n                /* \"#utility.yul\":365:452   */\n              swap3\n              swap2\n              pop\n              pop\n              jump\t// out\n                /* \"#utility.yul\":458:720   */\n            tag_24:\n              0x00\n                /* \"#utility.yul\":566:568   */\n              0x20\n                /* \"#utility.yul\":554:563   */\n              dup3\n                /* \"#utility.yul\":545:552   */\n              dup5\n                /* \"#utility.yul\":541:564   */\n              sub\n                /* \"#utility.yul\":537:569   */\n              slt\n                /* \"#utility.yul\":534:536   */\n              iszero\n              tag_58\n              jumpi\n                /* \"#utility.yul\":582:583   */\n              0x00\n                /* \"#utility.yul\":579:580   */\n              dup1\n                /* \"#utility.yul\":572:584   */\n              revert\n                /* \"#utility.yul\":534:536   */\n            tag_58:\n                /* \"#utility.yul\":625:626   */\n              0x00\n                /* \"#utility.yul\":650:703   */\n              tag_59\n                /* \"#utility.yul\":695:702   */\n              dup5\n                /* \"#utility.yul\":686:692   */\n              dup3\n                /* \"#utility.yul\":675:684   */\n              dup6\n                /* \"#utility.yul\":671:693   */\n              add\n                /* \"#utility.yul\":650:703   */\n              tag_45\n              jump\t// in\n            tag_59:\n                /* \"#utility.yul\":640:703   */\n              swap2\n              pop\n                /* \"#utility.yul\":596:713   */\n              pop\n                /* \"#utility.yul\":524:720   */\n              swap3\n              swap2\n              pop\n              pop\n              jump\t// out\n                /* \"#utility.yul\":726:1004   */\n            tag_14:\n              0x00\n                /* \"#utility.yul\":842:844   */\n              0x20\n                /* \"#utility.yul\":830:839   */\n              dup3\n                /* \"#utility.yul\":821:828   */\n              dup5\n                /* \"#utility.yul\":817:840   */\n              sub\n                /* \"#utility.yul\":813:845   */\n              slt\n                /* \"#utility.yul\":810:812   */\n              iszero\n              tag_61\n              jumpi\n                /* \"#utility.yul\":858:859   */\n              0x00\n                /* \"#utility.yul\":855:856   */\n              dup1\n                /* \"#utility.yul\":848:860   */\n              revert\n                /* \"#utility.yul\":810:812   */\n            tag_61:\n                /* \"#utility.yul\":901:902   */\n              0x00\n                /* \"#utility.yul\":926:987   */\n              tag_62\n                /* \"#utility.yul\":979:986   */\n              dup5\n                /* \"#utility.yul\":970:976   */\n              dup3\n                /* \"#utility.yul\":959:968   */\n              dup6\n                /* \"#utility.yul\":955:977   */\n              add\n                /* \"#utility.yul\":926:987   */\n              tag_49\n              jump\t// in\n            tag_62:\n                /* \"#utility.yul\":916:987   */\n              swap2\n              pop\n                /* \"#utility.yul\":872:997   */\n              pop\n                /* \"#utility.yul\":800:1004   */\n              swap3\n              swap2\n              pop\n              pop\n              jump\t// out\n                /* \"#utility.yul\":1010:1417   */\n            tag_31:\n              0x00\n              dup1\n                /* \"#utility.yul\":1135:1137   */\n              0x40\n                /* \"#utility.yul\":1123:1132   */\n              dup4\n                /* \"#utility.yul\":1114:1121   */\n              dup6\n                /* \"#utility.yul\":1110:1133   */\n              sub\n                /* \"#utility.yul\":1106:1138   */\n              slt\n                /* \"#utility.yul\":1103:1105   */\n              iszero\n              tag_64\n              jumpi\n                /* \"#utility.yul\":1151:1152   */\n              0x00\n                /* \"#utility.yul\":1148:1149   */\n              dup1\n                /* \"#utility.yul\":1141:1153   */\n              revert\n                /* \"#utility.yul\":1103:1105   */\n            tag_64:\n                /* \"#utility.yul\":1194:1195   */\n              0x00\n                /* \"#utility.yul\":1219:1272   */\n              tag_65\n                /* \"#utility.yul\":1264:1271   */\n              dup6\n                /* \"#utility.yul\":1255:1261   */\n              dup3\n                /* \"#utility.yul\":1244:1253   */\n              dup7\n                /* \"#utility.yul\":1240:1262   */\n              add\n                /* \"#utility.yul\":1219:1272   */\n              tag_45\n              jump\t// in\n            tag_65:\n                /* \"#utility.yul\":1209:1272   */\n              swap3\n              pop\n                /* \"#utility.yul\":1165:1282   */\n              pop\n                /* \"#utility.yul\":1321:1323   */\n              0x20\n                /* \"#utility.yul\":1347:1400   */\n              tag_66\n                /* \"#utility.yul\":1392:1399   */\n              dup6\n                /* \"#utility.yul\":1383:1389   */\n              dup3\n                /* \"#utility.yul\":1372:1381   */\n              dup7\n                /* \"#utility.yul\":1368:1390   */\n              add\n                /* \"#utility.yul\":1347:1400   */\n              tag_53\n              jump\t// in\n            tag_66:\n                /* \"#utility.yul\":1337:1400   */\n              swap2\n              pop\n                /* \"#utility.yul\":1292:1410   */\n              pop\n                /* \"#utility.yul\":1093:1417   */\n              swap3\n              pop\n              swap3\n              swap1\n              pop\n              jump\t// out\n                /* \"#utility.yul\":1423:1787   */\n            tag_67:\n              0x00\n                /* \"#utility.yul\":1539:1578   */\n              tag_69\n                /* \"#utility.yul\":1572:1577   */\n              dup3\n                /* \"#utility.yul\":1539:1578   */\n              tag_70\n              jump\t// in\n            tag_69:\n                /* \"#utility.yul\":1594:1665   */\n              tag_71\n                /* \"#utility.yul\":1658:1664   */\n              dup2\n                /* \"#utility.yul\":1653:1656   */\n              dup6\n                /* \"#utility.yul\":1594:1665   */\n              tag_72\n              jump\t// in\n            tag_71:\n                /* \"#utility.yul\":1587:1665   */\n              swap4\n              pop\n                /* \"#utility.yul\":1674:1726   */\n              tag_73\n                /* \"#utility.yul\":1719:1725   */\n              dup2\n                /* \"#utility.yul\":1714:1717   */\n              dup6\n                /* \"#utility.yul\":1707:1711   */\n              0x20\n                /* \"#utility.yul\":1700:1705   */\n              dup7\n                /* \"#utility.yul\":1696:1712   */\n              add\n                /* \"#utility.yul\":1674:1726   */\n              tag_74\n              jump\t// in\n            tag_73:\n                /* \"#utility.yul\":1751:1780   */\n              tag_75\n                /* \"#utility.yul\":1773:1779   */\n              dup2\n                /* \"#utility.yul\":1751:1780   */\n              tag_76\n              jump\t// in\n            tag_75:\n                /* \"#utility.yul\":1746:1749   */\n              dup5\n                /* \"#utility.yul\":1742:1781   */\n              add\n                /* \"#utility.yul\":1735:1781   */\n              swap2\n              pop\n                /* \"#utility.yul\":1515:1787   */\n              pop\n              swap3\n              swap2\n              pop\n              pop\n              jump\t// out\n                /* \"#utility.yul\":1793:1911   */\n            tag_77:\n                /* \"#utility.yul\":1880:1904   */\n              tag_79\n                /* \"#utility.yul\":1898:1903   */\n              dup2\n                /* \"#utility.yul\":1880:1904   */\n              tag_80\n              jump\t// in\n            tag_79:\n                /* \"#utility.yul\":1875:1878   */\n              dup3\n                /* \"#utility.yul\":1868:1905   */\n              mstore\n                /* \"#utility.yul\":1858:1911   */\n              pop\n              pop\n              jump\t// out\n                /* \"#utility.yul\":1917:2230   */\n            tag_20:\n              0x00\n                /* \"#utility.yul\":2068:2070   */\n              0x20\n                /* \"#utility.yul\":2057:2066   */\n              dup3\n                /* \"#utility.yul\":2053:2071   */\n              add\n                /* \"#utility.yul\":2045:2071   */\n              swap1\n              pop\n                /* \"#utility.yul\":2117:2126   */\n              dup2\n                /* \"#utility.yul\":2111:2115   */\n              dup2\n                /* \"#utility.yul\":2107:2127   */\n              sub\n                /* \"#utility.yul\":2103:2104   */\n              0x00\n                /* \"#utility.yul\":2092:2101   */\n              dup4\n                /* \"#utility.yul\":2088:2105   */\n              add\n                /* \"#utility.yul\":2081:2128   */\n              mstore\n                /* \"#utility.yul\":2145:2223   */\n              tag_82\n                /* \"#utility.yul\":2218:2222   */\n              dup2\n                /* \"#utility.yul\":2209:2215   */\n              dup5\n                /* \"#utility.yul\":2145:2223   */\n              tag_67\n              jump\t// in\n            tag_82:\n                /* \"#utility.yul\":2137:2223   */\n              swap1\n              pop\n                /* \"#utility.yul\":2035:2230   */\n              swap3\n              swap2\n              pop\n              pop\n              jump\t// out\n                /* \"#utility.yul\":2236:2458   */\n            tag_27:\n              0x00\n                /* \"#utility.yul\":2367:2369   */\n              0x20\n                /* \"#utility.yul\":2356:2365   */\n              dup3\n                /* \"#utility.yul\":2352:2370   */\n              add\n                /* \"#utility.yul\":2344:2370   */\n              swap1\n              pop\n                /* \"#utility.yul\":2380:2451   */\n              tag_84\n                /* \"#utility.yul\":2448:2449   */\n              0x00\n                /* \"#utility.yul\":2437:2446   */\n              dup4\n                /* \"#utility.yul\":2433:2450   */\n              add\n                /* \"#utility.yul\":2424:2430   */\n              dup5\n                /* \"#utility.yul\":2380:2451   */\n              tag_77\n              jump\t// in\n            tag_84:\n                /* \"#utility.yul\":2334:2458   */\n              swap3\n              swap2\n              pop\n              pop\n              jump\t// out\n                /* \"#utility.yul\":2464:2563   */\n            tag_70:\n              0x00\n                /* \"#utility.yul\":2550:2555   */\n              dup2\n                /* \"#utility.yul\":2544:2556   */\n              mload\n                /* \"#utility.yul\":2534:2556   */\n              swap1\n              pop\n                /* \"#utility.yul\":2523:2563   */\n              swap2\n              swap1\n              pop\n              jump\t// out\n                /* \"#utility.yul\":2569:2738   */\n            tag_72:\n              0x00\n                /* \"#utility.yul\":2687:2693   */\n              dup3\n                /* \"#utility.yul\":2682:2685   */\n              dup3\n                /* \"#utility.yul\":2675:2694   */\n              mstore\n                /* \"#utility.yul\":2727:2731   */\n              0x20\n                /* \"#utility.yul\":2722:2725   */\n              dup3\n                /* \"#utility.yul\":2718:2732   */\n              add\n                /* \"#utility.yul\":2703:2732   */\n              swap1\n              pop\n                /* \"#utility.yul\":2665:2738   */\n              swap3\n              swap2\n              pop\n              pop\n              jump\t// out\n                /* \"#utility.yul\":2744:3092   */\n            tag_10:\n              0x00\n                /* \"#utility.yul\":2807:2827   */\n              tag_88\n                /* \"#utility.yul\":2825:2826   */\n              dup3\n                /* \"#utility.yul\":2807:2827   */\n              tag_80\n              jump\t// in\n            tag_88:\n                /* \"#utility.yul\":2802:2827   */\n              swap2\n              pop\n                /* \"#utility.yul\":2841:2861   */\n              tag_89\n                /* \"#utility.yul\":2859:2860   */\n              dup4\n                /* \"#utility.yul\":2841:2861   */\n              tag_80\n              jump\t// in\n            tag_89:\n                /* \"#utility.yul\":2836:2861   */\n              swap3\n              pop\n                /* \"#utility.yul\":3029:3030   */\n              dup2\n                /* \"#utility.yul\":2961:3027   */\n              0xffffffffffffffffffffffffffffffffffffffffffffffffffffffffffffffff\n                /* \"#utility.yul\":2957:3031   */\n              div\n                /* \"#utility.yul\":2954:2955   */\n              dup4\n                /* \"#utility.yul\":2951:3032   */\n              gt\n                /* \"#utility.yul\":2946:2947   */\n              dup3\n                /* \"#utility.yul\":2939:2948   */\n              iszero\n                /* \"#utility.yul\":2932:2949   */\n              iszero\n                /* \"#utility.yul\":2928:3033   */\n              and\n                /* \"#utility.yul\":2925:2927   */\n              iszero\n              tag_90\n              jumpi\n                /* \"#utility.yul\":3036:3054   */\n              tag_91\n              tag_92\n              jump\t// in\n            tag_91:\n                /* \"#utility.yul\":2925:2927   */\n            tag_90:\n                /* \"#utility.yul\":3084:3085   */\n              dup3\n                /* \"#utility.yul\":3081:3082   */\n              dup3\n                /* \"#utility.yul\":3077:3086   */\n              mul\n                /* \"#utility.yul\":3066:3086   */\n              swap1\n              pop\n                /* \"#utility.yul\":2792:3092   */\n              swap3\n              swap2\n              pop\n              pop\n              jump\t// out\n                /* \"#utility.yul\":3098:3289   */\n            tag_43:\n              0x00\n                /* \"#utility.yul\":3158:3178   */\n              tag_94\n                /* \"#utility.yul\":3176:3177   */\n              dup3\n                /* \"#utility.yul\":3158:3178   */\n              tag_80\n              jump\t// in\n            tag_94:\n                /* \"#utility.yul\":3153:3178   */\n              swap2\n              pop\n                /* \"#utility.yul\":3192:3212   */\n              tag_95\n                /* \"#utility.yul\":3210:3211   */\n              dup4\n                /* \"#utility.yul\":3192:3212   */\n              tag_80\n              jump\t// in\n            tag_95:\n                /* \"#utility.yul\":3187:3212   */\n              swap3\n              pop\n                /* \"#utility.yul\":3231:3232   */\n              dup3\n                /* \"#utility.yul\":3228:3229   */\n              dup3\n                /* \"#utility.yul\":3225:3233   */\n              lt\n                /* \"#utility.yul\":3222:3224   */\n              iszero\n              tag_96\n              jumpi\n                /* \"#utility.yul\":3236:3254   */\n              tag_97\n              tag_92\n              jump\t// in\n            tag_97:\n                /* \"#utility.yul\":3222:3224   */\n            tag_96:\n                /* \"#utility.yul\":3281:3282   */\n              dup3\n                /* \"#utility.yul\":3278:3279   */\n              dup3\n                /* \"#utility.yul\":3274:3283   */\n              sub\n                /* \"#utility.yul\":3266:3283   */\n              swap1\n              pop\n                /* \"#utility.yul\":3143:3289   */\n              swap3\n              swap2\n              pop\n              pop\n              jump\t// out\n                /* \"#utility.yul\":3295:3391   */\n            tag_98:\n              0x00\n                /* \"#utility.yul\":3361:3385   */\n              tag_100\n                /* \"#utility.yul\":3379:3384   */\n              dup3\n                /* \"#utility.yul\":3361:3385   */\n              tag_101\n              jump\t// in\n            tag_100:\n                /* \"#utility.yul\":3350:3385   */\n              swap1\n              pop\n                /* \"#utility.yul\":3340:3391   */\n              swap2\n              swap1\n              pop\n              jump\t// out\n                /* \"#utility.yul\":3397:3501   */\n            tag_102:\n              0x00\n                /* \"#utility.yul\":3471:3495   */\n              tag_104\n                /* \"#utility.yul\":3489:3494   */\n              dup3\n                /* \"#utility.yul\":3471:3495   */\n              tag_101\n              jump\t// in\n            tag_104:\n                /* \"#utility.yul\":3460:3495   */\n              swap1\n              pop\n                /* \"#utility.yul\":3450:3501   */\n              swap2\n              swap1\n              pop\n              jump\t// out\n                /* \"#utility.yul\":3507:3633   */\n            tag_101:\n              0x00\n                /* \"#utility.yul\":3584:3626   */\n              0xffffffffffffffffffffffffffffffffffffffff\n                /* \"#utility.yul\":3577:3582   */\n              dup3\n                /* \"#utility.yul\":3573:3627   */\n              and\n                /* \"#utility.yul\":3562:3627   */\n              swap1\n              pop\n                /* \"#utility.yul\":3552:3633   */\n              swap2\n              swap1\n              pop\n              jump\t// out\n                /* \"#utility.yul\":3639:3716   */\n            tag_80:\n              0x00\n                /* \"#utility.yul\":3705:3710   */\n              dup2\n                /* \"#utility.yul\":3694:3710   */\n              swap1\n              pop\n                /* \"#utility.yul\":3684:3716   */\n              swap2\n              swap1\n              pop\n              jump\t// out\n                /* \"#utility.yul\":3722:4029   */\n            tag_74:\n                /* \"#utility.yul\":3790:3791   */\n              0x00\n                /* \"#utility.yul\":3800:3913   */\n            tag_108:\n                /* \"#utility.yul\":3814:3820   */\n              dup4\n                /* \"#utility.yul\":3811:3812   */\n              dup2\n                /* \"#utility.yul\":3808:3821   */\n              lt\n                /* \"#utility.yul\":3800:3913   */\n              iszero\n              tag_110\n              jumpi\n                /* \"#utility.yul\":3899:3900   */\n              dup1\n                /* \"#utility.yul\":3894:3897   */\n              dup3\n                /* \"#utility.yul\":3890:3901   */\n              add\n                /* \"#utility.yul\":3884:3902   */\n              mload\n                /* \"#utility.yul\":3880:3881   */\n              dup2\n                /* \"#utility.yul\":3875:3878   */\n              dup5\n                /* \"#utility.yul\":3871:3882   */\n              add\n                /* \"#utility.yul\":3864:3903   */\n              mstore\n                /* \"#utility.yul\":3836:3838   */\n              0x20\n                /* \"#utility.yul\":3833:3834   */\n              dup2\n                /* \"#utility.yul\":3829:3839   */\n              add\n                /* \"#utility.yul\":3824:3839   */\n              swap1\n              pop\n                /* \"#utility.yul\":3800:3913   */\n              jump(tag_108)\n            tag_110:\n                /* \"#utility.yul\":3931:3937   */\n              dup4\n                /* \"#utility.yul\":3928:3929   */\n              dup2\n                /* \"#utility.yul\":3925:3938   */\n              gt\n                /* \"#utility.yul\":3922:3924   */\n              iszero\n              tag_111\n              jumpi\n                /* \"#utility.yul\":4011:4012   */\n              0x00\n                /* \"#utility.yul\":4002:4008   */\n              dup5\n                /* \"#utility.yul\":3997:4000   */\n              dup5\n                /* \"#utility.yul\":3993:4009   */\n              add\n                /* \"#utility.yul\":3986:4013   */\n              mstore\n                /* \"#utility.yul\":3922:3924   */\n            tag_111:\n                /* \"#utility.yul\":3771:4029   */\n              pop\n              pop\n              pop\n              pop\n              jump\t// out\n                /* \"#utility.yul\":4035:4355   */\n            tag_35:\n              0x00\n                /* \"#utility.yul\":4116:4117   */\n              0x02\n                /* \"#utility.yul\":4110:4114   */\n              dup3\n                /* \"#utility.yul\":4106:4118   */\n              div\n                /* \"#utility.yul\":4096:4118   */\n              swap1\n              pop\n                /* \"#utility.yul\":4163:4164   */\n              0x01\n                /* \"#utility.yul\":4157:4161   */\n              dup3\n                /* \"#utility.yul\":4153:4165   */\n              and\n                /* \"#utility.yul\":4184:4202   */\n              dup1\n                /* \"#utility.yul\":4174:4176   */\n              tag_113\n              jumpi\n                /* \"#utility.yul\":4240:4244   */\n              0x7f\n                /* \"#utility.yul\":4232:4238   */\n              dup3\n                /* \"#utility.yul\":4228:4245   */\n              and\n                /* \"#utility.yul\":4218:4245   */\n              swap2\n              pop\n                /* \"#utility.yul\":4174:4176   */\n            tag_113:\n                /* \"#utility.yul\":4302:4304   */\n              0x20\n                /* \"#utility.yul\":4294:4300   */\n              dup3\n                /* \"#utility.yul\":4291:4305   */\n              lt\n                /* \"#utility.yul\":4271:4289   */\n              dup2\n                /* \"#utility.yul\":4268:4306   */\n              eq\n                /* \"#utility.yul\":4265:4267   */\n              iszero\n              tag_114\n              jumpi\n                /* \"#utility.yul\":4321:4339   */\n              tag_115\n              tag_116\n              jump\t// in\n            tag_115:\n                /* \"#utility.yul\":4265:4267   */\n            tag_114:\n                /* \"#utility.yul\":4086:4355   */\n              pop\n              swap2\n              swap1\n              pop\n              jump\t// out\n                /* \"#utility.yul\":4361:4541   */\n            tag_92:\n                /* \"#utility.yul\":4409:4486   */\n              0x4e487b7100000000000000000000000000000000000000000000000000000000\n                /* \"#utility.yul\":4406:4407   */\n              0x00\n                /* \"#utility.yul\":4399:4487   */\n              mstore\n                /* \"#utility.yul\":4506:4510   */\n              0x11\n                /* \"#utility.yul\":4503:4504   */\n              0x04\n                /* \"#utility.yul\":4496:4511   */\n              mstore\n                /* \"#utility.yul\":4530:4534   */\n              0x24\n                /* \"#utility.yul\":4527:4528   */\n              0x00\n                /* \"#utility.yul\":4520:4535   */\n              revert\n                /* \"#utility.yul\":4547:4727   */\n            tag_116:\n                /* \"#utility.yul\":4595:4672   */\n              0x4e487b7100000000000000000000000000000000000000000000000000000000\n                /* \"#utility.yul\":4592:4593   */\n              0x00\n                /* \"#utility.yul\":4585:4673   */\n              mstore\n                /* \"#utility.yul\":4692:4696   */\n              0x22\n                /* \"#utility.yul\":4689:4690   */\n              0x04\n                /* \"#utility.yul\":4682:4697   */\n              mstore\n                /* \"#utility.yul\":4716:4720   */\n              0x24\n                /* \"#utility.yul\":4713:4714   */\n              0x00\n                /* \"#utility.yul\":4706:4721   */\n              revert\n                /* \"#utility.yul\":4733:4835   */\n            tag_76:\n              0x00\n                /* \"#utility.yul\":4825:4827   */\n              0x1f\n                /* \"#utility.yul\":4821:4828   */\n              not\n                /* \"#utility.yul\":4816:4818   */\n              0x1f\n                /* \"#utility.yul\":4809:4814   */\n              dup4\n                /* \"#utility.yul\":4805:4819   */\n              add\n                /* \"#utility.yul\":4801:4829   */\n              and\n                /* \"#utility.yul\":4791:4829   */\n              swap1\n              pop\n                /* \"#utility.yul\":4781:4835   */\n              swap2\n              swap1\n              pop\n              jump\t// out\n                /* \"#utility.yul\":4841:4963   */\n            tag_48:\n                /* \"#utility.yul\":4914:4938   */\n              tag_121\n                /* \"#utility.yul\":4932:4937   */\n              dup2\n                /* \"#utility.yul\":4914:4938   */\n              tag_98\n              jump\t// in\n            tag_121:\n                /* \"#utility.yul\":4907:4912   */\n              dup2\n                /* \"#utility.yul\":4904:4939   */\n              eq\n                /* \"#utility.yul\":4894:4896   */\n              tag_122\n              jumpi\n                /* \"#utility.yul\":4953:4954   */\n              0x00\n                /* \"#utility.yul\":4950:4951   */\n              dup1\n                /* \"#utility.yul\":4943:4955   */\n              revert\n                /* \"#utility.yul\":4894:4896   */\n            tag_122:\n                /* \"#utility.yul\":4884:4963   */\n              pop\n              jump\t// out\n                /* \"#utility.yul\":4969:5107   */\n            tag_52:\n                /* \"#utility.yul\":5050:5082   */\n              tag_124\n                /* \"#utility.yul\":5076:5081   */\n              dup2\n                /* \"#utility.yul\":5050:5082   */\n              tag_102\n              jump\t// in\n            tag_124:\n                /* \"#utility.yul\":5043:5048   */\n              dup2\n                /* \"#utility.yul\":5040:5083   */\n              eq\n                /* \"#utility.yul\":5030:5032   */\n              tag_125\n              jumpi\n                /* \"#utility.yul\":5097:5098   */\n              0x00\n                /* \"#utility.yul\":5094:5095   */\n              dup1\n                /* \"#utility.yul\":5087:5099   */\n              revert\n                /* \"#utility.yul\":5030:5032   */\n            tag_125:\n                /* \"#utility.yul\":5020:5107   */\n              pop\n              jump\t// out\n                /* \"#utility.yul\":5113:5235   */\n            tag_56:\n                /* \"#utility.yul\":5186:5210   */\n              tag_127\n                /* \"#utility.yul\":5204:5209   */\n              dup2\n                /* \"#utility.yul\":5186:5210   */\n              tag_80\n              jump\t// in\n            tag_127:\n                /* \"#utility.yul\":5179:5184   */\n              dup2\n                /* \"#utility.yul\":5176:5211   */\n              eq\n                /* \"#utility.yul\":5166:5168   */\n              tag_128\n              jumpi\n                /* \"#utility.yul\":5225:5226   */\n              0x00\n                /* \"#utility.yul\":5222:5223   */\n              dup1\n                /* \"#utility.yul\":5215:5227   */\n              revert\n                /* \"#utility.yul\":5166:5168   */\n            tag_128:\n                /* \"#utility.yul\":5156:5235   */\n              pop\n              jump\t// out\n\n            auxdata: 0xa26469706673582212208a8f8ec32dca65399513da12ed97d35f2986d10b4896710008b04e0179160a1364736f6c63430008000033\n        }\n    }\n\n    auxdata: 0xa26469706673582212201114707f2856ab515d2ca1683e54c40457af2fa56ebed2debdb3926625ca733764736f6c63430008000033\n}\n",
				"bytecode": {
					"linkReferences": {},
					"object": "608060405234801561001057600080fd5b50610e66806100206000396000f3fe608060405234801561001057600080fd5b506004361061002b5760003560e01c80633894e51614610030575b600080fd5b61004a60048036038101906100459190610114565b61004c565b005b81338260405161005b90610089565b610067939291906101bf565b604051809103906000f080158015610083573d6000803e3d6000fd5b50505050565b610ae1806200035083390190565b60006100aa6100a58461022e565b6101fd565b9050828152602081018484840111156100c257600080fd5b6100cd8482856102b6565b509392505050565b600082601f8301126100e657600080fd5b81356100f6848260208601610097565b91505092915050565b60008135905061010e81610338565b92915050565b6000806040838503121561012757600080fd5b600083013567ffffffffffffffff81111561014157600080fd5b61014d858286016100d5565b925050602061015e858286016100ff565b9150509250929050565b6101718161027a565b82525050565b60006101828261025e565b61018c8185610269565b935061019c8185602086016102c5565b6101a581610327565b840191505092915050565b6101b9816102ac565b82525050565b600060608201905081810360008301526101d98186610177565b90506101e86020830185610168565b6101f560408301846101b0565b949350505050565b6000604051905081810181811067ffffffffffffffff82111715610224576102236102f8565b5b8060405250919050565b600067ffffffffffffffff821115610249576102486102f8565b5b601f19601f8301169050602081019050919050565b600081519050919050565b600082825260208201905092915050565b60006102858261028c565b9050919050565b600073ffffffffffffffffffffffffffffffffffffffff82169050919050565b6000819050919050565b82818337600083830152505050565b60005b838110156102e35780820151818401526020810190506102c8565b838111156102f2576000848401525b50505050565b7f4e487b7100000000000000000000000000000000000000000000000000000000600052604160045260246000fd5b6000601f19601f8301169050919050565b610341816102ac565b811461034c57600080fd5b5056fe60806040523480156200001157600080fd5b5060405162000ae138038062000ae18339818101604052810190620000379190620001ed565b82600090805190602001906200004f9291906200009d565b5080600160008473ffffffffffffffffffffffffffffffffffffffff1673ffffffffffffffffffffffffffffffffffffffff16815260200190815260200160002081905550505050620003ff565b828054620000ab9062000337565b90600052602060002090601f016020900481019282620000cf57600085556200011b565b82601f10620000ea57805160ff19168380011785556200011b565b828001600101855582156200011b579182015b828111156200011a578251825591602001919060010190620000fd565b5b5090506200012a91906200012e565b5090565b5b80821115620001495760008160009055506001016200012f565b5090565b6000620001646200015e8462000290565b6200025c565b9050828152602081018484840111156200017d57600080fd5b6200018a84828562000301565b509392505050565b600081519050620001a381620003cb565b92915050565b600082601f830112620001bb57600080fd5b8151620001cd8482602086016200014d565b91505092915050565b600081519050620001e781620003e5565b92915050565b6000806000606084860312156200020357600080fd5b600084015167ffffffffffffffff8111156200021e57600080fd5b6200022c86828701620001a9565b93505060206200023f8682870162000192565b92505060406200025286828701620001d6565b9150509250925092565b6000604051905081810181811067ffffffffffffffff821117156200028657620002856200039c565b5b8060405250919050565b600067ffffffffffffffff821115620002ae57620002ad6200039c565b5b601f19601f8301169050602081019050919050565b6000620002d082620002d7565b9050919050565b600073ffffffffffffffffffffffffffffffffffffffff82169050919050565b6000819050919050565b60005b838110156200032157808201518184015260208101905062000304565b8381111562000331576000848401525b50505050565b600060028204905060018216806200035057607f821691505b602082108114156200036757620003666200036d565b5b50919050565b7f4e487b7100000000000000000000000000000000000000000000000000000000600052602260045260246000fd5b7f4e487b7100000000000000000000000000000000000000000000000000000000600052604160045260246000fd5b620003d681620002c3565b8114620003e257600080fd5b50565b620003f081620002f7565b8114620003fc57600080fd5b50565b6106d2806200040f6000396000f3fe6080604052600436106100425760003560e01c8062f55d9d1461009e57806306fdde03146100c757806327e235e3146100f2578063a9059cbb1461012f57610099565b3661009957600a3461005491906104a7565b600160003373ffffffffffffffffffffffffffffffffffffffff1673ffffffffffffffffffffffffffffffffffffffff16815260200190815260200160002081905550005b600080fd5b3480156100aa57600080fd5b506100c560048036038101906100c091906103a1565b610158565b005b3480156100d357600080fd5b506100dc610171565b6040516100e9919061044e565b60405180910390f35b3480156100fe57600080fd5b5061011960048036038101906101149190610378565b6101ff565b6040516101269190610470565b60405180910390f35b34801561013b57600080fd5b50610156600480360381019061015191906103ca565b610217565b005b8073ffffffffffffffffffffffffffffffffffffffff16ff5b6000805461017e906105b6565b80601f01602080910402602001604051908101604052809291908181526020018280546101aa906105b6565b80156101f75780601f106101cc576101008083540402835291602001916101f7565b820191906000526020600020905b8154815290600101906020018083116101da57829003601f168201915b505050505081565b60016020528060005260406000206000915090505481565b80600160003373ffffffffffffffffffffffffffffffffffffffff1673ffffffffffffffffffffffffffffffffffffffff16815260200190815260200160002054101561026357600080fd5b80600160003373ffffffffffffffffffffffffffffffffffffffff1673ffffffffffffffffffffffffffffffffffffffff168152602001908152602001600020546102ae9190610501565b600160003373ffffffffffffffffffffffffffffffffffffffff1673ffffffffffffffffffffffffffffffffffffffff1681526020019081526020016000208190555080600160008473ffffffffffffffffffffffffffffffffffffffff1673ffffffffffffffffffffffffffffffffffffffff168152602001908152602001600020819055505050565b60008135905061034881610657565b92915050565b60008135905061035d8161066e565b92915050565b60008135905061037281610685565b92915050565b60006020828403121561038a57600080fd5b600061039884828501610339565b91505092915050565b6000602082840312156103b357600080fd5b60006103c18482850161034e565b91505092915050565b600080604083850312156103dd57600080fd5b60006103eb85828601610339565b92505060206103fc85828601610363565b9150509250929050565b60006104118261048b565b61041b8185610496565b935061042b818560208601610583565b61043481610646565b840191505092915050565b61044881610579565b82525050565b600060208201905081810360008301526104688184610406565b905092915050565b6000602082019050610485600083018461043f565b92915050565b600081519050919050565b600082825260208201905092915050565b60006104b282610579565b91506104bd83610579565b9250817fffffffffffffffffffffffffffffffffffffffffffffffffffffffffffffffff04831182151516156104f6576104f56105e8565b5b828202905092915050565b600061050c82610579565b915061051783610579565b92508282101561052a576105296105e8565b5b828203905092915050565b600061054082610559565b9050919050565b600061055282610559565b9050919050565b600073ffffffffffffffffffffffffffffffffffffffff82169050919050565b6000819050919050565b60005b838110156105a1578082015181840152602081019050610586565b838111156105b0576000848401525b50505050565b600060028204905060018216806105ce57607f821691505b602082108114156105e2576105e1610617565b5b50919050565b7f4e487b7100000000000000000000000000000000000000000000000000000000600052601160045260246000fd5b7f4e487b7100000000000000000000000000000000000000000000000000000000600052602260045260246000fd5b6000601f19601f8301169050919050565b61066081610535565b811461066b57600080fd5b50565b61067781610547565b811461068257600080fd5b50565b61068e81610579565b811461069957600080fd5b5056fea26469706673582212208a8f8ec32dca65399513da12ed97d35f2986d10b4896710008b04e0179160a1364736f6c63430008000033a26469706673582212201114707f2856ab515d2ca1683e54c40457af2fa56ebed2debdb3926625ca733764736f6c63430008000033",
					"opcodes": "PUSH1 0x80 PUSH1 0x40 MSTORE CALLVALUE DUP1 ISZERO PUSH2 0x10 JUMPI PUSH1 0x0 DUP1 REVERT JUMPDEST POP PUSH2 0xE66 DUP1 PUSH2 0x20 PUSH1 0x0 CODECOPY PUSH1 0x0 RETURN INVALID PUSH1 0x80 PUSH1 0x40 MSTORE CALLVALUE DUP1 ISZERO PUSH2 0x10 JUMPI PUSH1 0x0 DUP1 REVERT JUMPDEST POP PUSH1 0x4 CALLDATASIZE LT PUSH2 0x2B JUMPI PUSH1 0x0 CALLDATALOAD PUSH1 0xE0 SHR DUP1 PUSH4 0x3894E516 EQ PUSH2 0x30 JUMPI JUMPDEST PUSH1 0x0 DUP1 REVERT JUMPDEST PUSH2 0x4A PUSH1 0x4 DUP1 CALLDATASIZE SUB DUP2 ADD SWAP1 PUSH2 0x45 SWAP2 SWAP1 PUSH2 0x114 JUMP JUMPDEST PUSH2 0x4C JUMP JUMPDEST STOP JUMPDEST DUP2 CALLER DUP3 PUSH1 0x40 MLOAD PUSH2 0x5B SWAP1 PUSH2 0x89 JUMP JUMPDEST PUSH2 0x67 SWAP4 SWAP3 SWAP2 SWAP1 PUSH2 0x1BF JUMP JUMPDEST PUSH1 0x40 MLOAD DUP1 SWAP2 SUB SWAP1 PUSH1 0x0 CREATE DUP1 ISZERO DUP1 ISZERO PUSH2 0x83 JUMPI RETURNDATASIZE PUSH1 0x0 DUP1 RETURNDATACOPY RETURNDATASIZE PUSH1 0x0 REVERT JUMPDEST POP POP POP POP JUMP JUMPDEST PUSH2 0xAE1 DUP1 PUSH3 0x350 DUP4 CODECOPY ADD SWAP1 JUMP JUMPDEST PUSH1 0x0 PUSH2 0xAA PUSH2 0xA5 DUP5 PUSH2 0x22E JUMP JUMPDEST PUSH2 0x1FD JUMP JUMPDEST SWAP1 POP DUP3 DUP2 MSTORE PUSH1 0x20 DUP2 ADD DUP5 DUP5 DUP5 ADD GT ISZERO PUSH2 0xC2 JUMPI PUSH1 0x0 DUP1 REVERT JUMPDEST PUSH2 0xCD DUP5 DUP3 DUP6 PUSH2 0x2B6 JUMP JUMPDEST POP SWAP4 SWAP3 POP POP POP JUMP JUMPDEST PUSH1 0x0 DUP3 PUSH1 0x1F DUP4 ADD SLT PUSH2 0xE6 JUMPI PUSH1 0x0 DUP1 REVERT JUMPDEST DUP2 CALLDATALOAD PUSH2 0xF6 DUP5 DUP3 PUSH1 0x20 DUP7 ADD PUSH2 0x97 JUMP JUMPDEST SWAP2 POP POP SWAP3 SWAP2 POP POP JUMP JUMPDEST PUSH1 0x0 DUP2 CALLDATALOAD SWAP1 POP PUSH2 0x10E DUP2 PUSH2 0x338 JUMP JUMPDEST SWAP3 SWAP2 POP POP JUMP JUMPDEST PUSH1 0x0 DUP1 PUSH1 0x40 DUP4 DUP6 SUB SLT ISZERO PUSH2 0x127 JUMPI PUSH1 0x0 DUP1 REVERT JUMPDEST PUSH1 0x0 DUP4 ADD CALLDATALOAD PUSH8 0xFFFFFFFFFFFFFFFF DUP2 GT ISZERO PUSH2 0x141 JUMPI PUSH1 0x0 DUP1 REVERT JUMPDEST PUSH2 0x14D DUP6 DUP3 DUP7 ADD PUSH2 0xD5 JUMP JUMPDEST SWAP3 POP POP PUSH1 0x20 PUSH2 0x15E DUP6 DUP3 DUP7 ADD PUSH2 0xFF JUMP JUMPDEST SWAP2 POP POP SWAP3 POP SWAP3 SWAP1 POP JUMP JUMPDEST PUSH2 0x171 DUP2 PUSH2 0x27A JUMP JUMPDEST DUP3 MSTORE POP POP JUMP JUMPDEST PUSH1 0x0 PUSH2 0x182 DUP3 PUSH2 0x25E JUMP JUMPDEST PUSH2 0x18C DUP2 DUP6 PUSH2 0x269 JUMP JUMPDEST SWAP4 POP PUSH2 0x19C DUP2 DUP6 PUSH1 0x20 DUP7 ADD PUSH2 0x2C5 JUMP JUMPDEST PUSH2 0x1A5 DUP2 PUSH2 0x327 JUMP JUMPDEST DUP5 ADD SWAP2 POP POP SWAP3 SWAP2 POP POP JUMP JUMPDEST PUSH2 0x1B9 DUP2 PUSH2 0x2AC JUMP JUMPDEST DUP3 MSTORE POP POP JUMP JUMPDEST PUSH1 0x0 PUSH1 0x60 DUP3 ADD SWAP1 POP DUP2 DUP2 SUB PUSH1 0x0 DUP4 ADD MSTORE PUSH2 0x1D9 DUP2 DUP7 PUSH2 0x177 JUMP JUMPDEST SWAP1 POP PUSH2 0x1E8 PUSH1 0x20 DUP4 ADD DUP6 PUSH2 0x168 JUMP JUMPDEST PUSH2 0x1F5 PUSH1 0x40 DUP4 ADD DUP5 PUSH2 0x1B0 JUMP JUMPDEST SWAP5 SWAP4 POP POP POP POP JUMP JUMPDEST PUSH1 0x0 PUSH1 0x40 MLOAD SWAP1 POP DUP2 DUP2 ADD DUP2 DUP2 LT PUSH8 0xFFFFFFFFFFFFFFFF DUP3 GT OR ISZERO PUSH2 0x224 JUMPI PUSH2 0x223 PUSH2 0x2F8 JUMP JUMPDEST JUMPDEST DUP1 PUSH1 0x40 MSTORE POP SWAP2 SWAP1 POP JUMP JUMPDEST PUSH1 0x0 PUSH8 0xFFFFFFFFFFFFFFFF DUP3 GT ISZERO PUSH2 0x249 JUMPI PUSH2 0x248 PUSH2 0x2F8 JUMP JUMPDEST JUMPDEST PUSH1 0x1F NOT PUSH1 0x1F DUP4 ADD AND SWAP1 POP PUSH1 0x20 DUP2 ADD SWAP1 POP SWAP2 SWAP1 POP JUMP JUMPDEST PUSH1 0x0 DUP2 MLOAD SWAP1 POP SWAP2 SWAP1 POP JUMP JUMPDEST PUSH1 0x0 DUP3 DUP3 MSTORE PUSH1 0x20 DUP3 ADD SWAP1 POP SWAP3 SWAP2 POP POP JUMP JUMPDEST PUSH1 0x0 PUSH2 0x285 DUP3 PUSH2 0x28C JUMP JUMPDEST SWAP1 POP SWAP2 SWAP1 POP JUMP JUMPDEST PUSH1 0x0 PUSH20 0xFFFFFFFFFFFFFFFFFFFFFFFFFFFFFFFFFFFFFFFF DUP3 AND SWAP1 POP SWAP2 SWAP1 POP JUMP JUMPDEST PUSH1 0x0 DUP2 SWAP1 POP SWAP2 SWAP1 POP JUMP JUMPDEST DUP3 DUP2 DUP4 CALLDATACOPY PUSH1 0x0 DUP4 DUP4 ADD MSTORE POP POP POP JUMP JUMPDEST PUSH1 0x0 JUMPDEST DUP4 DUP2 LT ISZERO PUSH2 0x2E3 JUMPI DUP1 DUP3 ADD MLOAD DUP2 DUP5 ADD MSTORE PUSH1 0x20 DUP2 ADD SWAP1 POP PUSH2 0x2C8 JUMP JUMPDEST DUP4 DUP2 GT ISZERO PUSH2 0x2F2 JUMPI PUSH1 0x0 DUP5 DUP5 ADD MSTORE JUMPDEST POP POP POP POP JUMP JUMPDEST PUSH32 0x4E487B7100000000000000000000000000000000000000000000000000000000 PUSH1 0x0 MSTORE PUSH1 0x41 PUSH1 0x4 MSTORE PUSH1 0x24 PUSH1 0x0 REVERT JUMPDEST PUSH1 0x0 PUSH1 0x1F NOT PUSH1 0x1F DUP4 ADD AND SWAP1 POP SWAP2 SWAP1 POP JUMP JUMPDEST PUSH2 0x341 DUP2 PUSH2 0x2AC JUMP JUMPDEST DUP2 EQ PUSH2 0x34C JUMPI PUSH1 0x0 DUP1 REVERT JUMPDEST POP JUMP INVALID PUSH1 0x80 PUSH1 0x40 MSTORE CALLVALUE DUP1 ISZERO PUSH3 0x11 JUMPI PUSH1 0x0 DUP1 REVERT JUMPDEST POP PUSH1 0x40 MLOAD PUSH3 0xAE1 CODESIZE SUB DUP1 PUSH3 0xAE1 DUP4 CODECOPY DUP2 DUP2 ADD PUSH1 0x40 MSTORE DUP2 ADD SWAP1 PUSH3 0x37 SWAP2 SWAP1 PUSH3 0x1ED JUMP JUMPDEST DUP3 PUSH1 0x0 SWAP1 DUP1 MLOAD SWAP1 PUSH1 0x20 ADD SWAP1 PUSH3 0x4F SWAP3 SWAP2 SWAP1 PUSH3 0x9D JUMP JUMPDEST POP DUP1 PUSH1 0x1 PUSH1 0x0 DUP5 PUSH20 0xFFFFFFFFFFFFFFFFFFFFFFFFFFFFFFFFFFFFFFFF AND PUSH20 0xFFFFFFFFFFFFFFFFFFFFFFFFFFFFFFFFFFFFFFFF AND DUP2 MSTORE PUSH1 0x20 ADD SWAP1 DUP2 MSTORE PUSH1 0x20 ADD PUSH1 0x0 KECCAK256 DUP2 SWAP1 SSTORE POP POP POP POP PUSH3 0x3FF JUMP JUMPDEST DUP3 DUP1 SLOAD PUSH3 0xAB SWAP1 PUSH3 0x337 JUMP JUMPDEST SWAP1 PUSH1 0x0 MSTORE PUSH1 0x20 PUSH1 0x0 KECCAK256 SWAP1 PUSH1 0x1F ADD PUSH1 0x20 SWAP1 DIV DUP2 ADD SWAP3 DUP3 PUSH3 0xCF JUMPI PUSH1 0x0 DUP6 SSTORE PUSH3 0x11B JUMP JUMPDEST DUP3 PUSH1 0x1F LT PUSH3 0xEA JUMPI DUP1 MLOAD PUSH1 0xFF NOT AND DUP4 DUP1 ADD OR DUP6 SSTORE PUSH3 0x11B JUMP JUMPDEST DUP3 DUP1 ADD PUSH1 0x1 ADD DUP6 SSTORE DUP3 ISZERO PUSH3 0x11B JUMPI SWAP2 DUP3 ADD JUMPDEST DUP3 DUP2 GT ISZERO PUSH3 0x11A JUMPI DUP3 MLOAD DUP3 SSTORE SWAP2 PUSH1 0x20 ADD SWAP2 SWAP1 PUSH1 0x1 ADD SWAP1 PUSH3 0xFD JUMP JUMPDEST JUMPDEST POP SWAP1 POP PUSH3 0x12A SWAP2 SWAP1 PUSH3 0x12E JUMP JUMPDEST POP SWAP1 JUMP JUMPDEST JUMPDEST DUP1 DUP3 GT ISZERO PUSH3 0x149 JUMPI PUSH1 0x0 DUP2 PUSH1 0x0 SWAP1 SSTORE POP PUSH1 0x1 ADD PUSH3 0x12F JUMP JUMPDEST POP SWAP1 JUMP JUMPDEST PUSH1 0x0 PUSH3 0x164 PUSH3 0x15E DUP5 PUSH3 0x290 JUMP JUMPDEST PUSH3 0x25C JUMP JUMPDEST SWAP1 POP DUP3 DUP2 MSTORE PUSH1 0x20 DUP2 ADD DUP5 DUP5 DUP5 ADD GT ISZERO PUSH3 0x17D JUMPI PUSH1 0x0 DUP1 REVERT JUMPDEST PUSH3 0x18A DUP5 DUP3 DUP6 PUSH3 0x301 JUMP JUMPDEST POP SWAP4 SWAP3 POP POP POP JUMP JUMPDEST PUSH1 0x0 DUP2 MLOAD SWAP1 POP PUSH3 0x1A3 DUP2 PUSH3 0x3CB JUMP JUMPDEST SWAP3 SWAP2 POP POP JUMP JUMPDEST PUSH1 0x0 DUP3 PUSH1 0x1F DUP4 ADD SLT PUSH3 0x1BB JUMPI PUSH1 0x0 DUP1 REVERT JUMPDEST DUP2 MLOAD PUSH3 0x1CD DUP5 DUP3 PUSH1 0x20 DUP7 ADD PUSH3 0x14D JUMP JUMPDEST SWAP2 POP POP SWAP3 SWAP2 POP POP JUMP JUMPDEST PUSH1 0x0 DUP2 MLOAD SWAP1 POP PUSH3 0x1E7 DUP2 PUSH3 0x3E5 JUMP JUMPDEST SWAP3 SWAP2 POP POP JUMP JUMPDEST PUSH1 0x0 DUP1 PUSH1 0x0 PUSH1 0x60 DUP5 DUP7 SUB SLT ISZERO PUSH3 0x203 JUMPI PUSH1 0x0 DUP1 REVERT JUMPDEST PUSH1 0x0 DUP5 ADD MLOAD PUSH8 0xFFFFFFFFFFFFFFFF DUP2 GT ISZERO PUSH3 0x21E JUMPI PUSH1 0x0 DUP1 REVERT JUMPDEST PUSH3 0x22C DUP7 DUP3 DUP8 ADD PUSH3 0x1A9 JUMP JUMPDEST SWAP4 POP POP PUSH1 0x20 PUSH3 0x23F DUP7 DUP3 DUP8 ADD PUSH3 0x192 JUMP JUMPDEST SWAP3 POP POP PUSH1 0x40 PUSH3 0x252 DUP7 DUP3 DUP8 ADD PUSH3 0x1D6 JUMP JUMPDEST SWAP2 POP POP SWAP3 POP SWAP3 POP SWAP3 JUMP JUMPDEST PUSH1 0x0 PUSH1 0x40 MLOAD SWAP1 POP DUP2 DUP2 ADD DUP2 DUP2 LT PUSH8 0xFFFFFFFFFFFFFFFF DUP3 GT OR ISZERO PUSH3 0x286 JUMPI PUSH3 0x285 PUSH3 0x39C JUMP JUMPDEST JUMPDEST DUP1 PUSH1 0x40 MSTORE POP SWAP2 SWAP1 POP JUMP JUMPDEST PUSH1 0x0 PUSH8 0xFFFFFFFFFFFFFFFF DUP3 GT ISZERO PUSH3 0x2AE JUMPI PUSH3 0x2AD PUSH3 0x39C JUMP JUMPDEST JUMPDEST PUSH1 0x1F NOT PUSH1 0x1F DUP4 ADD AND SWAP1 POP PUSH1 0x20 DUP2 ADD SWAP1 POP SWAP2 SWAP1 POP JUMP JUMPDEST PUSH1 0x0 PUSH3 0x2D0 DUP3 PUSH3 0x2D7 JUMP JUMPDEST SWAP1 POP SWAP2 SWAP1 POP JUMP JUMPDEST PUSH1 0x0 PUSH20 0xFFFFFFFFFFFFFFFFFFFFFFFFFFFFFFFFFFFFFFFF DUP3 AND SWAP1 POP SWAP2 SWAP1 POP JUMP JUMPDEST PUSH1 0x0 DUP2 SWAP1 POP SWAP2 SWAP1 POP JUMP JUMPDEST PUSH1 0x0 JUMPDEST DUP4 DUP2 LT ISZERO PUSH3 0x321 JUMPI DUP1 DUP3 ADD MLOAD DUP2 DUP5 ADD MSTORE PUSH1 0x20 DUP2 ADD SWAP1 POP PUSH3 0x304 JUMP JUMPDEST DUP4 DUP2 GT ISZERO PUSH3 0x331 JUMPI PUSH1 0x0 DUP5 DUP5 ADD MSTORE JUMPDEST POP POP POP POP JUMP JUMPDEST PUSH1 0x0 PUSH1 0x2 DUP3 DIV SWAP1 POP PUSH1 0x1 DUP3 AND DUP1 PUSH3 0x350 JUMPI PUSH1 0x7F DUP3 AND SWAP2 POP JUMPDEST PUSH1 0x20 DUP3 LT DUP2 EQ ISZERO PUSH3 0x367 JUMPI PUSH3 0x366 PUSH3 0x36D JUMP JUMPDEST JUMPDEST POP SWAP2 SWAP1 POP JUMP JUMPDEST PUSH32 0x4E487B7100000000000000000000000000000000000000000000000000000000 PUSH1 0x0 MSTORE PUSH1 0x22 PUSH1 0x4 MSTORE PUSH1 0x24 PUSH1 0x0 REVERT JUMPDEST PUSH32 0x4E487B7100000000000000000000000000000000000000000000000000000000 PUSH1 0x0 MSTORE PUSH1 0x41 PUSH1 0x4 MSTORE PUSH1 0x24 PUSH1 0x0 REVERT JUMPDEST PUSH3 0x3D6 DUP2 PUSH3 0x2C3 JUMP JUMPDEST DUP2 EQ PUSH3 0x3E2 JUMPI PUSH1 0x0 DUP1 REVERT JUMPDEST POP JUMP JUMPDEST PUSH3 0x3F0 DUP2 PUSH3 0x2F7 JUMP JUMPDEST DUP2 EQ PUSH3 0x3FC JUMPI PUSH1 0x0 DUP1 REVERT JUMPDEST POP JUMP JUMPDEST PUSH2 0x6D2 DUP1 PUSH3 0x40F PUSH1 0x0 CODECOPY PUSH1 0x0 RETURN INVALID PUSH1 0x80 PUSH1 0x40 MSTORE PUSH1 0x4 CALLDATASIZE LT PUSH2 0x42 JUMPI PUSH1 0x0 CALLDATALOAD PUSH1 0xE0 SHR DUP1 PUSH3 0xF55D9D EQ PUSH2 0x9E JUMPI DUP1 PUSH4 0x6FDDE03 EQ PUSH2 0xC7 JUMPI DUP1 PUSH4 0x27E235E3 EQ PUSH2 0xF2 JUMPI DUP1 PUSH4 0xA9059CBB EQ PUSH2 0x12F JUMPI PUSH2 0x99 JUMP JUMPDEST CALLDATASIZE PUSH2 0x99 JUMPI PUSH1 0xA CALLVALUE PUSH2 0x54 SWAP2 SWAP1 PUSH2 0x4A7 JUMP JUMPDEST PUSH1 0x1 PUSH1 0x0 CALLER PUSH20 0xFFFFFFFFFFFFFFFFFFFFFFFFFFFFFFFFFFFFFFFF AND PUSH20 0xFFFFFFFFFFFFFFFFFFFFFFFFFFFFFFFFFFFFFFFF AND DUP2 MSTORE PUSH1 0x20 ADD SWAP1 DUP2 MSTORE PUSH1 0x20 ADD PUSH1 0x0 KECCAK256 DUP2 SWAP1 SSTORE POP STOP JUMPDEST PUSH1 0x0 DUP1 REVERT JUMPDEST CALLVALUE DUP1 ISZERO PUSH2 0xAA JUMPI PUSH1 0x0 DUP1 REVERT JUMPDEST POP PUSH2 0xC5 PUSH1 0x4 DUP1 CALLDATASIZE SUB DUP2 ADD SWAP1 PUSH2 0xC0 SWAP2 SWAP1 PUSH2 0x3A1 JUMP JUMPDEST PUSH2 0x158 JUMP JUMPDEST STOP JUMPDEST CALLVALUE DUP1 ISZERO PUSH2 0xD3 JUMPI PUSH1 0x0 DUP1 REVERT JUMPDEST POP PUSH2 0xDC PUSH2 0x171 JUMP JUMPDEST PUSH1 0x40 MLOAD PUSH2 0xE9 SWAP2 SWAP1 PUSH2 0x44E JUMP JUMPDEST PUSH1 0x40 MLOAD DUP1 SWAP2 SUB SWAP1 RETURN JUMPDEST CALLVALUE DUP1 ISZERO PUSH2 0xFE JUMPI PUSH1 0x0 DUP1 REVERT JUMPDEST POP PUSH2 0x119 PUSH1 0x4 DUP1 CALLDATASIZE SUB DUP2 ADD SWAP1 PUSH2 0x114 SWAP2 SWAP1 PUSH2 0x378 JUMP JUMPDEST PUSH2 0x1FF JUMP JUMPDEST PUSH1 0x40 MLOAD PUSH2 0x126 SWAP2 SWAP1 PUSH2 0x470 JUMP JUMPDEST PUSH1 0x40 MLOAD DUP1 SWAP2 SUB SWAP1 RETURN JUMPDEST CALLVALUE DUP1 ISZERO PUSH2 0x13B JUMPI PUSH1 0x0 DUP1 REVERT JUMPDEST POP PUSH2 0x156 PUSH1 0x4 DUP1 CALLDATASIZE SUB DUP2 ADD SWAP1 PUSH2 0x151 SWAP2 SWAP1 PUSH2 0x3CA JUMP JUMPDEST PUSH2 0x217 JUMP JUMPDEST STOP JUMPDEST DUP1 PUSH20 0xFFFFFFFFFFFFFFFFFFFFFFFFFFFFFFFFFFFFFFFF AND SELFDESTRUCT JUMPDEST PUSH1 0x0 DUP1 SLOAD PUSH2 0x17E SWAP1 PUSH2 0x5B6 JUMP JUMPDEST DUP1 PUSH1 0x1F ADD PUSH1 0x20 DUP1 SWAP2 DIV MUL PUSH1 0x20 ADD PUSH1 0x40 MLOAD SWAP1 DUP2 ADD PUSH1 0x40 MSTORE DUP1 SWAP3 SWAP2 SWAP1 DUP2 DUP2 MSTORE PUSH1 0x20 ADD DUP3 DUP1 SLOAD PUSH2 0x1AA SWAP1 PUSH2 0x5B6 JUMP JUMPDEST DUP1 ISZERO PUSH2 0x1F7 JUMPI DUP1 PUSH1 0x1F LT PUSH2 0x1CC JUMPI PUSH2 0x100 DUP1 DUP4 SLOAD DIV MUL DUP4 MSTORE SWAP2 PUSH1 0x20 ADD SWAP2 PUSH2 0x1F7 JUMP JUMPDEST DUP3 ADD SWAP2 SWAP1 PUSH1 0x0 MSTORE PUSH1 0x20 PUSH1 0x0 KECCAK256 SWAP1 JUMPDEST DUP2 SLOAD DUP2 MSTORE SWAP1 PUSH1 0x1 ADD SWAP1 PUSH1 0x20 ADD DUP1 DUP4 GT PUSH2 0x1DA JUMPI DUP3 SWAP1 SUB PUSH1 0x1F AND DUP3 ADD SWAP2 JUMPDEST POP POP POP POP POP DUP2 JUMP JUMPDEST PUSH1 0x1 PUSH1 0x20 MSTORE DUP1 PUSH1 0x0 MSTORE PUSH1 0x40 PUSH1 0x0 KECCAK256 PUSH1 0x0 SWAP2 POP SWAP1 POP SLOAD DUP2 JUMP JUMPDEST DUP1 PUSH1 0x1 PUSH1 0x0 CALLER PUSH20 0xFFFFFFFFFFFFFFFFFFFFFFFFFFFFFFFFFFFFFFFF AND PUSH20 0xFFFFFFFFFFFFFFFFFFFFFFFFFFFFFFFFFFFFFFFF AND DUP2 MSTORE PUSH1 0x20 ADD SWAP1 DUP2 MSTORE PUSH1 0x20 ADD PUSH1 0x0 KECCAK256 SLOAD LT ISZERO PUSH2 0x263 JUMPI PUSH1 0x0 DUP1 REVERT JUMPDEST DUP1 PUSH1 0x1 PUSH1 0x0 CALLER PUSH20 0xFFFFFFFFFFFFFFFFFFFFFFFFFFFFFFFFFFFFFFFF AND PUSH20 0xFFFFFFFFFFFFFFFFFFFFFFFFFFFFFFFFFFFFFFFF AND DUP2 MSTORE PUSH1 0x20 ADD SWAP1 DUP2 MSTORE PUSH1 0x20 ADD PUSH1 0x0 KECCAK256 SLOAD PUSH2 0x2AE SWAP2 SWAP1 PUSH2 0x501 JUMP JUMPDEST PUSH1 0x1 PUSH1 0x0 CALLER PUSH20 0xFFFFFFFFFFFFFFFFFFFFFFFFFFFFFFFFFFFFFFFF AND PUSH20 0xFFFFFFFFFFFFFFFFFFFFFFFFFFFFFFFFFFFFFFFF AND DUP2 MSTORE PUSH1 0x20 ADD SWAP1 DUP2 MSTORE PUSH1 0x20 ADD PUSH1 0x0 KECCAK256 DUP2 SWAP1 SSTORE POP DUP1 PUSH1 0x1 PUSH1 0x0 DUP5 PUSH20 0xFFFFFFFFFFFFFFFFFFFFFFFFFFFFFFFFFFFFFFFF AND PUSH20 0xFFFFFFFFFFFFFFFFFFFFFFFFFFFFFFFFFFFFFFFF AND DUP2 MSTORE PUSH1 0x20 ADD SWAP1 DUP2 MSTORE PUSH1 0x20 ADD PUSH1 0x0 KECCAK256 DUP2 SWAP1 SSTORE POP POP POP JUMP JUMPDEST PUSH1 0x0 DUP2 CALLDATALOAD SWAP1 POP PUSH2 0x348 DUP2 PUSH2 0x657 JUMP JUMPDEST SWAP3 SWAP2 POP POP JUMP JUMPDEST PUSH1 0x0 DUP2 CALLDATALOAD SWAP1 POP PUSH2 0x35D DUP2 PUSH2 0x66E JUMP JUMPDEST SWAP3 SWAP2 POP POP JUMP JUMPDEST PUSH1 0x0 DUP2 CALLDATALOAD SWAP1 POP PUSH2 0x372 DUP2 PUSH2 0x685 JUMP JUMPDEST SWAP3 SWAP2 POP POP JUMP JUMPDEST PUSH1 0x0 PUSH1 0x20 DUP3 DUP5 SUB SLT ISZERO PUSH2 0x38A JUMPI PUSH1 0x0 DUP1 REVERT JUMPDEST PUSH1 0x0 PUSH2 0x398 DUP5 DUP3 DUP6 ADD PUSH2 0x339 JUMP JUMPDEST SWAP2 POP POP SWAP3 SWAP2 POP POP JUMP JUMPDEST PUSH1 0x0 PUSH1 0x20 DUP3 DUP5 SUB SLT ISZERO PUSH2 0x3B3 JUMPI PUSH1 0x0 DUP1 REVERT JUMPDEST PUSH1 0x0 PUSH2 0x3C1 DUP5 DUP3 DUP6 ADD PUSH2 0x34E JUMP JUMPDEST SWAP2 POP POP SWAP3 SWAP2 POP POP JUMP JUMPDEST PUSH1 0x0 DUP1 PUSH1 0x40 DUP4 DUP6 SUB SLT ISZERO PUSH2 0x3DD JUMPI PUSH1 0x0 DUP1 REVERT JUMPDEST PUSH1 0x0 PUSH2 0x3EB DUP6 DUP3 DUP7 ADD PUSH2 0x339 JUMP JUMPDEST SWAP3 POP POP PUSH1 0x20 PUSH2 0x3FC DUP6 DUP3 DUP7 ADD PUSH2 0x363 JUMP JUMPDEST SWAP2 POP POP SWAP3 POP SWAP3 SWAP1 POP JUMP JUMPDEST PUSH1 0x0 PUSH2 0x411 DUP3 PUSH2 0x48B JUMP JUMPDEST PUSH2 0x41B DUP2 DUP6 PUSH2 0x496 JUMP JUMPDEST SWAP4 POP PUSH2 0x42B DUP2 DUP6 PUSH1 0x20 DUP7 ADD PUSH2 0x583 JUMP JUMPDEST PUSH2 0x434 DUP2 PUSH2 0x646 JUMP JUMPDEST DUP5 ADD SWAP2 POP POP SWAP3 SWAP2 POP POP JUMP JUMPDEST PUSH2 0x448 DUP2 PUSH2 0x579 JUMP JUMPDEST DUP3 MSTORE POP POP JUMP JUMPDEST PUSH1 0x0 PUSH1 0x20 DUP3 ADD SWAP1 POP DUP2 DUP2 SUB PUSH1 0x0 DUP4 ADD MSTORE PUSH2 0x468 DUP2 DUP5 PUSH2 0x406 JUMP JUMPDEST SWAP1 POP SWAP3 SWAP2 POP POP JUMP JUMPDEST PUSH1 0x0 PUSH1 0x20 DUP3 ADD SWAP1 POP PUSH2 0x485 PUSH1 0x0 DUP4 ADD DUP5 PUSH2 0x43F JUMP JUMPDEST SWAP3 SWAP2 POP POP JUMP JUMPDEST PUSH1 0x0 DUP2 MLOAD SWAP1 POP SWAP2 SWAP1 POP JUMP JUMPDEST PUSH1 0x0 DUP3 DUP3 MSTORE PUSH1 0x20 DUP3 ADD SWAP1 POP SWAP3 SWAP2 POP POP JUMP JUMPDEST PUSH1 0x0 PUSH2 0x4B2 DUP3 PUSH2 0x579 JUMP JUMPDEST SWAP2 POP PUSH2 0x4BD DUP4 PUSH2 0x579 JUMP JUMPDEST SWAP3 POP DUP2 PUSH32 0xFFFFFFFFFFFFFFFFFFFFFFFFFFFFFFFFFFFFFFFFFFFFFFFFFFFFFFFFFFFFFFFF DIV DUP4 GT DUP3 ISZERO ISZERO AND ISZERO PUSH2 0x4F6 JUMPI PUSH2 0x4F5 PUSH2 0x5E8 JUMP JUMPDEST JUMPDEST DUP3 DUP3 MUL SWAP1 POP SWAP3 SWAP2 POP POP JUMP JUMPDEST PUSH1 0x0 PUSH2 0x50C DUP3 PUSH2 0x579 JUMP JUMPDEST SWAP2 POP PUSH2 0x517 DUP4 PUSH2 0x579 JUMP JUMPDEST SWAP3 POP DUP3 DUP3 LT ISZERO PUSH2 0x52A JUMPI PUSH2 0x529 PUSH2 0x5E8 JUMP JUMPDEST JUMPDEST DUP3 DUP3 SUB SWAP1 POP SWAP3 SWAP2 POP POP JUMP JUMPDEST PUSH1 0x0 PUSH2 0x540 DUP3 PUSH2 0x559 JUMP JUMPDEST SWAP1 POP SWAP2 SWAP1 POP JUMP JUMPDEST PUSH1 0x0 PUSH2 0x552 DUP3 PUSH2 0x559 JUMP JUMPDEST SWAP1 POP SWAP2 SWAP1 POP JUMP JUMPDEST PUSH1 0x0 PUSH20 0xFFFFFFFFFFFFFFFFFFFFFFFFFFFFFFFFFFFFFFFF DUP3 AND SWAP1 POP SWAP2 SWAP1 POP JUMP JUMPDEST PUSH1 0x0 DUP2 SWAP1 POP SWAP2 SWAP1 POP JUMP JUMPDEST PUSH1 0x0 JUMPDEST DUP4 DUP2 LT ISZERO PUSH2 0x5A1 JUMPI DUP1 DUP3 ADD MLOAD DUP2 DUP5 ADD MSTORE PUSH1 0x20 DUP2 ADD SWAP1 POP PUSH2 0x586 JUMP JUMPDEST DUP4 DUP2 GT ISZERO PUSH2 0x5B0 JUMPI PUSH1 0x0 DUP5 DUP5 ADD MSTORE JUMPDEST POP POP POP POP JUMP JUMPDEST PUSH1 0x0 PUSH1 0x2 DUP3 DIV SWAP1 POP PUSH1 0x1 DUP3 AND DUP1 PUSH2 0x5CE JUMPI PUSH1 0x7F DUP3 AND SWAP2 POP JUMPDEST PUSH1 0x20 DUP3 LT DUP2 EQ ISZERO PUSH2 0x5E2 JUMPI PUSH2 0x5E1 PUSH2 0x617 JUMP JUMPDEST JUMPDEST POP SWAP2 SWAP1 POP JUMP JUMPDEST PUSH32 0x4E487B7100000000000000000000000000000000000000000000000000000000 PUSH1 0x0 MSTORE PUSH1 0x11 PUSH1 0x4 MSTORE PUSH1 0x24 PUSH1 0x0 REVERT JUMPDEST PUSH32 0x4E487B7100000000000000000000000000000000000000000000000000000000 PUSH1 0x0 MSTORE PUSH1 0x22 PUSH1 0x4 MSTORE PUSH1 0x24 PUSH1 0x0 REVERT JUMPDEST PUSH1 0x0 PUSH1 0x1F NOT PUSH1 0x1F DUP4 ADD AND SWAP1 POP SWAP2 SWAP1 POP JUMP JUMPDEST PUSH2 0x660 DUP2 PUSH2 0x535 JUMP JUMPDEST DUP2 EQ PUSH2 0x66B JUMPI PUSH1 0x0 DUP1 REVERT JUMPDEST POP JUMP JUMPDEST PUSH2 0x677 DUP2 PUSH2 0x547 JUMP JUMPDEST DUP2 EQ PUSH2 0x682 JUMPI PUSH1 0x0 DUP1 REVERT JUMPDEST POP JUMP JUMPDEST PUSH2 0x68E DUP2 PUSH2 0x579 JUMP JUMPDEST DUP2 EQ PUSH2 0x699 JUMPI PUSH1 0x0 DUP1 REVERT JUMPDEST POP JUMP INVALID LOG2 PUSH5 0x6970667358 0x22 SLT KECCAK256 DUP11 DUP16 DUP15 0xC3 0x2D 0xCA PUSH6 0x399513DA12ED SWAP8 0xD3 0x5F 0x29 DUP7 0xD1 SIGNEXTEND 0x48 SWAP7 PUSH18 0x8B04E0179160A1364736F6C6343000800 STOP CALLER LOG2 PUSH5 0x6970667358 0x22 SLT KECCAK256 GT EQ PUSH17 0x7F2856AB515D2CA1683E54C40457AF2FA5 PUSH15 0xBED2DEBDB3926625CA733764736F6C PUSH4 0x43000800 STOP CALLER "
				},
				"gasEstimates": {
					"creation": {
						"codeDepositCost": "737200",
						"executionCost": "773",
						"totalCost": "737973"
					},
					"external": {
						"generateToken(string,uint256)": "infinite"
					}
				},
				"methodIdentifiers": {
					"generateToken(string,uint256)": "3894e516"
				}
			},
			"storageLayout": {
				"storage": [],
				"types": null
			},
			"userdoc": {
				"kind": "user",
				"methods": {},
				"version": 1
			}
		}
	}
}