{
	"contracts/Dev.sol": {
		"Dev": {
			"abi": [
				{
					"inputs": [
						{
							"internalType": "address",
							"name": "sender",
							"type": "address"
						}
					],
					"name": "recover",
					"outputs": [
						{
							"internalType": "address",
							"name": "",
							"type": "address"
						}
					],
					"stateMutability": "pure",
					"type": "function"
				}
			],
			"devdoc": {
				"kind": "dev",
				"methods": {},
				"version": 1
			},
			"evm": {
				"assembly": "    /* \"contracts/Dev.sol\":314:592  contract Dev {\r... */\n  mstore(0x40, 0x80)\n  callvalue\n  dup1\n  iszero\n  tag_1\n  jumpi\n  0x00\n  dup1\n  revert\ntag_1:\n  pop\n  dataSize(sub_0)\n  dup1\n  dataOffset(sub_0)\n  0x00\n  codecopy\n  0x00\n  return\nstop\n\nsub_0: assembly {\n        /* \"contracts/Dev.sol\":314:592  contract Dev {\r... */\n      mstore(0x40, 0x80)\n      callvalue\n      dup1\n      iszero\n      tag_1\n      jumpi\n      0x00\n      dup1\n      revert\n    tag_1:\n      pop\n      jumpi(tag_2, lt(calldatasize, 0x04))\n      shr(0xe0, calldataload(0x00))\n      dup1\n      0x0cd865ec\n      eq\n      tag_3\n      jumpi\n    tag_2:\n      0x00\n      dup1\n      revert\n        /* \"contracts/Dev.sol\":334:589  function recover(address sender) external pure returns (address) {\r... */\n    tag_3:\n      tag_4\n      0x04\n      dup1\n      calldatasize\n      sub\n      dup2\n      add\n      swap1\n      tag_5\n      swap2\n      swap1\n      tag_6\n      jump\t// in\n    tag_5:\n      tag_7\n      jump\t// in\n    tag_4:\n      mload(0x40)\n      tag_8\n      swap2\n      swap1\n      tag_9\n      jump\t// in\n    tag_8:\n      mload(0x40)\n      dup1\n      swap2\n      sub\n      swap1\n      return\n    tag_7:\n        /* \"contracts/Dev.sol\":390:397  address */\n      0x00\n        /* \"contracts/Dev.sol\":410:422  bytes32 hash */\n      dup1\n        /* \"contracts/Dev.sol\":459:463  0xd6 */\n      0xd6\n        /* \"contracts/Dev.sol\":452:464  bytes1(0xd6) */\n      0xf8\n      shl\n        /* \"contracts/Dev.sol\":473:477  0x94 */\n      0x94\n        /* \"contracts/Dev.sol\":466:478  bytes1(0x94) */\n      0xf8\n      shl\n        /* \"contracts/Dev.sol\":480:486  sender */\n      dup5\n        /* \"contracts/Dev.sol\":495:499  0x01 */\n      0x01\n        /* \"contracts/Dev.sol\":488:500  bytes1(0x01) */\n      0xf8\n      shl\n        /* \"contracts/Dev.sol\":435:501  abi.encodePacked(bytes1(0xd6), bytes1(0x94), sender, bytes1(0x01)) */\n      add(0x20, mload(0x40))\n      tag_11\n      swap5\n      swap4\n      swap3\n      swap2\n      swap1\n      tag_12\n      jump\t// in\n    tag_11:\n      mload(0x40)\n      0x20\n      dup2\n      dup4\n      sub\n      sub\n      dup2\n      mstore\n      swap1\n      0x40\n      mstore\n        /* \"contracts/Dev.sol\":425:502  keccak256(abi.encodePacked(bytes1(0xd6), bytes1(0x94), sender, bytes1(0x01))) */\n      dup1\n      mload\n      swap1\n      0x20\n      add\n      keccak256\n        /* \"contracts/Dev.sol\":410:502  bytes32 hash = keccak256(abi.encodePacked(bytes1(0xd6), bytes1(0x94), sender, bytes1(0x01))) */\n      swap1\n      pop\n        /* \"contracts/Dev.sol\":513:525  address addr */\n      0x00\n        /* \"contracts/Dev.sol\":552:556  hash */\n      dup2\n        /* \"contracts/Dev.sol\":544:557  uint256(hash) */\n      0x00\n      shr\n        /* \"contracts/Dev.sol\":513:559  address addr = address(uint160(uint256(hash))) */\n      swap1\n      pop\n        /* \"contracts/Dev.sol\":577:581  addr */\n      dup1\n        /* \"contracts/Dev.sol\":570:581  return addr */\n      swap3\n      pop\n      pop\n      pop\n        /* \"contracts/Dev.sol\":334:589  function recover(address sender) external pure returns (address) {\r... */\n      swap2\n      swap1\n      pop\n      jump\t// out\n        /* \"#utility.yul\":7:146   */\n    tag_14:\n      0x00\n        /* \"#utility.yul\":91:97   */\n      dup2\n        /* \"#utility.yul\":78:98   */\n      calldataload\n        /* \"#utility.yul\":69:98   */\n      swap1\n      pop\n        /* \"#utility.yul\":107:140   */\n      tag_16\n        /* \"#utility.yul\":134:139   */\n      dup2\n        /* \"#utility.yul\":107:140   */\n      tag_17\n      jump\t// in\n    tag_16:\n        /* \"#utility.yul\":59:146   */\n      swap3\n      swap2\n      pop\n      pop\n      jump\t// out\n        /* \"#utility.yul\":152:414   */\n    tag_6:\n      0x00\n        /* \"#utility.yul\":260:262   */\n      0x20\n        /* \"#utility.yul\":248:257   */\n      dup3\n        /* \"#utility.yul\":239:246   */\n      dup5\n        /* \"#utility.yul\":235:258   */\n      sub\n        /* \"#utility.yul\":231:263   */\n      slt\n        /* \"#utility.yul\":228:230   */\n      iszero\n      tag_19\n      jumpi\n        /* \"#utility.yul\":276:277   */\n      0x00\n        /* \"#utility.yul\":273:274   */\n      dup1\n        /* \"#utility.yul\":266:278   */\n      revert\n        /* \"#utility.yul\":228:230   */\n    tag_19:\n        /* \"#utility.yul\":319:320   */\n      0x00\n        /* \"#utility.yul\":344:397   */\n      tag_20\n        /* \"#utility.yul\":389:396   */\n      dup5\n        /* \"#utility.yul\":380:386   */\n      dup3\n        /* \"#utility.yul\":369:378   */\n      dup6\n        /* \"#utility.yul\":365:387   */\n      add\n        /* \"#utility.yul\":344:397   */\n      tag_14\n      jump\t// in\n    tag_20:\n        /* \"#utility.yul\":334:397   */\n      swap2\n      pop\n        /* \"#utility.yul\":290:407   */\n      pop\n        /* \"#utility.yul\":218:414   */\n      swap3\n      swap2\n      pop\n      pop\n      jump\t// out\n        /* \"#utility.yul\":420:538   */\n    tag_21:\n        /* \"#utility.yul\":507:531   */\n      tag_23\n        /* \"#utility.yul\":525:530   */\n      dup2\n        /* \"#utility.yul\":507:531   */\n      tag_24\n      jump\t// in\n    tag_23:\n        /* \"#utility.yul\":502:505   */\n      dup3\n        /* \"#utility.yul\":495:532   */\n      mstore\n        /* \"#utility.yul\":485:538   */\n      pop\n      pop\n      jump\t// out\n        /* \"#utility.yul\":544:701   */\n    tag_25:\n        /* \"#utility.yul\":649:694   */\n      tag_27\n        /* \"#utility.yul\":669:693   */\n      tag_28\n        /* \"#utility.yul\":687:692   */\n      dup3\n        /* \"#utility.yul\":669:693   */\n      tag_24\n      jump\t// in\n    tag_28:\n        /* \"#utility.yul\":649:694   */\n      tag_29\n      jump\t// in\n    tag_27:\n        /* \"#utility.yul\":644:647   */\n      dup3\n        /* \"#utility.yul\":637:695   */\n      mstore\n        /* \"#utility.yul\":627:701   */\n      pop\n      pop\n      jump\t// out\n        /* \"#utility.yul\":707:860   */\n    tag_30:\n        /* \"#utility.yul\":810:853   */\n      tag_32\n        /* \"#utility.yul\":829:852   */\n      tag_33\n        /* \"#utility.yul\":846:851   */\n      dup3\n        /* \"#utility.yul\":829:852   */\n      tag_34\n      jump\t// in\n    tag_33:\n        /* \"#utility.yul\":810:853   */\n      tag_35\n      jump\t// in\n    tag_32:\n        /* \"#utility.yul\":805:808   */\n      dup3\n        /* \"#utility.yul\":798:854   */\n      mstore\n        /* \"#utility.yul\":788:860   */\n      pop\n      pop\n      jump\t// out\n        /* \"#utility.yul\":866:1530   */\n    tag_12:\n      0x00\n        /* \"#utility.yul\":1071:1144   */\n      tag_37\n        /* \"#utility.yul\":1140:1143   */\n      dup3\n        /* \"#utility.yul\":1131:1137   */\n      dup8\n        /* \"#utility.yul\":1071:1144   */\n      tag_30\n      jump\t// in\n    tag_37:\n        /* \"#utility.yul\":1169:1170   */\n      0x01\n        /* \"#utility.yul\":1164:1167   */\n      dup3\n        /* \"#utility.yul\":1160:1171   */\n      add\n        /* \"#utility.yul\":1153:1171   */\n      swap2\n      pop\n        /* \"#utility.yul\":1181:1254   */\n      tag_38\n        /* \"#utility.yul\":1250:1253   */\n      dup3\n        /* \"#utility.yul\":1241:1247   */\n      dup7\n        /* \"#utility.yul\":1181:1254   */\n      tag_30\n      jump\t// in\n    tag_38:\n        /* \"#utility.yul\":1279:1280   */\n      0x01\n        /* \"#utility.yul\":1274:1277   */\n      dup3\n        /* \"#utility.yul\":1270:1281   */\n      add\n        /* \"#utility.yul\":1263:1281   */\n      swap2\n      pop\n        /* \"#utility.yul\":1291:1366   */\n      tag_39\n        /* \"#utility.yul\":1362:1365   */\n      dup3\n        /* \"#utility.yul\":1353:1359   */\n      dup6\n        /* \"#utility.yul\":1291:1366   */\n      tag_25\n      jump\t// in\n    tag_39:\n        /* \"#utility.yul\":1391:1393   */\n      0x14\n        /* \"#utility.yul\":1386:1389   */\n      dup3\n        /* \"#utility.yul\":1382:1394   */\n      add\n        /* \"#utility.yul\":1375:1394   */\n      swap2\n      pop\n        /* \"#utility.yul\":1404:1477   */\n      tag_40\n        /* \"#utility.yul\":1473:1476   */\n      dup3\n        /* \"#utility.yul\":1464:1470   */\n      dup5\n        /* \"#utility.yul\":1404:1477   */\n      tag_30\n      jump\t// in\n    tag_40:\n        /* \"#utility.yul\":1502:1503   */\n      0x01\n        /* \"#utility.yul\":1497:1500   */\n      dup3\n        /* \"#utility.yul\":1493:1504   */\n      add\n        /* \"#utility.yul\":1486:1504   */\n      swap2\n      pop\n        /* \"#utility.yul\":1521:1524   */\n      dup2\n        /* \"#utility.yul\":1514:1524   */\n      swap1\n      pop\n        /* \"#utility.yul\":1060:1530   */\n      swap6\n      swap5\n      pop\n      pop\n      pop\n      pop\n      pop\n      jump\t// out\n        /* \"#utility.yul\":1536:1758   */\n    tag_9:\n      0x00\n        /* \"#utility.yul\":1667:1669   */\n      0x20\n        /* \"#utility.yul\":1656:1665   */\n      dup3\n        /* \"#utility.yul\":1652:1670   */\n      add\n        /* \"#utility.yul\":1644:1670   */\n      swap1\n      pop\n        /* \"#utility.yul\":1680:1751   */\n      tag_42\n        /* \"#utility.yul\":1748:1749   */\n      0x00\n        /* \"#utility.yul\":1737:1746   */\n      dup4\n        /* \"#utility.yul\":1733:1750   */\n      add\n        /* \"#utility.yul\":1724:1730   */\n      dup5\n        /* \"#utility.yul\":1680:1751   */\n      tag_21\n      jump\t// in\n    tag_42:\n        /* \"#utility.yul\":1634:1758   */\n      swap3\n      swap2\n      pop\n      pop\n      jump\t// out\n        /* \"#utility.yul\":1764:1860   */\n    tag_24:\n      0x00\n        /* \"#utility.yul\":1830:1854   */\n      tag_44\n        /* \"#utility.yul\":1848:1853   */\n      dup3\n        /* \"#utility.yul\":1830:1854   */\n      tag_45\n      jump\t// in\n    tag_44:\n        /* \"#utility.yul\":1819:1854   */\n      swap1\n      pop\n        /* \"#utility.yul\":1809:1860   */\n      swap2\n      swap1\n      pop\n      jump\t// out\n        /* \"#utility.yul\":1866:2015   */\n    tag_34:\n      0x00\n        /* \"#utility.yul\":1942:2008   */\n      0xff00000000000000000000000000000000000000000000000000000000000000\n        /* \"#utility.yul\":1935:1940   */\n      dup3\n        /* \"#utility.yul\":1931:2009   */\n      and\n        /* \"#utility.yul\":1920:2009   */\n      swap1\n      pop\n        /* \"#utility.yul\":1910:2015   */\n      swap2\n      swap1\n      pop\n      jump\t// out\n        /* \"#utility.yul\":2021:2147   */\n    tag_45:\n      0x00\n        /* \"#utility.yul\":2098:2140   */\n      0xffffffffffffffffffffffffffffffffffffffff\n        /* \"#utility.yul\":2091:2096   */\n      dup3\n        /* \"#utility.yul\":2087:2141   */\n      and\n        /* \"#utility.yul\":2076:2141   */\n      swap1\n      pop\n        /* \"#utility.yul\":2066:2147   */\n      swap2\n      swap1\n      pop\n      jump\t// out\n        /* \"#utility.yul\":2153:2253   */\n    tag_29:\n      0x00\n        /* \"#utility.yul\":2221:2247   */\n      tag_49\n        /* \"#utility.yul\":2241:2246   */\n      dup3\n        /* \"#utility.yul\":2221:2247   */\n      tag_50\n      jump\t// in\n    tag_49:\n        /* \"#utility.yul\":2210:2247   */\n      swap1\n      pop\n        /* \"#utility.yul\":2200:2253   */\n      swap2\n      swap1\n      pop\n      jump\t// out\n        /* \"#utility.yul\":2259:2337   */\n    tag_35:\n      0x00\n        /* \"#utility.yul\":2326:2331   */\n      dup2\n        /* \"#utility.yul\":2315:2331   */\n      swap1\n      pop\n        /* \"#utility.yul\":2305:2337   */\n      swap2\n      swap1\n      pop\n      jump\t// out\n        /* \"#utility.yul\":2343:2437   */\n    tag_50:\n      0x00\n        /* \"#utility.yul\":2411:2431   */\n      tag_53\n        /* \"#utility.yul\":2425:2430   */\n      dup3\n        /* \"#utility.yul\":2411:2431   */\n      tag_54\n      jump\t// in\n    tag_53:\n        /* \"#utility.yul\":2400:2431   */\n      swap1\n      pop\n        /* \"#utility.yul\":2390:2437   */\n      swap2\n      swap1\n      pop\n      jump\t// out\n        /* \"#utility.yul\":2443:2537   */\n    tag_54:\n      0x00\n        /* \"#utility.yul\":2524:2529   */\n      dup2\n        /* \"#utility.yul\":2520:2522   */\n      0x60\n        /* \"#utility.yul\":2516:2530   */\n      shl\n        /* \"#utility.yul\":2495:2530   */\n      swap1\n      pop\n        /* \"#utility.yul\":2485:2537   */\n      swap2\n      swap1\n      pop\n      jump\t// out\n        /* \"#utility.yul\":2543:2665   */\n    tag_17:\n        /* \"#utility.yul\":2616:2640   */\n      tag_57\n        /* \"#utility.yul\":2634:2639   */\n      dup2\n        /* \"#utility.yul\":2616:2640   */\n      tag_24\n      jump\t// in\n    tag_57:\n        /* \"#utility.yul\":2609:2614   */\n      dup2\n        /* \"#utility.yul\":2606:2641   */\n      eq\n        /* \"#utility.yul\":2596:2598   */\n      tag_58\n      jumpi\n        /* \"#utility.yul\":2655:2656   */\n      0x00\n        /* \"#utility.yul\":2652:2653   */\n      dup1\n        /* \"#utility.yul\":2645:2657   */\n      revert\n        /* \"#utility.yul\":2596:2598   */\n    tag_58:\n        /* \"#utility.yul\":2586:2665   */\n      pop\n      jump\t// out\n\n    auxdata: 0xa264697066735822122020689cb5dc1451ee06a74c7bb978cdc55c55b6ea4ddcfa72d18b05ec7043732664736f6c63430008000033\n}\n",
				"bytecode": {
					"linkReferences": {},
					"object": "608060405234801561001057600080fd5b5061027a806100206000396000f3fe608060405234801561001057600080fd5b506004361061002b5760003560e01c80630cd865ec14610030575b600080fd5b61004a600480360381019061004591906100c5565b610060565b6040516100579190610179565b60405180910390f35b60008060d660f81b609460f81b84600160f81b604051602001610086949392919061012b565b60405160208183030381529060405280519060200120905060008160001c90508092505050919050565b6000813590506100bf8161022d565b92915050565b6000602082840312156100d757600080fd5b60006100e5848285016100b0565b91505092915050565b6100f781610194565b82525050565b61010e61010982610194565b6101f2565b82525050565b610125610120826101a6565b610204565b82525050565b60006101378287610114565b6001820191506101478286610114565b60018201915061015782856100fd565b6014820191506101678284610114565b60018201915081905095945050505050565b600060208201905061018e60008301846100ee565b92915050565b600061019f826101d2565b9050919050565b60007fff0000000000000000000000000000000000000000000000000000000000000082169050919050565b600073ffffffffffffffffffffffffffffffffffffffff82169050919050565b60006101fd8261020e565b9050919050565b6000819050919050565b600061021982610220565b9050919050565b60008160601b9050919050565b61023681610194565b811461024157600080fd5b5056fea264697066735822122020689cb5dc1451ee06a74c7bb978cdc55c55b6ea4ddcfa72d18b05ec7043732664736f6c63430008000033",
					"opcodes": "PUSH1 0x80 PUSH1 0x40 MSTORE CALLVALUE DUP1 ISZERO PUSH2 0x10 JUMPI PUSH1 0x0 DUP1 REVERT JUMPDEST POP PUSH2 0x27A DUP1 PUSH2 0x20 PUSH1 0x0 CODECOPY PUSH1 0x0 RETURN INVALID PUSH1 0x80 PUSH1 0x40 MSTORE CALLVALUE DUP1 ISZERO PUSH2 0x10 JUMPI PUSH1 0x0 DUP1 REVERT JUMPDEST POP PUSH1 0x4 CALLDATASIZE LT PUSH2 0x2B JUMPI PUSH1 0x0 CALLDATALOAD PUSH1 0xE0 SHR DUP1 PUSH4 0xCD865EC EQ PUSH2 0x30 JUMPI JUMPDEST PUSH1 0x0 DUP1 REVERT JUMPDEST PUSH2 0x4A PUSH1 0x4 DUP1 CALLDATASIZE SUB DUP2 ADD SWAP1 PUSH2 0x45 SWAP2 SWAP1 PUSH2 0xC5 JUMP JUMPDEST PUSH2 0x60 JUMP JUMPDEST PUSH1 0x40 MLOAD PUSH2 0x57 SWAP2 SWAP1 PUSH2 0x179 JUMP JUMPDEST PUSH1 0x40 MLOAD DUP1 SWAP2 SUB SWAP1 RETURN JUMPDEST PUSH1 0x0 DUP1 PUSH1 0xD6 PUSH1 0xF8 SHL PUSH1 0x94 PUSH1 0xF8 SHL DUP5 PUSH1 0x1 PUSH1 0xF8 SHL PUSH1 0x40 MLOAD PUSH1 0x20 ADD PUSH2 0x86 SWAP5 SWAP4 SWAP3 SWAP2 SWAP1 PUSH2 0x12B JUMP JUMPDEST PUSH1 0x40 MLOAD PUSH1 0x20 DUP2 DUP4 SUB SUB DUP2 MSTORE SWAP1 PUSH1 0x40 MSTORE DUP1 MLOAD SWAP1 PUSH1 0x20 ADD KECCAK256 SWAP1 POP PUSH1 0x0 DUP2 PUSH1 0x0 SHR SWAP1 POP DUP1 SWAP3 POP POP POP SWAP2 SWAP1 POP JUMP JUMPDEST PUSH1 0x0 DUP2 CALLDATALOAD SWAP1 POP PUSH2 0xBF DUP2 PUSH2 0x22D JUMP JUMPDEST SWAP3 SWAP2 POP POP JUMP JUMPDEST PUSH1 0x0 PUSH1 0x20 DUP3 DUP5 SUB SLT ISZERO PUSH2 0xD7 JUMPI PUSH1 0x0 DUP1 REVERT JUMPDEST PUSH1 0x0 PUSH2 0xE5 DUP5 DUP3 DUP6 ADD PUSH2 0xB0 JUMP JUMPDEST SWAP2 POP POP SWAP3 SWAP2 POP POP JUMP JUMPDEST PUSH2 0xF7 DUP2 PUSH2 0x194 JUMP JUMPDEST DUP3 MSTORE POP POP JUMP JUMPDEST PUSH2 0x10E PUSH2 0x109 DUP3 PUSH2 0x194 JUMP JUMPDEST PUSH2 0x1F2 JUMP JUMPDEST DUP3 MSTORE POP POP JUMP JUMPDEST PUSH2 0x125 PUSH2 0x120 DUP3 PUSH2 0x1A6 JUMP JUMPDEST PUSH2 0x204 JUMP JUMPDEST DUP3 MSTORE POP POP JUMP JUMPDEST PUSH1 0x0 PUSH2 0x137 DUP3 DUP8 PUSH2 0x114 JUMP JUMPDEST PUSH1 0x1 DUP3 ADD SWAP2 POP PUSH2 0x147 DUP3 DUP7 PUSH2 0x114 JUMP JUMPDEST PUSH1 0x1 DUP3 ADD SWAP2 POP PUSH2 0x157 DUP3 DUP6 PUSH2 0xFD JUMP JUMPDEST PUSH1 0x14 DUP3 ADD SWAP2 POP PUSH2 0x167 DUP3 DUP5 PUSH2 0x114 JUMP JUMPDEST PUSH1 0x1 DUP3 ADD SWAP2 POP DUP2 SWAP1 POP SWAP6 SWAP5 POP POP POP POP POP JUMP JUMPDEST PUSH1 0x0 PUSH1 0x20 DUP3 ADD SWAP1 POP PUSH2 0x18E PUSH1 0x0 DUP4 ADD DUP5 PUSH2 0xEE JUMP JUMPDEST SWAP3 SWAP2 POP POP JUMP JUMPDEST PUSH1 0x0 PUSH2 0x19F DUP3 PUSH2 0x1D2 JUMP JUMPDEST SWAP1 POP SWAP2 SWAP1 POP JUMP JUMPDEST PUSH1 0x0 PUSH32 0xFF00000000000000000000000000000000000000000000000000000000000000 DUP3 AND SWAP1 POP SWAP2 SWAP1 POP JUMP JUMPDEST PUSH1 0x0 PUSH20 0xFFFFFFFFFFFFFFFFFFFFFFFFFFFFFFFFFFFFFFFF DUP3 AND SWAP1 POP SWAP2 SWAP1 POP JUMP JUMPDEST PUSH1 0x0 PUSH2 0x1FD DUP3 PUSH2 0x20E JUMP JUMPDEST SWAP1 POP SWAP2 SWAP1 POP JUMP JUMPDEST PUSH1 0x0 DUP2 SWAP1 POP SWAP2 SWAP1 POP JUMP JUMPDEST PUSH1 0x0 PUSH2 0x219 DUP3 PUSH2 0x220 JUMP JUMPDEST SWAP1 POP SWAP2 SWAP1 POP JUMP JUMPDEST PUSH1 0x0 DUP2 PUSH1 0x60 SHL SWAP1 POP SWAP2 SWAP1 POP JUMP JUMPDEST PUSH2 0x236 DUP2 PUSH2 0x194 JUMP JUMPDEST DUP2 EQ PUSH2 0x241 JUMPI PUSH1 0x0 DUP1 REVERT JUMPDEST POP JUMP INVALID LOG2 PUSH5 0x6970667358 0x22 SLT KECCAK256 KECCAK256 PUSH9 0x9CB5DC1451EE06A74C PUSH28 0xB978CDC55C55B6EA4DDCFA72D18B05EC7043732664736F6C63430008 STOP STOP CALLER "
				},
				"gasEstimates": {
					"creation": {
						"codeDepositCost": "126800",
						"executionCost": "171",
						"totalCost": "126971"
					},
					"external": {
						"recover(address)": "infinite"
					}
				},
				"methodIdentifiers": {
					"recover(address)": "0cd865ec"
				}
			},
			"storageLayout": {
				"storage": [],
				"types": null
			},
			"userdoc": {
				"kind": "user",
				"methods": {},
				"version": 1
			}
		}
	}
}