{
	"contracts/artifacts/CoinFlipGuess.sol": {
		"CoinFlipGuess": {
			"abi": [
				{
					"inputs": [
						{
							"internalType": "address",
							"name": "_coinFlipAddr",
							"type": "address"
						}
					],
					"name": "coinFlipGuess",
					"outputs": [
						{
							"internalType": "uint256",
							"name": "",
							"type": "uint256"
						}
					],
					"stateMutability": "nonpayable",
					"type": "function"
				},
				{
					"inputs": [],
					"name": "consecutiveWins",
					"outputs": [
						{
							"internalType": "uint256",
							"name": "",
							"type": "uint256"
						}
					],
					"stateMutability": "view",
					"type": "function"
				}
			],
			"devdoc": {
				"kind": "dev",
				"methods": {},
				"version": 1
			},
			"evm": {
				"assembly": "    /* \"contracts/artifacts/CoinFlipGuess.sol\":146:919  contract CoinFlipGuess {... */\n  mstore(0x40, 0x80)\n    /* \"contracts/artifacts/CoinFlipGuess.sol\":209:210  0 */\n  0x00\n    /* \"contracts/artifacts/CoinFlipGuess.sol\":176:210  uint256 public consecutiveWins = 0 */\n  dup1\n  sstore\n    /* \"contracts/artifacts/CoinFlipGuess.sol\":257:334  57896044618658097711785492504343953926634992332820282019728792003956564819968 */\n  0x8000000000000000000000000000000000000000000000000000000000000000\n    /* \"contracts/artifacts/CoinFlipGuess.sol\":240:334  uint256 FACTOR = 57896044618658097711785492504343953926634992332820282019728792003956564819968 */\n  0x02\n  sstore\n    /* \"contracts/artifacts/CoinFlipGuess.sol\":146:919  contract CoinFlipGuess {... */\n  callvalue\n  dup1\n  iszero\n  tag_1\n  jumpi\n  0x00\n  dup1\n  revert\ntag_1:\n  pop\n  dataSize(sub_0)\n  dup1\n  dataOffset(sub_0)\n  0x00\n  codecopy\n  0x00\n  return\nstop\n\nsub_0: assembly {\n        /* \"contracts/artifacts/CoinFlipGuess.sol\":146:919  contract CoinFlipGuess {... */\n      mstore(0x40, 0x80)\n      callvalue\n      dup1\n      iszero\n      tag_1\n      jumpi\n      0x00\n      dup1\n      revert\n    tag_1:\n      pop\n      jumpi(tag_2, lt(calldatasize, 0x04))\n      shr(0xe0, calldataload(0x00))\n      dup1\n      0xc9f71c5b\n      eq\n      tag_3\n      jumpi\n      dup1\n      0xe6f334d7\n      eq\n      tag_4\n      jumpi\n    tag_2:\n      0x00\n      dup1\n      revert\n        /* \"contracts/artifacts/CoinFlipGuess.sol\":343:916  function coinFlipGuess(address _coinFlipAddr) external returns (uint256) {... */\n    tag_3:\n      tag_5\n      0x04\n      dup1\n      calldatasize\n      sub\n      dup2\n      add\n      swap1\n      tag_6\n      swap2\n      swap1\n      tag_7\n      jump\t// in\n    tag_6:\n      tag_8\n      jump\t// in\n    tag_5:\n      mload(0x40)\n      tag_9\n      swap2\n      swap1\n      tag_10\n      jump\t// in\n    tag_9:\n      mload(0x40)\n      dup1\n      swap2\n      sub\n      swap1\n      return\n        /* \"contracts/artifacts/CoinFlipGuess.sol\":176:210  uint256 public consecutiveWins = 0 */\n    tag_4:\n      tag_11\n      tag_12\n      jump\t// in\n    tag_11:\n      mload(0x40)\n      tag_13\n      swap2\n      swap1\n      tag_10\n      jump\t// in\n    tag_13:\n      mload(0x40)\n      dup1\n      swap2\n      sub\n      swap1\n      return\n        /* \"contracts/artifacts/CoinFlipGuess.sol\":343:916  function coinFlipGuess(address _coinFlipAddr) external returns (uint256) {... */\n    tag_8:\n        /* \"contracts/artifacts/CoinFlipGuess.sol\":407:414  uint256 */\n      0x00\n        /* \"contracts/artifacts/CoinFlipGuess.sol\":427:445  uint256 blockValue */\n      dup1\n        /* \"contracts/artifacts/CoinFlipGuess.sol\":481:482  1 */\n      0x01\n        /* \"contracts/artifacts/CoinFlipGuess.sol\":466:478  block.number */\n      number\n        /* \"contracts/artifacts/CoinFlipGuess.sol\":466:482  block.number - 1 */\n      tag_15\n      swap2\n      swap1\n      tag_16\n      jump\t// in\n    tag_15:\n        /* \"contracts/artifacts/CoinFlipGuess.sol\":456:483  blockhash(block.number - 1) */\n      blockhash\n        /* \"contracts/artifacts/CoinFlipGuess.sol\":448:484  uint256(blockhash(block.number - 1)) */\n      0x00\n      shr\n        /* \"contracts/artifacts/CoinFlipGuess.sol\":427:484  uint256 blockValue = uint256(blockhash(block.number - 1)) */\n      swap1\n      pop\n        /* \"contracts/artifacts/CoinFlipGuess.sol\":513:523  blockValue */\n      dup1\n        /* \"contracts/artifacts/CoinFlipGuess.sol\":501:509  lastHash */\n      sload(0x01)\n        /* \"contracts/artifacts/CoinFlipGuess.sol\":501:523  lastHash == blockValue */\n      sub\n        /* \"contracts/artifacts/CoinFlipGuess.sol\":497:558  if (lastHash == blockValue) {... */\n      tag_17\n      jumpi\n        /* \"contracts/artifacts/CoinFlipGuess.sol\":538:546  revert() */\n      0x00\n      dup1\n      revert\n        /* \"contracts/artifacts/CoinFlipGuess.sol\":497:558  if (lastHash == blockValue) {... */\n    tag_17:\n        /* \"contracts/artifacts/CoinFlipGuess.sol\":581:591  blockValue */\n      dup1\n        /* \"contracts/artifacts/CoinFlipGuess.sol\":570:578  lastHash */\n      0x01\n        /* \"contracts/artifacts/CoinFlipGuess.sol\":570:591  lastHash = blockValue */\n      dup2\n      swap1\n      sstore\n      pop\n        /* \"contracts/artifacts/CoinFlipGuess.sol\":602:618  uint256 coinFlip */\n      0x00\n        /* \"contracts/artifacts/CoinFlipGuess.sol\":634:640  FACTOR */\n      sload(0x02)\n        /* \"contracts/artifacts/CoinFlipGuess.sol\":621:631  blockValue */\n      dup3\n        /* \"contracts/artifacts/CoinFlipGuess.sol\":621:640  blockValue / FACTOR */\n      tag_18\n      swap2\n      swap1\n      tag_19\n      jump\t// in\n    tag_18:\n        /* \"contracts/artifacts/CoinFlipGuess.sol\":602:640  uint256 coinFlip = blockValue / FACTOR */\n      swap1\n      pop\n        /* \"contracts/artifacts/CoinFlipGuess.sol\":651:660  bool side */\n      0x00\n        /* \"contracts/artifacts/CoinFlipGuess.sol\":675:676  1 */\n      0x01\n        /* \"contracts/artifacts/CoinFlipGuess.sol\":663:671  coinFlip */\n      dup3\n        /* \"contracts/artifacts/CoinFlipGuess.sol\":663:676  coinFlip == 1 */\n      eq\n        /* \"contracts/artifacts/CoinFlipGuess.sol\":663:691  coinFlip == 1 ? true : false */\n      tag_20\n      jumpi\n        /* \"contracts/artifacts/CoinFlipGuess.sol\":686:691  false */\n      0x00\n        /* \"contracts/artifacts/CoinFlipGuess.sol\":663:691  coinFlip == 1 ? true : false */\n      jump(tag_21)\n    tag_20:\n        /* \"contracts/artifacts/CoinFlipGuess.sol\":679:683  true */\n      0x01\n        /* \"contracts/artifacts/CoinFlipGuess.sol\":663:691  coinFlip == 1 ? true : false */\n    tag_21:\n        /* \"contracts/artifacts/CoinFlipGuess.sol\":651:691  bool side = coinFlip == 1 ? true : false */\n      swap1\n      pop\n        /* \"contracts/artifacts/CoinFlipGuess.sol\":704:716  bool isRight */\n      0x00\n        /* \"contracts/artifacts/CoinFlipGuess.sol\":729:742  _coinFlipAddr */\n      dup6\n        /* \"contracts/artifacts/CoinFlipGuess.sol\":719:748  ICoinFlip(_coinFlipAddr).flip */\n      0xffffffffffffffffffffffffffffffffffffffff\n      and\n      0x1d263f67\n        /* \"contracts/artifacts/CoinFlipGuess.sol\":749:753  side */\n      dup4\n        /* \"contracts/artifacts/CoinFlipGuess.sol\":719:754  ICoinFlip(_coinFlipAddr).flip(side) */\n      mload(0x40)\n      dup3\n      0xffffffff\n      and\n      0xe0\n      shl\n      dup2\n      mstore\n      0x04\n      add\n      tag_22\n      swap2\n      swap1\n      tag_23\n      jump\t// in\n    tag_22:\n      0x20\n      mload(0x40)\n      dup1\n      dup4\n      sub\n      dup2\n      0x00\n      dup8\n      gas\n      call\n      iszero\n      dup1\n      iszero\n      tag_25\n      jumpi\n      returndatasize\n      0x00\n      dup1\n      returndatacopy\n      revert(0x00, returndatasize)\n    tag_25:\n      pop\n      pop\n      pop\n      pop\n      mload(0x40)\n      returndatasize\n      not(0x1f)\n      0x1f\n      dup3\n      add\n      and\n      dup3\n      add\n      dup1\n      0x40\n      mstore\n      pop\n      dup2\n      add\n      swap1\n      tag_26\n      swap2\n      swap1\n      tag_27\n      jump\t// in\n    tag_26:\n        /* \"contracts/artifacts/CoinFlipGuess.sol\":704:754  bool isRight = ICoinFlip(_coinFlipAddr).flip(side) */\n      swap1\n      pop\n        /* \"contracts/artifacts/CoinFlipGuess.sol\":769:776  isRight */\n      dup1\n        /* \"contracts/artifacts/CoinFlipGuess.sol\":765:874  if (isRight) {... */\n      iszero\n      tag_28\n      jumpi\n        /* \"contracts/artifacts/CoinFlipGuess.sol\":793:808  consecutiveWins */\n      0x00\n      dup1\n        /* \"contracts/artifacts/CoinFlipGuess.sol\":793:810  consecutiveWins++ */\n      dup2\n      sload\n      dup1\n      swap3\n      swap2\n      swap1\n      tag_29\n      swap1\n      tag_30\n      jump\t// in\n    tag_29:\n      swap2\n      swap1\n      pop\n      sstore\n      pop\n        /* \"contracts/artifacts/CoinFlipGuess.sol\":765:874  if (isRight) {... */\n      jump(tag_31)\n    tag_28:\n        /* \"contracts/artifacts/CoinFlipGuess.sol\":861:862  0 */\n      0x00\n        /* \"contracts/artifacts/CoinFlipGuess.sol\":843:858  consecutiveWins */\n      dup1\n        /* \"contracts/artifacts/CoinFlipGuess.sol\":843:862  consecutiveWins = 0 */\n      dup2\n      swap1\n      sstore\n      pop\n        /* \"contracts/artifacts/CoinFlipGuess.sol\":765:874  if (isRight) {... */\n    tag_31:\n        /* \"contracts/artifacts/CoinFlipGuess.sol\":893:908  consecutiveWins */\n      sload(0x00)\n        /* \"contracts/artifacts/CoinFlipGuess.sol\":886:908  return consecutiveWins */\n      swap5\n      pop\n      pop\n      pop\n      pop\n      pop\n        /* \"contracts/artifacts/CoinFlipGuess.sol\":343:916  function coinFlipGuess(address _coinFlipAddr) external returns (uint256) {... */\n      swap2\n      swap1\n      pop\n      jump\t// out\n        /* \"contracts/artifacts/CoinFlipGuess.sol\":176:210  uint256 public consecutiveWins = 0 */\n    tag_12:\n      sload(0x00)\n      dup2\n      jump\t// out\n        /* \"#utility.yul\":88:205   */\n    tag_33:\n        /* \"#utility.yul\":197:198   */\n      0x00\n        /* \"#utility.yul\":194:195   */\n      dup1\n        /* \"#utility.yul\":187:199   */\n      revert\n        /* \"#utility.yul\":334:460   */\n    tag_35:\n        /* \"#utility.yul\":371:378   */\n      0x00\n        /* \"#utility.yul\":411:453   */\n      0xffffffffffffffffffffffffffffffffffffffff\n        /* \"#utility.yul\":404:409   */\n      dup3\n        /* \"#utility.yul\":400:454   */\n      and\n        /* \"#utility.yul\":389:454   */\n      swap1\n      pop\n        /* \"#utility.yul\":334:460   */\n      swap2\n      swap1\n      pop\n      jump\t// out\n        /* \"#utility.yul\":466:562   */\n    tag_36:\n        /* \"#utility.yul\":503:510   */\n      0x00\n        /* \"#utility.yul\":532:556   */\n      tag_53\n        /* \"#utility.yul\":550:555   */\n      dup3\n        /* \"#utility.yul\":532:556   */\n      tag_35\n      jump\t// in\n    tag_53:\n        /* \"#utility.yul\":521:556   */\n      swap1\n      pop\n        /* \"#utility.yul\":466:562   */\n      swap2\n      swap1\n      pop\n      jump\t// out\n        /* \"#utility.yul\":568:690   */\n    tag_37:\n        /* \"#utility.yul\":641:665   */\n      tag_55\n        /* \"#utility.yul\":659:664   */\n      dup2\n        /* \"#utility.yul\":641:665   */\n      tag_36\n      jump\t// in\n    tag_55:\n        /* \"#utility.yul\":634:639   */\n      dup2\n        /* \"#utility.yul\":631:666   */\n      eq\n        /* \"#utility.yul\":621:684   */\n      tag_56\n      jumpi\n        /* \"#utility.yul\":680:681   */\n      0x00\n        /* \"#utility.yul\":677:678   */\n      dup1\n        /* \"#utility.yul\":670:682   */\n      revert\n        /* \"#utility.yul\":621:684   */\n    tag_56:\n        /* \"#utility.yul\":568:690   */\n      pop\n      jump\t// out\n        /* \"#utility.yul\":696:835   */\n    tag_38:\n        /* \"#utility.yul\":742:747   */\n      0x00\n        /* \"#utility.yul\":780:786   */\n      dup2\n        /* \"#utility.yul\":767:787   */\n      calldataload\n        /* \"#utility.yul\":758:787   */\n      swap1\n      pop\n        /* \"#utility.yul\":796:829   */\n      tag_58\n        /* \"#utility.yul\":823:828   */\n      dup2\n        /* \"#utility.yul\":796:829   */\n      tag_37\n      jump\t// in\n    tag_58:\n        /* \"#utility.yul\":696:835   */\n      swap3\n      swap2\n      pop\n      pop\n      jump\t// out\n        /* \"#utility.yul\":841:1170   */\n    tag_7:\n        /* \"#utility.yul\":900:906   */\n      0x00\n        /* \"#utility.yul\":949:951   */\n      0x20\n        /* \"#utility.yul\":937:946   */\n      dup3\n        /* \"#utility.yul\":928:935   */\n      dup5\n        /* \"#utility.yul\":924:947   */\n      sub\n        /* \"#utility.yul\":920:952   */\n      slt\n        /* \"#utility.yul\":917:1036   */\n      iszero\n      tag_60\n      jumpi\n        /* \"#utility.yul\":955:1034   */\n      tag_61\n      tag_33\n      jump\t// in\n    tag_61:\n        /* \"#utility.yul\":917:1036   */\n    tag_60:\n        /* \"#utility.yul\":1075:1076   */\n      0x00\n        /* \"#utility.yul\":1100:1153   */\n      tag_62\n        /* \"#utility.yul\":1145:1152   */\n      dup5\n        /* \"#utility.yul\":1136:1142   */\n      dup3\n        /* \"#utility.yul\":1125:1134   */\n      dup6\n        /* \"#utility.yul\":1121:1143   */\n      add\n        /* \"#utility.yul\":1100:1153   */\n      tag_38\n      jump\t// in\n    tag_62:\n        /* \"#utility.yul\":1090:1153   */\n      swap2\n      pop\n        /* \"#utility.yul\":1046:1163   */\n      pop\n        /* \"#utility.yul\":841:1170   */\n      swap3\n      swap2\n      pop\n      pop\n      jump\t// out\n        /* \"#utility.yul\":1176:1253   */\n    tag_39:\n        /* \"#utility.yul\":1213:1220   */\n      0x00\n        /* \"#utility.yul\":1242:1247   */\n      dup2\n        /* \"#utility.yul\":1231:1247   */\n      swap1\n      pop\n        /* \"#utility.yul\":1176:1253   */\n      swap2\n      swap1\n      pop\n      jump\t// out\n        /* \"#utility.yul\":1259:1377   */\n    tag_40:\n        /* \"#utility.yul\":1346:1370   */\n      tag_65\n        /* \"#utility.yul\":1364:1369   */\n      dup2\n        /* \"#utility.yul\":1346:1370   */\n      tag_39\n      jump\t// in\n    tag_65:\n        /* \"#utility.yul\":1341:1344   */\n      dup3\n        /* \"#utility.yul\":1334:1371   */\n      mstore\n        /* \"#utility.yul\":1259:1377   */\n      pop\n      pop\n      jump\t// out\n        /* \"#utility.yul\":1383:1605   */\n    tag_10:\n        /* \"#utility.yul\":1476:1480   */\n      0x00\n        /* \"#utility.yul\":1514:1516   */\n      0x20\n        /* \"#utility.yul\":1503:1512   */\n      dup3\n        /* \"#utility.yul\":1499:1517   */\n      add\n        /* \"#utility.yul\":1491:1517   */\n      swap1\n      pop\n        /* \"#utility.yul\":1527:1598   */\n      tag_67\n        /* \"#utility.yul\":1595:1596   */\n      0x00\n        /* \"#utility.yul\":1584:1593   */\n      dup4\n        /* \"#utility.yul\":1580:1597   */\n      add\n        /* \"#utility.yul\":1571:1577   */\n      dup5\n        /* \"#utility.yul\":1527:1598   */\n      tag_40\n      jump\t// in\n    tag_67:\n        /* \"#utility.yul\":1383:1605   */\n      swap3\n      swap2\n      pop\n      pop\n      jump\t// out\n        /* \"#utility.yul\":1611:1791   */\n    tag_41:\n        /* \"#utility.yul\":1659:1736   */\n      0x4e487b7100000000000000000000000000000000000000000000000000000000\n        /* \"#utility.yul\":1656:1657   */\n      0x00\n        /* \"#utility.yul\":1649:1737   */\n      mstore\n        /* \"#utility.yul\":1756:1760   */\n      0x11\n        /* \"#utility.yul\":1753:1754   */\n      0x04\n        /* \"#utility.yul\":1746:1761   */\n      mstore\n        /* \"#utility.yul\":1780:1784   */\n      0x24\n        /* \"#utility.yul\":1777:1778   */\n      0x00\n        /* \"#utility.yul\":1770:1785   */\n      revert\n        /* \"#utility.yul\":1797:1991   */\n    tag_16:\n        /* \"#utility.yul\":1837:1841   */\n      0x00\n        /* \"#utility.yul\":1857:1877   */\n      tag_70\n        /* \"#utility.yul\":1875:1876   */\n      dup3\n        /* \"#utility.yul\":1857:1877   */\n      tag_39\n      jump\t// in\n    tag_70:\n        /* \"#utility.yul\":1852:1877   */\n      swap2\n      pop\n        /* \"#utility.yul\":1891:1911   */\n      tag_71\n        /* \"#utility.yul\":1909:1910   */\n      dup4\n        /* \"#utility.yul\":1891:1911   */\n      tag_39\n      jump\t// in\n    tag_71:\n        /* \"#utility.yul\":1886:1911   */\n      swap3\n      pop\n        /* \"#utility.yul\":1935:1936   */\n      dup3\n        /* \"#utility.yul\":1932:1933   */\n      dup3\n        /* \"#utility.yul\":1928:1937   */\n      sub\n        /* \"#utility.yul\":1920:1937   */\n      swap1\n      pop\n        /* \"#utility.yul\":1959:1960   */\n      dup2\n        /* \"#utility.yul\":1953:1957   */\n      dup2\n        /* \"#utility.yul\":1950:1961   */\n      gt\n        /* \"#utility.yul\":1947:1984   */\n      iszero\n      tag_72\n      jumpi\n        /* \"#utility.yul\":1964:1982   */\n      tag_73\n      tag_41\n      jump\t// in\n    tag_73:\n        /* \"#utility.yul\":1947:1984   */\n    tag_72:\n        /* \"#utility.yul\":1797:1991   */\n      swap3\n      swap2\n      pop\n      pop\n      jump\t// out\n        /* \"#utility.yul\":1997:2177   */\n    tag_42:\n        /* \"#utility.yul\":2045:2122   */\n      0x4e487b7100000000000000000000000000000000000000000000000000000000\n        /* \"#utility.yul\":2042:2043   */\n      0x00\n        /* \"#utility.yul\":2035:2123   */\n      mstore\n        /* \"#utility.yul\":2142:2146   */\n      0x12\n        /* \"#utility.yul\":2139:2140   */\n      0x04\n        /* \"#utility.yul\":2132:2147   */\n      mstore\n        /* \"#utility.yul\":2166:2170   */\n      0x24\n        /* \"#utility.yul\":2163:2164   */\n      0x00\n        /* \"#utility.yul\":2156:2171   */\n      revert\n        /* \"#utility.yul\":2183:2368   */\n    tag_19:\n        /* \"#utility.yul\":2223:2224   */\n      0x00\n        /* \"#utility.yul\":2240:2260   */\n      tag_76\n        /* \"#utility.yul\":2258:2259   */\n      dup3\n        /* \"#utility.yul\":2240:2260   */\n      tag_39\n      jump\t// in\n    tag_76:\n        /* \"#utility.yul\":2235:2260   */\n      swap2\n      pop\n        /* \"#utility.yul\":2274:2294   */\n      tag_77\n        /* \"#utility.yul\":2292:2293   */\n      dup4\n        /* \"#utility.yul\":2274:2294   */\n      tag_39\n      jump\t// in\n    tag_77:\n        /* \"#utility.yul\":2269:2294   */\n      swap3\n      pop\n        /* \"#utility.yul\":2313:2314   */\n      dup3\n        /* \"#utility.yul\":2303:2338   */\n      tag_78\n      jumpi\n        /* \"#utility.yul\":2318:2336   */\n      tag_79\n      tag_42\n      jump\t// in\n    tag_79:\n        /* \"#utility.yul\":2303:2338   */\n    tag_78:\n        /* \"#utility.yul\":2360:2361   */\n      dup3\n        /* \"#utility.yul\":2357:2358   */\n      dup3\n        /* \"#utility.yul\":2353:2362   */\n      div\n        /* \"#utility.yul\":2348:2362   */\n      swap1\n      pop\n        /* \"#utility.yul\":2183:2368   */\n      swap3\n      swap2\n      pop\n      pop\n      jump\t// out\n        /* \"#utility.yul\":2374:2464   */\n    tag_43:\n        /* \"#utility.yul\":2408:2415   */\n      0x00\n        /* \"#utility.yul\":2451:2456   */\n      dup2\n        /* \"#utility.yul\":2444:2457   */\n      iszero\n        /* \"#utility.yul\":2437:2458   */\n      iszero\n        /* \"#utility.yul\":2426:2458   */\n      swap1\n      pop\n        /* \"#utility.yul\":2374:2464   */\n      swap2\n      swap1\n      pop\n      jump\t// out\n        /* \"#utility.yul\":2470:2579   */\n    tag_44:\n        /* \"#utility.yul\":2551:2572   */\n      tag_82\n        /* \"#utility.yul\":2566:2571   */\n      dup2\n        /* \"#utility.yul\":2551:2572   */\n      tag_43\n      jump\t// in\n    tag_82:\n        /* \"#utility.yul\":2546:2549   */\n      dup3\n        /* \"#utility.yul\":2539:2573   */\n      mstore\n        /* \"#utility.yul\":2470:2579   */\n      pop\n      pop\n      jump\t// out\n        /* \"#utility.yul\":2585:2795   */\n    tag_23:\n        /* \"#utility.yul\":2672:2676   */\n      0x00\n        /* \"#utility.yul\":2710:2712   */\n      0x20\n        /* \"#utility.yul\":2699:2708   */\n      dup3\n        /* \"#utility.yul\":2695:2713   */\n      add\n        /* \"#utility.yul\":2687:2713   */\n      swap1\n      pop\n        /* \"#utility.yul\":2723:2788   */\n      tag_84\n        /* \"#utility.yul\":2785:2786   */\n      0x00\n        /* \"#utility.yul\":2774:2783   */\n      dup4\n        /* \"#utility.yul\":2770:2787   */\n      add\n        /* \"#utility.yul\":2761:2767   */\n      dup5\n        /* \"#utility.yul\":2723:2788   */\n      tag_44\n      jump\t// in\n    tag_84:\n        /* \"#utility.yul\":2585:2795   */\n      swap3\n      swap2\n      pop\n      pop\n      jump\t// out\n        /* \"#utility.yul\":2801:2917   */\n    tag_45:\n        /* \"#utility.yul\":2871:2892   */\n      tag_86\n        /* \"#utility.yul\":2886:2891   */\n      dup2\n        /* \"#utility.yul\":2871:2892   */\n      tag_43\n      jump\t// in\n    tag_86:\n        /* \"#utility.yul\":2864:2869   */\n      dup2\n        /* \"#utility.yul\":2861:2893   */\n      eq\n        /* \"#utility.yul\":2851:2911   */\n      tag_87\n      jumpi\n        /* \"#utility.yul\":2907:2908   */\n      0x00\n        /* \"#utility.yul\":2904:2905   */\n      dup1\n        /* \"#utility.yul\":2897:2909   */\n      revert\n        /* \"#utility.yul\":2851:2911   */\n    tag_87:\n        /* \"#utility.yul\":2801:2917   */\n      pop\n      jump\t// out\n        /* \"#utility.yul\":2923:3060   */\n    tag_46:\n        /* \"#utility.yul\":2977:2982   */\n      0x00\n        /* \"#utility.yul\":3008:3014   */\n      dup2\n        /* \"#utility.yul\":3002:3015   */\n      mload\n        /* \"#utility.yul\":2993:3015   */\n      swap1\n      pop\n        /* \"#utility.yul\":3024:3054   */\n      tag_89\n        /* \"#utility.yul\":3048:3053   */\n      dup2\n        /* \"#utility.yul\":3024:3054   */\n      tag_45\n      jump\t// in\n    tag_89:\n        /* \"#utility.yul\":2923:3060   */\n      swap3\n      swap2\n      pop\n      pop\n      jump\t// out\n        /* \"#utility.yul\":3066:3411   */\n    tag_27:\n        /* \"#utility.yul\":3133:3139   */\n      0x00\n        /* \"#utility.yul\":3182:3184   */\n      0x20\n        /* \"#utility.yul\":3170:3179   */\n      dup3\n        /* \"#utility.yul\":3161:3168   */\n      dup5\n        /* \"#utility.yul\":3157:3180   */\n      sub\n        /* \"#utility.yul\":3153:3185   */\n      slt\n        /* \"#utility.yul\":3150:3269   */\n      iszero\n      tag_91\n      jumpi\n        /* \"#utility.yul\":3188:3267   */\n      tag_92\n      tag_33\n      jump\t// in\n    tag_92:\n        /* \"#utility.yul\":3150:3269   */\n    tag_91:\n        /* \"#utility.yul\":3308:3309   */\n      0x00\n        /* \"#utility.yul\":3333:3394   */\n      tag_93\n        /* \"#utility.yul\":3386:3393   */\n      dup5\n        /* \"#utility.yul\":3377:3383   */\n      dup3\n        /* \"#utility.yul\":3366:3375   */\n      dup6\n        /* \"#utility.yul\":3362:3384   */\n      add\n        /* \"#utility.yul\":3333:3394   */\n      tag_46\n      jump\t// in\n    tag_93:\n        /* \"#utility.yul\":3323:3394   */\n      swap2\n      pop\n        /* \"#utility.yul\":3279:3404   */\n      pop\n        /* \"#utility.yul\":3066:3411   */\n      swap3\n      swap2\n      pop\n      pop\n      jump\t// out\n        /* \"#utility.yul\":3417:3650   */\n    tag_30:\n        /* \"#utility.yul\":3456:3459   */\n      0x00\n        /* \"#utility.yul\":3479:3503   */\n      tag_95\n        /* \"#utility.yul\":3497:3502   */\n      dup3\n        /* \"#utility.yul\":3479:3503   */\n      tag_39\n      jump\t// in\n    tag_95:\n        /* \"#utility.yul\":3470:3503   */\n      swap2\n      pop\n        /* \"#utility.yul\":3525:3591   */\n      0xffffffffffffffffffffffffffffffffffffffffffffffffffffffffffffffff\n        /* \"#utility.yul\":3518:3523   */\n      dup3\n        /* \"#utility.yul\":3515:3592   */\n      sub\n        /* \"#utility.yul\":3512:3615   */\n      tag_96\n      jumpi\n        /* \"#utility.yul\":3595:3613   */\n      tag_97\n      tag_41\n      jump\t// in\n    tag_97:\n        /* \"#utility.yul\":3512:3615   */\n    tag_96:\n        /* \"#utility.yul\":3642:3643   */\n      0x01\n        /* \"#utility.yul\":3635:3640   */\n      dup3\n        /* \"#utility.yul\":3631:3644   */\n      add\n        /* \"#utility.yul\":3624:3644   */\n      swap1\n      pop\n        /* \"#utility.yul\":3417:3650   */\n      swap2\n      swap1\n      pop\n      jump\t// out\n\n    auxdata: 0xa2646970667358221220426c885e8237a11bf7913c732ff20e594450ac2eaa1ba66ca2041b1879bd210864736f6c634300081a0033\n}\n",
				"bytecode": {
					"linkReferences": {},
					"object": "60806040525f80557f80000000000000000000000000000000000000000000000000000000000000006002553480156035575f80fd5b50610405806100435f395ff3fe608060405234801561000f575f80fd5b5060043610610034575f3560e01c8063c9f71c5b14610038578063e6f334d714610068575b5f80fd5b610052600480360381019061004d91906101e7565b610086565b60405161005f919061022a565b60405180910390f35b610070610184565b60405161007d919061022a565b60405180910390f35b5f806001436100959190610270565b405f1c905080600154036100a7575f80fd5b806001819055505f600254826100bd91906102d0565b90505f600182146100ce575f6100d1565b60015b90505f8573ffffffffffffffffffffffffffffffffffffffff16631d263f67836040518263ffffffff1660e01b815260040161010d919061031a565b6020604051808303815f875af1158015610129573d5f803e3d5ffd5b505050506040513d601f19601f8201168201806040525081019061014d919061035d565b90508015610170575f8081548092919061016690610388565b9190505550610177565b5f80819055505b5f54945050505050919050565b5f5481565b5f80fd5b5f73ffffffffffffffffffffffffffffffffffffffff82169050919050565b5f6101b68261018d565b9050919050565b6101c6816101ac565b81146101d0575f80fd5b50565b5f813590506101e1816101bd565b92915050565b5f602082840312156101fc576101fb610189565b5b5f610209848285016101d3565b91505092915050565b5f819050919050565b61022481610212565b82525050565b5f60208201905061023d5f83018461021b565b92915050565b7f4e487b71000000000000000000000000000000000000000000000000000000005f52601160045260245ffd5b5f61027a82610212565b915061028583610212565b925082820390508181111561029d5761029c610243565b5b92915050565b7f4e487b71000000000000000000000000000000000000000000000000000000005f52601260045260245ffd5b5f6102da82610212565b91506102e583610212565b9250826102f5576102f46102a3565b5b828204905092915050565b5f8115159050919050565b61031481610300565b82525050565b5f60208201905061032d5f83018461030b565b92915050565b61033c81610300565b8114610346575f80fd5b50565b5f8151905061035781610333565b92915050565b5f6020828403121561037257610371610189565b5b5f61037f84828501610349565b91505092915050565b5f61039282610212565b91507fffffffffffffffffffffffffffffffffffffffffffffffffffffffffffffffff82036103c4576103c3610243565b5b60018201905091905056fea2646970667358221220426c885e8237a11bf7913c732ff20e594450ac2eaa1ba66ca2041b1879bd210864736f6c634300081a0033",
					"opcodes": "PUSH1 0x80 PUSH1 0x40 MSTORE PUSH0 DUP1 SSTORE PUSH32 0x8000000000000000000000000000000000000000000000000000000000000000 PUSH1 0x2 SSTORE CALLVALUE DUP1 ISZERO PUSH1 0x35 JUMPI PUSH0 DUP1 REVERT JUMPDEST POP PUSH2 0x405 DUP1 PUSH2 0x43 PUSH0 CODECOPY PUSH0 RETURN INVALID PUSH1 0x80 PUSH1 0x40 MSTORE CALLVALUE DUP1 ISZERO PUSH2 0xF JUMPI PUSH0 DUP1 REVERT JUMPDEST POP PUSH1 0x4 CALLDATASIZE LT PUSH2 0x34 JUMPI PUSH0 CALLDATALOAD PUSH1 0xE0 SHR DUP1 PUSH4 0xC9F71C5B EQ PUSH2 0x38 JUMPI DUP1 PUSH4 0xE6F334D7 EQ PUSH2 0x68 JUMPI JUMPDEST PUSH0 DUP1 REVERT JUMPDEST PUSH2 0x52 PUSH1 0x4 DUP1 CALLDATASIZE SUB DUP2 ADD SWAP1 PUSH2 0x4D SWAP2 SWAP1 PUSH2 0x1E7 JUMP JUMPDEST PUSH2 0x86 JUMP JUMPDEST PUSH1 0x40 MLOAD PUSH2 0x5F SWAP2 SWAP1 PUSH2 0x22A JUMP JUMPDEST PUSH1 0x40 MLOAD DUP1 SWAP2 SUB SWAP1 RETURN JUMPDEST PUSH2 0x70 PUSH2 0x184 JUMP JUMPDEST PUSH1 0x40 MLOAD PUSH2 0x7D SWAP2 SWAP1 PUSH2 0x22A JUMP JUMPDEST PUSH1 0x40 MLOAD DUP1 SWAP2 SUB SWAP1 RETURN JUMPDEST PUSH0 DUP1 PUSH1 0x1 NUMBER PUSH2 0x95 SWAP2 SWAP1 PUSH2 0x270 JUMP JUMPDEST BLOCKHASH PUSH0 SHR SWAP1 POP DUP1 PUSH1 0x1 SLOAD SUB PUSH2 0xA7 JUMPI PUSH0 DUP1 REVERT JUMPDEST DUP1 PUSH1 0x1 DUP2 SWAP1 SSTORE POP PUSH0 PUSH1 0x2 SLOAD DUP3 PUSH2 0xBD SWAP2 SWAP1 PUSH2 0x2D0 JUMP JUMPDEST SWAP1 POP PUSH0 PUSH1 0x1 DUP3 EQ PUSH2 0xCE JUMPI PUSH0 PUSH2 0xD1 JUMP JUMPDEST PUSH1 0x1 JUMPDEST SWAP1 POP PUSH0 DUP6 PUSH20 0xFFFFFFFFFFFFFFFFFFFFFFFFFFFFFFFFFFFFFFFF AND PUSH4 0x1D263F67 DUP4 PUSH1 0x40 MLOAD DUP3 PUSH4 0xFFFFFFFF AND PUSH1 0xE0 SHL DUP2 MSTORE PUSH1 0x4 ADD PUSH2 0x10D SWAP2 SWAP1 PUSH2 0x31A JUMP JUMPDEST PUSH1 0x20 PUSH1 0x40 MLOAD DUP1 DUP4 SUB DUP2 PUSH0 DUP8 GAS CALL ISZERO DUP1 ISZERO PUSH2 0x129 JUMPI RETURNDATASIZE PUSH0 DUP1 RETURNDATACOPY RETURNDATASIZE PUSH0 REVERT JUMPDEST POP POP POP POP PUSH1 0x40 MLOAD RETURNDATASIZE PUSH1 0x1F NOT PUSH1 0x1F DUP3 ADD AND DUP3 ADD DUP1 PUSH1 0x40 MSTORE POP DUP2 ADD SWAP1 PUSH2 0x14D SWAP2 SWAP1 PUSH2 0x35D JUMP JUMPDEST SWAP1 POP DUP1 ISZERO PUSH2 0x170 JUMPI PUSH0 DUP1 DUP2 SLOAD DUP1 SWAP3 SWAP2 SWAP1 PUSH2 0x166 SWAP1 PUSH2 0x388 JUMP JUMPDEST SWAP2 SWAP1 POP SSTORE POP PUSH2 0x177 JUMP JUMPDEST PUSH0 DUP1 DUP2 SWAP1 SSTORE POP JUMPDEST PUSH0 SLOAD SWAP5 POP POP POP POP POP SWAP2 SWAP1 POP JUMP JUMPDEST PUSH0 SLOAD DUP2 JUMP JUMPDEST PUSH0 DUP1 REVERT JUMPDEST PUSH0 PUSH20 0xFFFFFFFFFFFFFFFFFFFFFFFFFFFFFFFFFFFFFFFF DUP3 AND SWAP1 POP SWAP2 SWAP1 POP JUMP JUMPDEST PUSH0 PUSH2 0x1B6 DUP3 PUSH2 0x18D JUMP JUMPDEST SWAP1 POP SWAP2 SWAP1 POP JUMP JUMPDEST PUSH2 0x1C6 DUP2 PUSH2 0x1AC JUMP JUMPDEST DUP2 EQ PUSH2 0x1D0 JUMPI PUSH0 DUP1 REVERT JUMPDEST POP JUMP JUMPDEST PUSH0 DUP2 CALLDATALOAD SWAP1 POP PUSH2 0x1E1 DUP2 PUSH2 0x1BD JUMP JUMPDEST SWAP3 SWAP2 POP POP JUMP JUMPDEST PUSH0 PUSH1 0x20 DUP3 DUP5 SUB SLT ISZERO PUSH2 0x1FC JUMPI PUSH2 0x1FB PUSH2 0x189 JUMP JUMPDEST JUMPDEST PUSH0 PUSH2 0x209 DUP5 DUP3 DUP6 ADD PUSH2 0x1D3 JUMP JUMPDEST SWAP2 POP POP SWAP3 SWAP2 POP POP JUMP JUMPDEST PUSH0 DUP2 SWAP1 POP SWAP2 SWAP1 POP JUMP JUMPDEST PUSH2 0x224 DUP2 PUSH2 0x212 JUMP JUMPDEST DUP3 MSTORE POP POP JUMP JUMPDEST PUSH0 PUSH1 0x20 DUP3 ADD SWAP1 POP PUSH2 0x23D PUSH0 DUP4 ADD DUP5 PUSH2 0x21B JUMP JUMPDEST SWAP3 SWAP2 POP POP JUMP JUMPDEST PUSH32 0x4E487B7100000000000000000000000000000000000000000000000000000000 PUSH0 MSTORE PUSH1 0x11 PUSH1 0x4 MSTORE PUSH1 0x24 PUSH0 REVERT JUMPDEST PUSH0 PUSH2 0x27A DUP3 PUSH2 0x212 JUMP JUMPDEST SWAP2 POP PUSH2 0x285 DUP4 PUSH2 0x212 JUMP JUMPDEST SWAP3 POP DUP3 DUP3 SUB SWAP1 POP DUP2 DUP2 GT ISZERO PUSH2 0x29D JUMPI PUSH2 0x29C PUSH2 0x243 JUMP JUMPDEST JUMPDEST SWAP3 SWAP2 POP POP JUMP JUMPDEST PUSH32 0x4E487B7100000000000000000000000000000000000000000000000000000000 PUSH0 MSTORE PUSH1 0x12 PUSH1 0x4 MSTORE PUSH1 0x24 PUSH0 REVERT JUMPDEST PUSH0 PUSH2 0x2DA DUP3 PUSH2 0x212 JUMP JUMPDEST SWAP2 POP PUSH2 0x2E5 DUP4 PUSH2 0x212 JUMP JUMPDEST SWAP3 POP DUP3 PUSH2 0x2F5 JUMPI PUSH2 0x2F4 PUSH2 0x2A3 JUMP JUMPDEST JUMPDEST DUP3 DUP3 DIV SWAP1 POP SWAP3 SWAP2 POP POP JUMP JUMPDEST PUSH0 DUP2 ISZERO ISZERO SWAP1 POP SWAP2 SWAP1 POP JUMP JUMPDEST PUSH2 0x314 DUP2 PUSH2 0x300 JUMP JUMPDEST DUP3 MSTORE POP POP JUMP JUMPDEST PUSH0 PUSH1 0x20 DUP3 ADD SWAP1 POP PUSH2 0x32D PUSH0 DUP4 ADD DUP5 PUSH2 0x30B JUMP JUMPDEST SWAP3 SWAP2 POP POP JUMP JUMPDEST PUSH2 0x33C DUP2 PUSH2 0x300 JUMP JUMPDEST DUP2 EQ PUSH2 0x346 JUMPI PUSH0 DUP1 REVERT JUMPDEST POP JUMP JUMPDEST PUSH0 DUP2 MLOAD SWAP1 POP PUSH2 0x357 DUP2 PUSH2 0x333 JUMP JUMPDEST SWAP3 SWAP2 POP POP JUMP JUMPDEST PUSH0 PUSH1 0x20 DUP3 DUP5 SUB SLT ISZERO PUSH2 0x372 JUMPI PUSH2 0x371 PUSH2 0x189 JUMP JUMPDEST JUMPDEST PUSH0 PUSH2 0x37F DUP5 DUP3 DUP6 ADD PUSH2 0x349 JUMP JUMPDEST SWAP2 POP POP SWAP3 SWAP2 POP POP JUMP JUMPDEST PUSH0 PUSH2 0x392 DUP3 PUSH2 0x212 JUMP JUMPDEST SWAP2 POP PUSH32 0xFFFFFFFFFFFFFFFFFFFFFFFFFFFFFFFFFFFFFFFFFFFFFFFFFFFFFFFFFFFFFFFF DUP3 SUB PUSH2 0x3C4 JUMPI PUSH2 0x3C3 PUSH2 0x243 JUMP JUMPDEST JUMPDEST PUSH1 0x1 DUP3 ADD SWAP1 POP SWAP2 SWAP1 POP JUMP INVALID LOG2 PUSH5 0x6970667358 0x22 SLT KECCAK256 TIMESTAMP PUSH13 0x885E8237A11BF7913C732FF20E MSIZE PREVRANDAO POP 0xAC 0x2E 0xAA SHL 0xA6 PUSH13 0xA2041B1879BD210864736F6C63 NUMBER STOP ADDMOD BYTE STOP CALLER "
				},
				"gasEstimates": {
					"creation": {
						"codeDepositCost": "205800",
						"executionCost": "27360",
						"totalCost": "233160"
					},
					"external": {
						"coinFlipGuess(address)": "infinite",
						"consecutiveWins()": "2424"
					}
				},
				"methodIdentifiers": {
					"coinFlipGuess(address)": "c9f71c5b",
					"consecutiveWins()": "e6f334d7"
				}
			},
			"storageLayout": {
				"storage": [
					{
						"astId": 12,
						"contract": "contracts/artifacts/CoinFlipGuess.sol:CoinFlipGuess",
						"label": "consecutiveWins",
						"offset": 0,
						"slot": "0",
						"type": "t_uint256"
					},
					{
						"astId": 14,
						"contract": "contracts/artifacts/CoinFlipGuess.sol:CoinFlipGuess",
						"label": "lastHash",
						"offset": 0,
						"slot": "1",
						"type": "t_uint256"
					},
					{
						"astId": 17,
						"contract": "contracts/artifacts/CoinFlipGuess.sol:CoinFlipGuess",
						"label": "FACTOR",
						"offset": 0,
						"slot": "2",
						"type": "t_uint256"
					}
				],
				"types": {
					"t_uint256": {
						"encoding": "inplace",
						"label": "uint256",
						"numberOfBytes": "32"
					}
				}
			},
			"userdoc": {
				"kind": "user",
				"methods": {},
				"version": 1
			}
		}
	}
}